{
  "address": "0xa0Dc59A687b32552E4DA70a00F4AA3Cc277D6323",
  "abi": [
    {
      "inputs": [
        {
          "internalType": "address",
          "name": "_xcmBridge",
          "type": "address"
        },
        {
          "internalType": "address",
          "name": "_feeRecipient",
          "type": "address"
        }
      ],
      "stateMutability": "nonpayable",
      "type": "constructor"
    },
    {
      "anonymous": false,
      "inputs": [
        {
          "indexed": true,
          "internalType": "bytes32",
          "name": "purchaseId",
          "type": "bytes32"
        },
        {
          "indexed": true,
          "internalType": "address",
          "name": "buyer",
          "type": "address"
        },
        {
          "indexed": true,
          "internalType": "address",
          "name": "seller",
          "type": "address"
        }
      ],
      "name": "CrossChainPurchaseCompleted",
      "type": "event"
    },
    {
      "anonymous": false,
      "inputs": [
        {
          "indexed": true,
          "internalType": "bytes32",
          "name": "purchaseId",
          "type": "bytes32"
        },
        {
          "indexed": true,
          "internalType": "bytes32",
          "name": "listingId",
          "type": "bytes32"
        },
        {
          "indexed": true,
          "internalType": "address",
          "name": "buyer",
          "type": "address"
        },
        {
          "indexed": false,
          "internalType": "uint32",
          "name": "sourceChainId",
          "type": "uint32"
        },
        {
          "indexed": false,
          "internalType": "uint32",
          "name": "destinationChainId",
          "type": "uint32"
        }
      ],
      "name": "CrossChainPurchaseInitiated",
      "type": "event"
    },
    {
      "anonymous": false,
      "inputs": [
        {
          "indexed": true,
          "internalType": "bytes32",
          "name": "listingId",
          "type": "bytes32"
        },
        {
          "indexed": true,
          "internalType": "address",
          "name": "seller",
          "type": "address"
        }
      ],
      "name": "ListingCancelled",
      "type": "event"
    },
    {
      "anonymous": false,
      "inputs": [
        {
          "indexed": true,
          "internalType": "bytes32",
          "name": "listingId",
          "type": "bytes32"
        },
        {
          "indexed": true,
          "internalType": "address",
          "name": "seller",
          "type": "address"
        },
        {
          "indexed": true,
          "internalType": "address",
          "name": "nftContract",
          "type": "address"
        },
        {
          "indexed": false,
          "internalType": "uint256",
          "name": "tokenId",
          "type": "uint256"
        },
        {
          "indexed": false,
          "internalType": "uint256",
          "name": "price",
          "type": "uint256"
        },
        {
          "indexed": false,
          "internalType": "address",
          "name": "paymentToken",
          "type": "address"
        },
        {
          "indexed": false,
          "internalType": "bool",
          "name": "isCrossChain",
          "type": "bool"
        }
      ],
      "name": "NFTListed",
      "type": "event"
    },
    {
      "anonymous": false,
      "inputs": [
        {
          "indexed": true,
          "internalType": "bytes32",
          "name": "listingId",
          "type": "bytes32"
        },
        {
          "indexed": true,
          "internalType": "address",
          "name": "buyer",
          "type": "address"
        },
        {
          "indexed": true,
          "internalType": "address",
          "name": "seller",
          "type": "address"
        },
        {
          "indexed": false,
          "internalType": "uint256",
          "name": "price",
          "type": "uint256"
        },
        {
          "indexed": false,
          "internalType": "address",
          "name": "paymentToken",
          "type": "address"
        }
      ],
      "name": "NFTSold",
      "type": "event"
    },
    {
      "anonymous": false,
      "inputs": [
        {
          "indexed": true,
          "internalType": "address",
          "name": "previousOwner",
          "type": "address"
        },
        {
          "indexed": true,
          "internalType": "address",
          "name": "newOwner",
          "type": "address"
        }
      ],
      "name": "OwnershipTransferred",
      "type": "event"
    },
    {
      "anonymous": false,
      "inputs": [
        {
          "indexed": false,
          "internalType": "address",
          "name": "account",
          "type": "address"
        }
      ],
      "name": "Paused",
      "type": "event"
    },
    {
      "anonymous": false,
      "inputs": [
        {
          "indexed": false,
          "internalType": "address",
          "name": "account",
          "type": "address"
        }
      ],
      "name": "Unpaused",
      "type": "event"
    },
    {
      "inputs": [],
      "name": "MAX_FEE",
      "outputs": [
        {
          "internalType": "uint256",
          "name": "",
          "type": "uint256"
        }
      ],
      "stateMutability": "view",
      "type": "function"
    },
    {
      "inputs": [
        {
          "internalType": "bytes32",
          "name": "listingId",
          "type": "bytes32"
        }
      ],
      "name": "cancelListing",
      "outputs": [],
      "stateMutability": "nonpayable",
      "type": "function"
    },
    {
      "inputs": [
        {
          "internalType": "bytes32",
          "name": "purchaseId",
          "type": "bytes32"
        }
      ],
      "name": "completeCrossChainPurchase",
      "outputs": [],
      "stateMutability": "nonpayable",
      "type": "function"
    },
    {
      "inputs": [
        {
          "internalType": "bytes32",
          "name": "",
          "type": "bytes32"
        }
      ],
      "name": "crossChainPurchases",
      "outputs": [
        {
          "internalType": "bytes32",
          "name": "listingId",
          "type": "bytes32"
        },
        {
          "internalType": "address",
          "name": "buyer",
          "type": "address"
        },
        {
          "internalType": "uint256",
          "name": "price",
          "type": "uint256"
        },
        {
          "internalType": "address",
          "name": "paymentToken",
          "type": "address"
        },
        {
          "internalType": "uint32",
          "name": "sourceChainId",
          "type": "uint32"
        },
        {
          "internalType": "uint32",
          "name": "destinationChainId",
          "type": "uint32"
        },
        {
          "internalType": "bool",
          "name": "completed",
          "type": "bool"
        },
        {
          "internalType": "uint256",
          "name": "timestamp",
          "type": "uint256"
        }
      ],
      "stateMutability": "view",
      "type": "function"
    },
    {
      "inputs": [],
      "name": "feeRecipient",
      "outputs": [
        {
          "internalType": "address",
          "name": "",
          "type": "address"
        }
      ],
      "stateMutability": "view",
      "type": "function"
    },
    {
      "inputs": [
        {
          "internalType": "bytes32",
          "name": "purchaseId",
          "type": "bytes32"
        }
      ],
      "name": "getCrossChainPurchase",
      "outputs": [
        {
          "components": [
            {
              "internalType": "bytes32",
              "name": "listingId",
              "type": "bytes32"
            },
            {
              "internalType": "address",
              "name": "buyer",
              "type": "address"
            },
            {
              "internalType": "uint256",
              "name": "price",
              "type": "uint256"
            },
            {
              "internalType": "address",
              "name": "paymentToken",
              "type": "address"
            },
            {
              "internalType": "uint32",
              "name": "sourceChainId",
              "type": "uint32"
            },
            {
              "internalType": "uint32",
              "name": "destinationChainId",
              "type": "uint32"
            },
            {
              "internalType": "bool",
              "name": "completed",
              "type": "bool"
            },
            {
              "internalType": "uint256",
              "name": "timestamp",
              "type": "uint256"
            }
          ],
          "internalType": "struct CrossChainMarketplace.CrossChainPurchase",
          "name": "",
          "type": "tuple"
        }
      ],
      "stateMutability": "view",
      "type": "function"
    },
    {
      "inputs": [
        {
          "internalType": "bytes32",
          "name": "listingId",
          "type": "bytes32"
        }
      ],
      "name": "getListing",
      "outputs": [
        {
          "components": [
            {
              "internalType": "address",
              "name": "seller",
              "type": "address"
            },
            {
              "internalType": "address",
              "name": "nftContract",
              "type": "address"
            },
            {
              "internalType": "uint256",
              "name": "tokenId",
              "type": "uint256"
            },
            {
              "internalType": "uint256",
              "name": "price",
              "type": "uint256"
            },
            {
              "internalType": "address",
              "name": "paymentToken",
              "type": "address"
            },
            {
              "internalType": "uint32",
              "name": "sourceChainId",
              "type": "uint32"
            },
            {
              "internalType": "bool",
              "name": "isActive",
              "type": "bool"
            },
            {
              "internalType": "bool",
              "name": "isCrossChain",
              "type": "bool"
            },
            {
              "internalType": "uint256",
              "name": "timestamp",
              "type": "uint256"
            }
          ],
          "internalType": "struct CrossChainMarketplace.Listing",
          "name": "",
          "type": "tuple"
        }
      ],
      "stateMutability": "view",
      "type": "function"
    },
    {
      "inputs": [
        {
          "internalType": "bytes32",
          "name": "listingId",
          "type": "bytes32"
        },
        {
          "internalType": "uint32",
          "name": "destinationChainId",
          "type": "uint32"
        }
      ],
      "name": "initiateCrossChainPurchase",
      "outputs": [],
      "stateMutability": "payable",
      "type": "function"
    },
    {
      "inputs": [
        {
          "internalType": "address",
          "name": "nftContract",
          "type": "address"
        },
        {
          "internalType": "uint256",
          "name": "tokenId",
          "type": "uint256"
        },
        {
          "internalType": "uint256",
          "name": "price",
          "type": "uint256"
        },
        {
          "internalType": "address",
          "name": "paymentToken",
          "type": "address"
        },
        {
          "internalType": "bool",
          "name": "isCrossChain",
          "type": "bool"
        }
      ],
      "name": "listNFT",
      "outputs": [],
      "stateMutability": "nonpayable",
      "type": "function"
    },
    {
      "inputs": [
        {
          "internalType": "bytes32",
          "name": "",
          "type": "bytes32"
        }
      ],
      "name": "listings",
      "outputs": [
        {
          "internalType": "address",
          "name": "seller",
          "type": "address"
        },
        {
          "internalType": "address",
          "name": "nftContract",
          "type": "address"
        },
        {
          "internalType": "uint256",
          "name": "tokenId",
          "type": "uint256"
        },
        {
          "internalType": "uint256",
          "name": "price",
          "type": "uint256"
        },
        {
          "internalType": "address",
          "name": "paymentToken",
          "type": "address"
        },
        {
          "internalType": "uint32",
          "name": "sourceChainId",
          "type": "uint32"
        },
        {
          "internalType": "bool",
          "name": "isActive",
          "type": "bool"
        },
        {
          "internalType": "bool",
          "name": "isCrossChain",
          "type": "bool"
        },
        {
          "internalType": "uint256",
          "name": "timestamp",
          "type": "uint256"
        }
      ],
      "stateMutability": "view",
      "type": "function"
    },
    {
      "inputs": [],
      "name": "marketplaceFee",
      "outputs": [
        {
          "internalType": "uint256",
          "name": "",
          "type": "uint256"
        }
      ],
      "stateMutability": "view",
      "type": "function"
    },
    {
      "inputs": [],
      "name": "owner",
      "outputs": [
        {
          "internalType": "address",
          "name": "",
          "type": "address"
        }
      ],
      "stateMutability": "view",
      "type": "function"
    },
    {
      "inputs": [],
      "name": "pause",
      "outputs": [],
      "stateMutability": "nonpayable",
      "type": "function"
    },
    {
      "inputs": [],
      "name": "paused",
      "outputs": [
        {
          "internalType": "bool",
          "name": "",
          "type": "bool"
        }
      ],
      "stateMutability": "view",
      "type": "function"
    },
    {
      "inputs": [
        {
          "internalType": "bytes32",
          "name": "listingId",
          "type": "bytes32"
        }
      ],
      "name": "purchaseNFT",
      "outputs": [],
      "stateMutability": "payable",
      "type": "function"
    },
    {
      "inputs": [],
      "name": "renounceOwnership",
      "outputs": [],
      "stateMutability": "nonpayable",
      "type": "function"
    },
    {
      "inputs": [
        {
          "internalType": "uint32",
          "name": "chainId",
          "type": "uint32"
        },
        {
          "internalType": "bool",
          "name": "supported",
          "type": "bool"
        }
      ],
      "name": "setChainSupport",
      "outputs": [],
      "stateMutability": "nonpayable",
      "type": "function"
    },
    {
      "inputs": [
        {
          "internalType": "address",
          "name": "_feeRecipient",
          "type": "address"
        }
      ],
      "name": "setFeeRecipient",
      "outputs": [],
      "stateMutability": "nonpayable",
      "type": "function"
    },
    {
      "inputs": [
        {
          "internalType": "uint256",
          "name": "_fee",
          "type": "uint256"
        }
      ],
      "name": "setMarketplaceFee",
      "outputs": [],
      "stateMutability": "nonpayable",
      "type": "function"
    },
    {
      "inputs": [
        {
          "internalType": "address",
          "name": "token",
          "type": "address"
        },
        {
          "internalType": "bool",
          "name": "supported",
          "type": "bool"
        }
      ],
      "name": "setPaymentTokenSupport",
      "outputs": [],
      "stateMutability": "nonpayable",
      "type": "function"
    },
    {
      "inputs": [
        {
          "internalType": "uint32",
          "name": "",
          "type": "uint32"
        }
      ],
      "name": "supportedChains",
      "outputs": [
        {
          "internalType": "bool",
          "name": "",
          "type": "bool"
        }
      ],
      "stateMutability": "view",
      "type": "function"
    },
    {
      "inputs": [
        {
          "internalType": "address",
          "name": "",
          "type": "address"
        }
      ],
      "name": "supportedPaymentTokens",
      "outputs": [
        {
          "internalType": "bool",
          "name": "",
          "type": "bool"
        }
      ],
      "stateMutability": "view",
      "type": "function"
    },
    {
      "inputs": [
        {
          "internalType": "address",
          "name": "newOwner",
          "type": "address"
        }
      ],
      "name": "transferOwnership",
      "outputs": [],
      "stateMutability": "nonpayable",
      "type": "function"
    },
    {
      "inputs": [],
      "name": "unpause",
      "outputs": [],
      "stateMutability": "nonpayable",
      "type": "function"
    },
    {
      "inputs": [],
      "name": "xcmBridge",
      "outputs": [
        {
          "internalType": "contract XCMBridge",
          "name": "",
          "type": "address"
        }
      ],
      "stateMutability": "view",
      "type": "function"
    }
  ],
  "transactionHash": "0x3efffc4cdb7abc447f546473c95ec0365af1a62b0a26cd1cdb2b9b5537b91dbc",
  "args": [
    "0x73C506D96F474653f7bEbDDDf2b92AC95983e1E0",
    "0x906CBCA3B02fd5BF783206883565c73A9Fc78e57"
  ],
  "numDeployments": 1,
  "solcInputHash": "9aadc5f2e71d729603c4c42ca2daaef4",
  "bytecode": "0x6080346200011e5762001efe601f38829003908101601f19168301906001600160401b038211848310176200012357808491604094859485528339810103126200011e5760016200005e6020620000568562000139565b940162000139565b916000928354838060a01b03199133838316178655835196858060a01b0392833391167f8be0079c531659141344cd1fd0a4f28419497f9722a3daafe3b4186f6b6457e08980a38580556002549060fa6007556101008760a81b039060081b1690868060a81b031916176002551690600854161760085563190f1b46835260066020528083209260ff199383858254161790556105078152818120838582541617905580805260056020522091825416179055611daf90816200014f8239f35b600080fd5b634e487b7160e01b600052604160045260246000fd5b51906001600160a01b03821682036200011e5756fe608080604052600436101561001357600080fd5b600090813560e01c908163175c0d161461183357508063185dee72146112b4578063248514dd1461127a5780633f4ba83a146111e557806346904840146111bc5780635c975abb146111995780636a1669641461117b5780636bceb7ec14611066578063715018a61461101e5780637b66398514610ff15780637e7c6c7a14610f665780638456cb5914610f0b5780638da5cb5b14610ee4578063921d913514610e925780639299e55214610dd55780639407ea9814610d75578063ad22ea3514610984578063b1c5578c14610945578063bc063e1a14610928578063c18b8db41461088e578063c6d8cde11461076e578063d9197d64146102bf578063e74b981b1461023a578063f2fde38b146101895763f6ee27b71461013457600080fd5b3461018657604036600319011261018657610183610150611965565b63ffffffff61015d61198e565b9161016661199d565b1683526006602052604083209060ff801983541691151516179055565b80f35b80fd5b5034610186576020366003190112610186576101a3611978565b6101ab61199d565b6001600160a01b039081169081156101e6576000548260018060a01b031982161760005516600080516020611d5a833981519152600080a380f35b60405162461bcd60e51b815260206004820152602660248201527f4f776e61626c653a206e6577206f776e657220697320746865207a65726f206160448201526564647265737360d01b6064820152608490fd5b503461018657602036600319011261018657610254611978565b61025c61199d565b6001600160a01b0316801561028257600880546001600160a01b03191691909117905580f35b60405162461bcd60e51b8152602060048201526015602482015274125b9d985b1a5908199959481c9958da5c1a595b9d605a1b6044820152606490fd5b50346101865760a0366003190112610186576102d9611978565b606435906001600160a01b03821682036107695760843590811515820361076957610302611b01565b61030a611abd565b60443515610725576001600160a01b038316845260056020908152604085205490929060ff16156106e2576040516331a9108f60e11b815260248035600483015284908290816001600160a01b0387165afa9081156106565786916106c5575b50336001600160a01b039091160361068e5760405163e985e9c560e01b815233600482015230602482015283816044816001600160a01b0387165afa908115610656578691610661575b5080156105e2575b156105a2576040519383850160018060601b03198460601b16815260243560348701523360601b6054870152426068870152466088870152608886528560c081011060018060401b0360c08801111761058c5760c08601604052855190209461042760c082016119f5565b3360c082015260058660e083019260018060a01b038716845285886105028c61010085016024358152610120860195604435875261014081019660018060a01b038c168852610160820192604063ffffffff958646168652600361018086019960018b526101a087019b15158c526101c087019d8e429052835252209b8c9360c060018060a01b039101511660018060a01b031980955416178d5560018d019060018060a01b03905116848254161790555160028c01555160038b015560048a019660018060a01b0390511690875416178655511684611a9a565b518254915161ffff60c01b1990921690151560c01b60ff60c01b161790151560c81b60ff60c81b1617905551910155604080516024358152604435958101959095526001600160a01b03918216908501529015156060840152169133917f613db017cf970b3bf73ac6a3ea7e34b1c2c45f56617db517fbb448e27e411ca290608090a46001805580f35b634e487b7160e01b600052604160045260246000fd5b60405162461bcd60e51b815260048101849052601860248201527713585c9ad95d1c1b1858d9481b9bdd08185c1c1c9bdd995960421b6044820152606490fd5b5060405163020604bf60e21b815260248035600483015284908290816001600160a01b0387165afa908115610656578691610629575b506001600160a01b031630146103bc565b6106499150843d861161064f575b6106418183611a40565b810190611a63565b38610618565b503d610637565b6040513d88823e3d90fd5b6106819150843d8611610687575b6106798183611a40565b810190611a82565b386103b4565b503d61066f565b60405162461bcd60e51b815260048101849052600f60248201526e2737ba103a37b5b2b71037bbb732b960891b6044820152606490fd5b6106dc9150843d861161064f576106418183611a40565b3861036a565b60405162461bcd60e51b815260048101849052601b60248201527a14185e5b595b9d081d1bdad95b881b9bdd081cdd5c1c1bdc9d1959602a1b6044820152606490fd5b60405162461bcd60e51b815260206004820152601c60248201527b05072696365206d7573742062652067726561746572207468616e20360241b6044820152606490fd5b600080fd5b503461018657602036600319011261018657600254600435906001600160a01b039060081c8116330361084a578183526004602052604083209060038201805460ff8160e01c166108085760ff60e01b1916600160e01b179055600182015491548452600360205260408420548116929116907f0d722b3fbeea8d664184e37684ed9a1b9a5a8eebe8565c476cdb25fc74f7653c8480a480f35b60405162461bcd60e51b815260206004820152601a602482015279141d5c98da185cd948185b1c9958591e4818dbdb5c1b195d195960321b6044820152606490fd5b60405162461bcd60e51b815260206004820152601c60248201527b4f6e6c792058434d206272696467652063616e20636f6d706c65746560201b6044820152606490fd5b503461018657602036600319011261018657604061012091600435815260036020522060018060a01b0360ff81835416928260018201541692600282015460038301549060056004850154940154956040519788526020880152604087015260608601528116608085015263ffffffff8160a01c1660a0850152818160c01c16151560c085015260c81c16151560e0830152610100820152f35b503461018657806003193601126101865760206040516103e88152f35b50346101865760203660031901126101865760209060ff906040906001600160a01b03610970611978565b168152600584522054166040519015158152f35b50602080600319360112610d715760043561099d611b01565b6109a5611abd565b808352600382526040832090600482019283546109c760ff8260c01c16611b57565b60ff8160c81c16610d125763ffffffff804616908260a01c1603610cdf576003840154936127106109fa60075487611b98565b0487610a068288611bc1565b6001600160a01b0394851680610b8e575081808092610a4895610a2b8c341015611cd7565b8281610b6b575b5050878754165af1610a42611d1a565b50611c93565b843411610b18575b816001820154169087838254166002830154843b15610b1457610a8e94839283604051809881958294632142170760e11b8452339060048501611bce565b03925af1928315610b07578493610aea575b505086549660ff60c01b198816905554169460405194855216908301527f71c70d4eb4440b7cb984e4328ffc3088b6c5c0fac2007eef082e1d22fd732ce760403393a46001805580f35b610af691929350611a2d565b610b035781908738610aa0565b8680fd5b50604051903d90823e3d90fd5b8280fd5b86808080610b268934611bc1565b335af1610b31611d1a565b50610a505760405162461bcd60e51b815260048101849052600d60248201526c1499599d5b990819985a5b1959609a1b6044820152606490fd5b808080610b87948d600854165af1610b81611d1a565b50611c51565b3882610a32565b6040516323b872dd60e01b815292879084908180610bb18e303360048501611bce565b0391855af1928315610cd4578793610bd0918d91610cb7575b50611bf0565b83610c43575b610bfc9350858554168b60405180968195829463a9059cbb60e01b845260048401611c36565b03925af18015610c3857610c16918991610c1b5750611c93565b610a50565b610c329150853d8711610687576106798183611a40565b38610a42565b6040513d8a823e3d90fd5b91610c68938660085416604051958692839263a9059cbb60e01b845260048401611c36565b03818d865af1918215610cac57610c8a8793610bfc958d91610c8f5750611c51565b610bd6565b610ca69150853d8711610687576106798183611a40565b38610b81565b6040513d8c823e3d90fd5b610cce9150853d8711610687576106798183611a40565b38610bca565b6040513d8d823e3d90fd5b60405162461bcd60e51b815260048101839052600b60248201526a2bb937b7339031b430b4b760a91b6044820152606490fd5b60405162461bcd60e51b815260048101839052603160248201527f5573652063726f73732d636861696e20707572636861736520666f722063726f60448201527073732d636861696e206c697374696e677360781b6064820152608490fd5b5080fd5b503461018657602036600319011261018657600435610d9261199d565b6103e88111610da15760075580f35b60405162461bcd60e51b815260206004820152600c60248201526b08ccaca40e8dede40d0d2ced60a31b6044820152606490fd5b503461018657602036600319011261018657600435610df2611b01565b80825260036020526040822080546001600160a01b03163303610e59576004018054610e2360ff8260c01c16611b57565b60ff60c01b1916905533907faf2daca9870585bf8789d28a6290e0b49491e1fb967adc141b2a68c5e386d9768380a36001805580f35b60405162461bcd60e51b81526020600482015260116024820152702737ba103634b9ba34b7339037bbb732b960791b6044820152606490fd5b503461018657604036600319011261018657610183610eaf611978565b610eb761198e565b90610ec061199d565b60018060a01b031683526005602052604083209060ff801983541691151516179055565b5034610186578060031936011261018657546040516001600160a01b039091168152602090f35b5034610186578060031936011261018657610f2461199d565b610f2c611abd565b600160ff1960025416176002557f62e78cea01bee320cd4e420270b5ea74000d11b0c9f74754ebdbfc544b05a2586020604051338152a180f35b503461018657602036600319011261018657604061010091600435815260046020522080549060ff60018060a01b0391826001820154169260028201546004600384015493015494604051968752602087015260408601528116606085015263ffffffff808260a01c1660808601528160c01c1660a085015260e01c16151560c083015260e0820152f35b503461018657806003193601126101865760025460405160089190911c6001600160a01b03168152602090f35b503461018657806003193601126101865761103761199d565b600080546001600160a01b0319811682556001600160a01b0316600080516020611d5a8339815191528280a380f35b5034610186576020366003190112610186576040816101009260e0835161108c81611a11565b82815282602082015282858201528260608201528260808201528260a08201528260c0820152015260043581526004602052206040516110cb81611a11565b81549182825260c08260018060a01b03806001850154169360208301948552600281015491604084019283526003820154958693826060870192818716845260e0600460808a019760ff63ffffffff9c8d9c8c8e809e60a01c168d5260a082019e8f91841c169052019d841c1615158d5201549b019a8b526040519b8c52511660208b01525160408a01525116606088015251166080860152511660a084015251151560c08301525160e0820152f35b50346101865780600319360112610186576020600754604051908152f35b5034610186578060031936011261018657602060ff600254166040519015158152f35b50346101865780600319360112610186576008546040516001600160a01b039091168152602090f35b50346101865780600319360112610186576111fe61199d565b60025460ff81161561123e5760ff19166002557f5db9ee0a495bf2e6ff9c91a7834c1ba4fdd244a5e8aa4e537bd38aeae4b073aa6020604051338152a180f35b60405162461bcd60e51b815260206004820152601460248201527314185d5cd8589b194e881b9bdd081c185d5cd95960621b6044820152606490fd5b50346101865760203660031901126101865760ff604060209263ffffffff6112a0611965565b168152600684522054166040519015158152f35b5060403660031901126101865763ffffffff6024351660243503610186576112da611b01565b6112e2611abd565b600435815260036020526040812060048101805461130560ff8260c01c16611b57565b60ff8160c81c16156117f25763ffffffff602435168452600660205260ff604085205416156117ad576003830154928461271061134460075487611b98565b0461134f8187611bc1565b6001600160a01b03949091908516806116905750829061137188341015611cd7565b80158015611667575b50508080928686541682821561165e575bf11561164a5783341161162c575b6040516020810160043581523360601b604083015263ffffffff60e01b60243560e01b1660548301524260588301526058825281608081011060018060401b036080840111176116185760049060808301604052825190208096838961149b63ffffffff8a5461140b60808601611a11565b8735608086015260a0850133815260c0860196875260e08601968c831688528361010088019360a01c16835260806040610120890197866024351689526101606101408b019a828c52019b428d5281528c602052209b01518b558c60018c019251169160018060a01b031992838254161790555160028b01558b60038b0197511690875416178655511684611a9a565b519082549060ff60e01b9051151560e01b169163ffffffff60c01b9060c01b169064ffffffffff60c01b19161717905551910155600181019180835416918660028054920193845490803b15610b14578483611512956040519687958694859363095ea7b360e01b855260081c1660048401611c36565b03925af1801561160d576115f6575b50908186939260025460081c169254169054823b156115f25760648492836040519586948593637ee2548d60e11b85526004850152602484015263ffffffff6024351660448401525af180156115e7576115d3575b505080549060ff60c01b198216905563ffffffff6040519160a01c16815263ffffffff60243516602082015233917f9970e9a1cf46c8081d3b4de0f7437f317c16696ce7431dc2e0915c817c89413f604060043593a46001805580f35b6115dc90611a2d565b610b14578238611576565b6040513d84823e3d90fd5b8380fd5b611604909691939296611a2d565b94909138611521565b6040513d89823e3d90fd5b634e487b7160e01b87526041600452602487fd5b8480808061163a8834611bc1565b818115611655575b3390f1611399575b6040513d86823e3d90fd5b506108fc611642565b506108fc61138b565b82809281928960085416908390611687575bf115610b075781388061137a565b506108fc611679565b6040516323b872dd60e01b815292935091602081806116b48b303360048501611bce565b03818c875af180156117a2576116d0918a916117895750611bf0565b80611737575b506116ff91602091858554168960405180968195829463a9059cbb60e01b845260048401611c36565b03925af180156106565761171991879161171e5750611c93565b611399565b610c32915060203d602011610687576106798183611a40565b91602061175e938660085416604051958692839263a9059cbb60e01b845260048401611c36565b03818b865af1918215610c38576117816020936116ff958b91610c8f5750611c51565b9150916116d6565b610cce915060203d602011610687576106798183611a40565b6040513d8b823e3d90fd5b60405162461bcd60e51b815260206004820152601f60248201527f44657374696e6174696f6e20636861696e206e6f7420737570706f72746564006044820152606490fd5b60405162461bcd60e51b81526020600482015260196024820152784e6f7420612063726f73732d636861696e206c697374696e6760381b6044820152606490fd5b82346101865760203660031901126101865761184e826119f5565b8082528060208301528060408301528060608301528060808301528060a08301528060c08301528060e0830152806101008093015260043581526003602052604090209060405161189e816119f5565b600160a01b6001900380845416938483528160018201541660208401908152600282015460408501908152600383015493606086019485526004840154946080870190828716825260a08801938363ffffffff96878a60a01c1687528b60c08c01998b60c01c60ff1615158b5260e08d019b60c81c60ff1615158c52600501549b019a8b526040519c8d52511660208c01525160408b01525160608a015251166080880152511660a086015251151560c085015251151560e0840152519082015261012090f35b6004359063ffffffff8216820361076957565b600435906001600160a01b038216820361076957565b60243590811515820361076957565b6000546001600160a01b031633036119b157565b606460405162461bcd60e51b815260206004820152602060248201527f4f776e61626c653a2063616c6c6572206973206e6f7420746865206f776e65726044820152fd5b61012081019081106001600160401b0382111761058c57604052565b61010081019081106001600160401b0382111761058c57604052565b6001600160401b03811161058c57604052565b601f909101601f19168101906001600160401b0382119082101761058c57604052565b9081602091031261076957516001600160a01b03811681036107695790565b90816020910312610769575180151581036107695790565b805463ffffffff60a01b191660a09290921b63ffffffff60a01b16919091179055565b60ff60025416611ac957565b60405162461bcd60e51b815260206004820152601060248201526f14185d5cd8589b194e881c185d5cd95960821b6044820152606490fd5b600260015414611b12576002600155565b60405162461bcd60e51b815260206004820152601f60248201527f5265656e7472616e637947756172643a207265656e7472616e742063616c6c006044820152606490fd5b15611b5e57565b60405162461bcd60e51b81526020600482015260126024820152714c697374696e67206e6f742061637469766560701b6044820152606490fd5b81810292918115918404141715611bab57565b634e487b7160e01b600052601160045260246000fd5b91908203918211611bab57565b6001600160a01b03918216815291166020820152604081019190915260600190565b15611bf757565b60405162461bcd60e51b815260206004820152601760248201527614185e5b595b9d081d1c985b9cd9995c8819985a5b1959604a1b6044820152606490fd5b6001600160a01b039091168152602081019190915260400190565b15611c5857565b60405162461bcd60e51b8152602060048201526013602482015272119959481d1c985b9cd9995c8819985a5b1959606a1b6044820152606490fd5b15611c9a57565b60405162461bcd60e51b815260206004820152601560248201527414d95b1b195c881c185e5b595b9d0819985a5b1959605a1b6044820152606490fd5b15611cde57565b60405162461bcd60e51b8152602060048201526014602482015273125b9cdd59999a58da595b9d081c185e5b595b9d60621b6044820152606490fd5b3d15611d54573d906001600160401b03821161058c5760405191611d48601f8201601f191660200184611a40565b82523d6000602084013e565b60609056fe8be0079c531659141344cd1fd0a4f28419497f9722a3daafe3b4186f6b6457e0a2646970667358221220a3b78c620ca7b130ba9f9086dcc77d5b7a193eee234fa3f26d704886cabc2d7e64736f6c63430008110033",
  "devdoc": {
    "details": "Cross-chain NFT marketplace with XCM integration Enables NFT trading across Polkadot Hub and Moonbase Alpha",
    "kind": "dev",
    "methods": {
      "cancelListing(bytes32)": {
        "details": "Cancel listing",
        "params": {
          "listingId": "Listing ID"
        }
      },
      "completeCrossChainPurchase(bytes32)": {
        "details": "Complete cross-chain purchase (called by XCM bridge)",
        "params": {
          "purchaseId": "Purchase ID"
        }
      },
      "getCrossChainPurchase(bytes32)": {
        "details": "Get cross-chain purchase information",
        "params": {
          "purchaseId": "Purchase ID"
        },
        "returns": {
          "_0": "CrossChainPurchase information"
        }
      },
      "getListing(bytes32)": {
        "details": "Get listing information",
        "params": {
          "listingId": "Listing ID"
        },
        "returns": {
          "_0": "Listing information"
        }
      },
      "initiateCrossChainPurchase(bytes32,uint32)": {
        "details": "Initiate cross-chain NFT purchase",
        "params": {
          "destinationChainId": "Target chain for NFT delivery",
          "listingId": "Listing ID"
        }
      },
      "listNFT(address,uint256,uint256,address,bool)": {
        "details": "List NFT for sale",
        "params": {
          "isCrossChain": "Whether this is a cross-chain listing",
          "nftContract": "NFT contract address",
          "paymentToken": "Payment token address (address(0) for native)",
          "price": "Listing price",
          "tokenId": "Token ID"
        }
      },
      "owner()": {
        "details": "Returns the address of the current owner."
      },
      "pause()": {
        "details": "Emergency pause"
      },
      "paused()": {
        "details": "Returns true if the contract is paused, and false otherwise."
      },
      "purchaseNFT(bytes32)": {
        "details": "Purchase NFT (same chain)",
        "params": {
          "listingId": "Listing ID"
        }
      },
      "renounceOwnership()": {
        "details": "Leaves the contract without owner. It will not be possible to call `onlyOwner` functions. Can only be called by the current owner. NOTE: Renouncing ownership will leave the contract without an owner, thereby disabling any functionality that is only available to the owner."
      },
      "setChainSupport(uint32,bool)": {
        "details": "Set chain support",
        "params": {
          "chainId": "Chain ID",
          "supported": "Support status"
        }
      },
      "setFeeRecipient(address)": {
        "details": "Set fee recipient",
        "params": {
          "_feeRecipient": "New fee recipient address"
        }
      },
      "setMarketplaceFee(uint256)": {
        "details": "Set marketplace fee",
        "params": {
          "_fee": "Fee in basis points"
        }
      },
      "setPaymentTokenSupport(address,bool)": {
        "details": "Set payment token support",
        "params": {
          "supported": "Support status",
          "token": "Token address"
        }
      },
      "transferOwnership(address)": {
        "details": "Transfers ownership of the contract to a new account (`newOwner`). Can only be called by the current owner."
      },
      "unpause()": {
        "details": "Unpause"
      }
    },
    "title": "CrossChainMarketplace",
    "version": 1
  },
  "userdoc": {
    "kind": "user",
    "methods": {},
    "version": 1
  },
  "storageLayout": {
    "storage": [
      {
        "astId": 7,
        "contract": "contracts/CrossChainMarketplace.sol:CrossChainMarketplace",
        "label": "_owner",
        "offset": 0,
        "slot": "0",
        "type": "t_address"
      },
      {
        "astId": 231,
        "contract": "contracts/CrossChainMarketplace.sol:CrossChainMarketplace",
        "label": "_status",
        "offset": 0,
        "slot": "1",
        "type": "t_uint256"
      },
      {
        "astId": 130,
        "contract": "contracts/CrossChainMarketplace.sol:CrossChainMarketplace",
        "label": "_paused",
        "offset": 0,
        "slot": "2",
        "type": "t_bool"
      },
      {
        "astId": 593,
        "contract": "contracts/CrossChainMarketplace.sol:CrossChainMarketplace",
        "label": "xcmBridge",
        "offset": 1,
        "slot": "2",
        "type": "t_contract(XCMBridge)2089"
      },
      {
        "astId": 598,
        "contract": "contracts/CrossChainMarketplace.sol:CrossChainMarketplace",
        "label": "listings",
        "offset": 0,
        "slot": "3",
        "type": "t_mapping(t_bytes32,t_struct(Listing)573_storage)"
      },
      {
        "astId": 603,
        "contract": "contracts/CrossChainMarketplace.sol:CrossChainMarketplace",
        "label": "crossChainPurchases",
        "offset": 0,
        "slot": "4",
        "type": "t_mapping(t_bytes32,t_struct(CrossChainPurchase)590_storage)"
      },
      {
        "astId": 607,
        "contract": "contracts/CrossChainMarketplace.sol:CrossChainMarketplace",
        "label": "supportedPaymentTokens",
        "offset": 0,
        "slot": "5",
        "type": "t_mapping(t_address,t_bool)"
      },
      {
        "astId": 611,
        "contract": "contracts/CrossChainMarketplace.sol:CrossChainMarketplace",
        "label": "supportedChains",
        "offset": 0,
        "slot": "6",
        "type": "t_mapping(t_uint32,t_bool)"
      },
      {
        "astId": 614,
        "contract": "contracts/CrossChainMarketplace.sol:CrossChainMarketplace",
        "label": "marketplaceFee",
        "offset": 0,
        "slot": "7",
        "type": "t_uint256"
      },
      {
        "astId": 619,
        "contract": "contracts/CrossChainMarketplace.sol:CrossChainMarketplace",
        "label": "feeRecipient",
        "offset": 0,
        "slot": "8",
        "type": "t_address"
      }
    ],
    "types": {
      "t_address": {
        "encoding": "inplace",
        "label": "address",
        "numberOfBytes": "20"
      },
      "t_bool": {
        "encoding": "inplace",
        "label": "bool",
        "numberOfBytes": "1"
      },
      "t_bytes32": {
        "encoding": "inplace",
        "label": "bytes32",
        "numberOfBytes": "32"
      },
      "t_contract(XCMBridge)2089": {
        "encoding": "inplace",
        "label": "contract XCMBridge",
        "numberOfBytes": "20"
      },
      "t_mapping(t_address,t_bool)": {
        "encoding": "mapping",
        "key": "t_address",
        "label": "mapping(address => bool)",
        "numberOfBytes": "32",
        "value": "t_bool"
      },
      "t_mapping(t_bytes32,t_struct(CrossChainPurchase)590_storage)": {
        "encoding": "mapping",
        "key": "t_bytes32",
        "label": "mapping(bytes32 => struct CrossChainMarketplace.CrossChainPurchase)",
        "numberOfBytes": "32",
        "value": "t_struct(CrossChainPurchase)590_storage"
      },
      "t_mapping(t_bytes32,t_struct(Listing)573_storage)": {
        "encoding": "mapping",
        "key": "t_bytes32",
        "label": "mapping(bytes32 => struct CrossChainMarketplace.Listing)",
        "numberOfBytes": "32",
        "value": "t_struct(Listing)573_storage"
      },
      "t_mapping(t_uint32,t_bool)": {
        "encoding": "mapping",
        "key": "t_uint32",
        "label": "mapping(uint32 => bool)",
        "numberOfBytes": "32",
        "value": "t_bool"
      },
      "t_struct(CrossChainPurchase)590_storage": {
        "encoding": "inplace",
        "label": "struct CrossChainMarketplace.CrossChainPurchase",
        "members": [
          {
            "astId": 575,
            "contract": "contracts/CrossChainMarketplace.sol:CrossChainMarketplace",
            "label": "listingId",
            "offset": 0,
            "slot": "0",
            "type": "t_bytes32"
          },
          {
            "astId": 577,
            "contract": "contracts/CrossChainMarketplace.sol:CrossChainMarketplace",
            "label": "buyer",
            "offset": 0,
            "slot": "1",
            "type": "t_address"
          },
          {
            "astId": 579,
            "contract": "contracts/CrossChainMarketplace.sol:CrossChainMarketplace",
            "label": "price",
            "offset": 0,
            "slot": "2",
            "type": "t_uint256"
          },
          {
            "astId": 581,
            "contract": "contracts/CrossChainMarketplace.sol:CrossChainMarketplace",
            "label": "paymentToken",
            "offset": 0,
            "slot": "3",
            "type": "t_address"
          },
          {
            "astId": 583,
            "contract": "contracts/CrossChainMarketplace.sol:CrossChainMarketplace",
            "label": "sourceChainId",
            "offset": 20,
            "slot": "3",
            "type": "t_uint32"
          },
          {
            "astId": 585,
            "contract": "contracts/CrossChainMarketplace.sol:CrossChainMarketplace",
            "label": "destinationChainId",
            "offset": 24,
            "slot": "3",
            "type": "t_uint32"
          },
          {
            "astId": 587,
            "contract": "contracts/CrossChainMarketplace.sol:CrossChainMarketplace",
            "label": "completed",
            "offset": 28,
            "slot": "3",
            "type": "t_bool"
          },
          {
            "astId": 589,
            "contract": "contracts/CrossChainMarketplace.sol:CrossChainMarketplace",
            "label": "timestamp",
            "offset": 0,
            "slot": "4",
            "type": "t_uint256"
          }
        ],
        "numberOfBytes": "160"
      },
      "t_struct(Listing)573_storage": {
        "encoding": "inplace",
        "label": "struct CrossChainMarketplace.Listing",
        "members": [
          {
            "astId": 556,
            "contract": "contracts/CrossChainMarketplace.sol:CrossChainMarketplace",
            "label": "seller",
            "offset": 0,
            "slot": "0",
            "type": "t_address"
          },
          {
            "astId": 558,
            "contract": "contracts/CrossChainMarketplace.sol:CrossChainMarketplace",
            "label": "nftContract",
            "offset": 0,
            "slot": "1",
            "type": "t_address"
          },
          {
            "astId": 560,
            "contract": "contracts/CrossChainMarketplace.sol:CrossChainMarketplace",
            "label": "tokenId",
            "offset": 0,
            "slot": "2",
            "type": "t_uint256"
          },
          {
            "astId": 562,
            "contract": "contracts/CrossChainMarketplace.sol:CrossChainMarketplace",
            "label": "price",
            "offset": 0,
            "slot": "3",
            "type": "t_uint256"
          },
          {
            "astId": 564,
            "contract": "contracts/CrossChainMarketplace.sol:CrossChainMarketplace",
            "label": "paymentToken",
            "offset": 0,
            "slot": "4",
            "type": "t_address"
          },
          {
            "astId": 566,
            "contract": "contracts/CrossChainMarketplace.sol:CrossChainMarketplace",
            "label": "sourceChainId",
            "offset": 20,
            "slot": "4",
            "type": "t_uint32"
          },
          {
            "astId": 568,
            "contract": "contracts/CrossChainMarketplace.sol:CrossChainMarketplace",
            "label": "isActive",
            "offset": 24,
            "slot": "4",
            "type": "t_bool"
          },
          {
            "astId": 570,
            "contract": "contracts/CrossChainMarketplace.sol:CrossChainMarketplace",
            "label": "isCrossChain",
            "offset": 25,
            "slot": "4",
            "type": "t_bool"
          },
          {
            "astId": 572,
            "contract": "contracts/CrossChainMarketplace.sol:CrossChainMarketplace",
            "label": "timestamp",
            "offset": 0,
            "slot": "5",
            "type": "t_uint256"
          }
        ],
        "numberOfBytes": "192"
      },
      "t_uint256": {
        "encoding": "inplace",
        "label": "uint256",
        "numberOfBytes": "32"
      },
      "t_uint32": {
        "encoding": "inplace",
        "label": "uint32",
        "numberOfBytes": "4"
      }
    }
  }
}