{
  "address": "0xfB5919787800552eBc98980fB84531c89dDaaA14",
  "abi": [
    {
      "inputs": [
        {
          "internalType": "string",
          "name": "name",
          "type": "string"
        },
        {
          "internalType": "string",
          "name": "symbol",
          "type": "string"
        },
        {
          "internalType": "address",
          "name": "_xcmBridge",
          "type": "address"
        }
      ],
      "stateMutability": "nonpayable",
      "type": "constructor"
    },
    {
      "anonymous": false,
      "inputs": [
        {
          "indexed": true,
          "internalType": "address",
          "name": "owner",
          "type": "address"
        },
        {
          "indexed": true,
          "internalType": "address",
          "name": "approved",
          "type": "address"
        },
        {
          "indexed": true,
          "internalType": "uint256",
          "name": "tokenId",
          "type": "uint256"
        }
      ],
      "name": "Approval",
      "type": "event"
    },
    {
      "anonymous": false,
      "inputs": [
        {
          "indexed": true,
          "internalType": "address",
          "name": "owner",
          "type": "address"
        },
        {
          "indexed": true,
          "internalType": "address",
          "name": "operator",
          "type": "address"
        },
        {
          "indexed": false,
          "internalType": "bool",
          "name": "approved",
          "type": "bool"
        }
      ],
      "name": "ApprovalForAll",
      "type": "event"
    },
    {
      "anonymous": false,
      "inputs": [
        {
          "indexed": false,
          "internalType": "uint256",
          "name": "_fromTokenId",
          "type": "uint256"
        },
        {
          "indexed": false,
          "internalType": "uint256",
          "name": "_toTokenId",
          "type": "uint256"
        }
      ],
      "name": "BatchMetadataUpdate",
      "type": "event"
    },
    {
      "anonymous": false,
      "inputs": [
        {
          "indexed": false,
          "internalType": "uint256",
          "name": "_tokenId",
          "type": "uint256"
        }
      ],
      "name": "MetadataUpdate",
      "type": "event"
    },
    {
      "anonymous": false,
      "inputs": [
        {
          "indexed": true,
          "internalType": "address",
          "name": "previousOwner",
          "type": "address"
        },
        {
          "indexed": true,
          "internalType": "address",
          "name": "newOwner",
          "type": "address"
        }
      ],
      "name": "OwnershipTransferred",
      "type": "event"
    },
    {
      "anonymous": false,
      "inputs": [
        {
          "indexed": true,
          "internalType": "address",
          "name": "from",
          "type": "address"
        },
        {
          "indexed": true,
          "internalType": "address",
          "name": "to",
          "type": "address"
        },
        {
          "indexed": true,
          "internalType": "uint256",
          "name": "tokenId",
          "type": "uint256"
        }
      ],
      "name": "Transfer",
      "type": "event"
    },
    {
      "anonymous": false,
      "inputs": [
        {
          "indexed": true,
          "internalType": "uint256",
          "name": "wrappedTokenId",
          "type": "uint256"
        },
        {
          "indexed": true,
          "internalType": "address",
          "name": "owner",
          "type": "address"
        },
        {
          "indexed": false,
          "internalType": "bytes32",
          "name": "lockMessageHash",
          "type": "bytes32"
        }
      ],
      "name": "WrappedNFTBurned",
      "type": "event"
    },
    {
      "anonymous": false,
      "inputs": [
        {
          "indexed": true,
          "internalType": "uint256",
          "name": "wrappedTokenId",
          "type": "uint256"
        },
        {
          "indexed": true,
          "internalType": "address",
          "name": "recipient",
          "type": "address"
        },
        {
          "indexed": false,
          "internalType": "address",
          "name": "originalContract",
          "type": "address"
        },
        {
          "indexed": false,
          "internalType": "uint256",
          "name": "originalTokenId",
          "type": "uint256"
        },
        {
          "indexed": false,
          "internalType": "uint32",
          "name": "sourceChainId",
          "type": "uint32"
        },
        {
          "indexed": false,
          "internalType": "bytes32",
          "name": "lockMessageHash",
          "type": "bytes32"
        }
      ],
      "name": "WrappedNFTMinted",
      "type": "event"
    },
    {
      "inputs": [
        {
          "internalType": "address",
          "name": "to",
          "type": "address"
        },
        {
          "internalType": "uint256",
          "name": "tokenId",
          "type": "uint256"
        }
      ],
      "name": "approve",
      "outputs": [],
      "stateMutability": "nonpayable",
      "type": "function"
    },
    {
      "inputs": [
        {
          "internalType": "address",
          "name": "owner",
          "type": "address"
        }
      ],
      "name": "balanceOf",
      "outputs": [
        {
          "internalType": "uint256",
          "name": "",
          "type": "uint256"
        }
      ],
      "stateMutability": "view",
      "type": "function"
    },
    {
      "inputs": [
        {
          "internalType": "uint256",
          "name": "wrappedTokenId",
          "type": "uint256"
        }
      ],
      "name": "burnWrappedNFT",
      "outputs": [
        {
          "internalType": "bytes32",
          "name": "",
          "type": "bytes32"
        }
      ],
      "stateMutability": "nonpayable",
      "type": "function"
    },
    {
      "inputs": [
        {
          "internalType": "uint256",
          "name": "tokenId",
          "type": "uint256"
        }
      ],
      "name": "getApproved",
      "outputs": [
        {
          "internalType": "address",
          "name": "",
          "type": "address"
        }
      ],
      "stateMutability": "view",
      "type": "function"
    },
    {
      "inputs": [
        {
          "internalType": "uint256",
          "name": "wrappedTokenId",
          "type": "uint256"
        }
      ],
      "name": "getOriginalNFTInfo",
      "outputs": [
        {
          "internalType": "address",
          "name": "originalContract",
          "type": "address"
        },
        {
          "internalType": "uint256",
          "name": "originalTokenId",
          "type": "uint256"
        },
        {
          "internalType": "uint32",
          "name": "sourceChainId",
          "type": "uint32"
        },
        {
          "internalType": "string",
          "name": "originalTokenURI",
          "type": "string"
        },
        {
          "internalType": "bytes32",
          "name": "lockMessageHash",
          "type": "bytes32"
        }
      ],
      "stateMutability": "view",
      "type": "function"
    },
    {
      "inputs": [
        {
          "internalType": "address",
          "name": "originalContract",
          "type": "address"
        },
        {
          "internalType": "uint256",
          "name": "originalTokenId",
          "type": "uint256"
        },
        {
          "internalType": "uint32",
          "name": "sourceChainId",
          "type": "uint32"
        }
      ],
      "name": "getWrappedTokenId",
      "outputs": [
        {
          "internalType": "uint256",
          "name": "",
          "type": "uint256"
        }
      ],
      "stateMutability": "view",
      "type": "function"
    },
    {
      "inputs": [
        {
          "internalType": "address",
          "name": "owner",
          "type": "address"
        },
        {
          "internalType": "address",
          "name": "operator",
          "type": "address"
        }
      ],
      "name": "isApprovedForAll",
      "outputs": [
        {
          "internalType": "bool",
          "name": "",
          "type": "bool"
        }
      ],
      "stateMutability": "view",
      "type": "function"
    },
    {
      "inputs": [
        {
          "internalType": "address",
          "name": "to",
          "type": "address"
        },
        {
          "internalType": "address",
          "name": "originalContract",
          "type": "address"
        },
        {
          "internalType": "uint256",
          "name": "originalTokenId",
          "type": "uint256"
        },
        {
          "internalType": "uint32",
          "name": "sourceChainId",
          "type": "uint32"
        },
        {
          "internalType": "string",
          "name": "tokenURI",
          "type": "string"
        },
        {
          "internalType": "bytes32",
          "name": "lockMessageHash",
          "type": "bytes32"
        }
      ],
      "name": "mintWrappedNFT",
      "outputs": [
        {
          "internalType": "uint256",
          "name": "",
          "type": "uint256"
        }
      ],
      "stateMutability": "nonpayable",
      "type": "function"
    },
    {
      "inputs": [],
      "name": "name",
      "outputs": [
        {
          "internalType": "string",
          "name": "",
          "type": "string"
        }
      ],
      "stateMutability": "view",
      "type": "function"
    },
    {
      "inputs": [
        {
          "internalType": "bytes32",
          "name": "",
          "type": "bytes32"
        }
      ],
      "name": "originalToWrapped",
      "outputs": [
        {
          "internalType": "uint256",
          "name": "",
          "type": "uint256"
        }
      ],
      "stateMutability": "view",
      "type": "function"
    },
    {
      "inputs": [],
      "name": "owner",
      "outputs": [
        {
          "internalType": "address",
          "name": "",
          "type": "address"
        }
      ],
      "stateMutability": "view",
      "type": "function"
    },
    {
      "inputs": [
        {
          "internalType": "uint256",
          "name": "tokenId",
          "type": "uint256"
        }
      ],
      "name": "ownerOf",
      "outputs": [
        {
          "internalType": "address",
          "name": "",
          "type": "address"
        }
      ],
      "stateMutability": "view",
      "type": "function"
    },
    {
      "inputs": [],
      "name": "renounceOwnership",
      "outputs": [],
      "stateMutability": "nonpayable",
      "type": "function"
    },
    {
      "inputs": [
        {
          "internalType": "address",
          "name": "from",
          "type": "address"
        },
        {
          "internalType": "address",
          "name": "to",
          "type": "address"
        },
        {
          "internalType": "uint256",
          "name": "tokenId",
          "type": "uint256"
        }
      ],
      "name": "safeTransferFrom",
      "outputs": [],
      "stateMutability": "nonpayable",
      "type": "function"
    },
    {
      "inputs": [
        {
          "internalType": "address",
          "name": "from",
          "type": "address"
        },
        {
          "internalType": "address",
          "name": "to",
          "type": "address"
        },
        {
          "internalType": "uint256",
          "name": "tokenId",
          "type": "uint256"
        },
        {
          "internalType": "bytes",
          "name": "data",
          "type": "bytes"
        }
      ],
      "name": "safeTransferFrom",
      "outputs": [],
      "stateMutability": "nonpayable",
      "type": "function"
    },
    {
      "inputs": [
        {
          "internalType": "address",
          "name": "operator",
          "type": "address"
        },
        {
          "internalType": "bool",
          "name": "approved",
          "type": "bool"
        }
      ],
      "name": "setApprovalForAll",
      "outputs": [],
      "stateMutability": "nonpayable",
      "type": "function"
    },
    {
      "inputs": [
        {
          "internalType": "address",
          "name": "_xcmBridge",
          "type": "address"
        }
      ],
      "name": "setXCMBridge",
      "outputs": [],
      "stateMutability": "nonpayable",
      "type": "function"
    },
    {
      "inputs": [
        {
          "internalType": "bytes4",
          "name": "interfaceId",
          "type": "bytes4"
        }
      ],
      "name": "supportsInterface",
      "outputs": [
        {
          "internalType": "bool",
          "name": "",
          "type": "bool"
        }
      ],
      "stateMutability": "view",
      "type": "function"
    },
    {
      "inputs": [],
      "name": "symbol",
      "outputs": [
        {
          "internalType": "string",
          "name": "",
          "type": "string"
        }
      ],
      "stateMutability": "view",
      "type": "function"
    },
    {
      "inputs": [
        {
          "internalType": "uint256",
          "name": "tokenId",
          "type": "uint256"
        }
      ],
      "name": "tokenURI",
      "outputs": [
        {
          "internalType": "string",
          "name": "",
          "type": "string"
        }
      ],
      "stateMutability": "view",
      "type": "function"
    },
    {
      "inputs": [
        {
          "internalType": "address",
          "name": "from",
          "type": "address"
        },
        {
          "internalType": "address",
          "name": "to",
          "type": "address"
        },
        {
          "internalType": "uint256",
          "name": "tokenId",
          "type": "uint256"
        }
      ],
      "name": "transferFrom",
      "outputs": [],
      "stateMutability": "nonpayable",
      "type": "function"
    },
    {
      "inputs": [
        {
          "internalType": "address",
          "name": "newOwner",
          "type": "address"
        }
      ],
      "name": "transferOwnership",
      "outputs": [],
      "stateMutability": "nonpayable",
      "type": "function"
    },
    {
      "inputs": [
        {
          "internalType": "uint256",
          "name": "",
          "type": "uint256"
        }
      ],
      "name": "wrappedNFTInfo",
      "outputs": [
        {
          "internalType": "address",
          "name": "originalContract",
          "type": "address"
        },
        {
          "internalType": "uint256",
          "name": "originalTokenId",
          "type": "uint256"
        },
        {
          "internalType": "uint32",
          "name": "sourceChainId",
          "type": "uint32"
        },
        {
          "internalType": "string",
          "name": "originalTokenURI",
          "type": "string"
        },
        {
          "internalType": "bytes32",
          "name": "lockMessageHash",
          "type": "bytes32"
        }
      ],
      "stateMutability": "view",
      "type": "function"
    },
    {
      "inputs": [
        {
          "internalType": "uint256",
          "name": "",
          "type": "uint256"
        }
      ],
      "name": "wrappedToOriginal",
      "outputs": [
        {
          "internalType": "bytes32",
          "name": "",
          "type": "bytes32"
        }
      ],
      "stateMutability": "view",
      "type": "function"
    },
    {
      "inputs": [],
      "name": "xcmBridge",
      "outputs": [
        {
          "internalType": "address",
          "name": "",
          "type": "address"
        }
      ],
      "stateMutability": "view",
      "type": "function"
    }
  ],
  "transactionHash": "0xa6c43c9a107d2d18290ade31ca8bea3b7c963f98f72e911306207d9b92de19d1",
  "args": [
    "Wrapped Moonbase Alpha NFT",
    "wMANFT",
    "0x73C506D96F474653f7bEbDDDf2b92AC95983e1E0"
  ],
  "numDeployments": 1,
  "solcInputHash": "0299e01088196994dfb089d2a22ef9cf",
  "bytecode": "0x608060405234620003965762002119803803806200001d816200039b565b9283398101606082820312620003965781516001600160401b0391908281116200039657816200004f918501620003c1565b6020918285015184811162000396576040916200006e918701620003c1565b9401516001600160a01b03948582169491859003620003965782519082821162000380576000948554926001958685811c9516801562000375575b8386101462000361578190601f958681116200030e575b508390868311600114620002aa5789926200029e575b5050600019600383901b1c191690861b1786555b81519384116200028a5784548581811c911680156200027f575b828210146200026b57908184869594931162000214575b5080928411600114620001ac57508592620001a0575b5050600019600383901b1c191690821b1781555b60075460018060a01b03199233848316176007557f8be0079c531659141344cd1fd0a4f28419497f9722a3daafe3b4186f6b6457e0604051963393169180a380600855600b556009541617600955611ce59081620004348239f35b01519050388062000131565b9190859450601f1984168588528388209388905b828210620001fa5750508411620001e0575b505050811b01815562000145565b015160001960f88460031b161c19169055388080620001d2565b8484015186558897909501949384019390810190620001c0565b90919293508587528187208480870160051c82019284881062000261575b9187968992969594930160051c01915b828110620002525750506200011b565b89815587965088910162000242565b9250819262000232565b634e487b7160e01b87526022600452602487fd5b90607f169062000104565b634e487b7160e01b86526041600452602486fd5b015190503880620000d6565b898052848a208994509190601f1984168b5b87828210620002f75750508411620002dd575b505050811b018655620000ea565b015160001960f88460031b161c19169055388080620002cf565b8385015186558c97909501949384019301620002bc565b9091508880528389208680850160051c82019286861062000357575b918a91869594930160051c01915b82811062000348575050620000c0565b8b81558594508a910162000338565b925081926200032a565b634e487b7160e01b88526022600452602488fd5b94607f1694620000a9565b634e487b7160e01b600052604160045260246000fd5b600080fd5b6040519190601f01601f191682016001600160401b038111838210176200038057604052565b919080601f84011215620003965782516001600160401b0381116200038057602090620003f7601f8201601f191683016200039b565b92818452828287010111620003965760005b8181106200041f57508260009394955001015290565b85810183015184820184015282016200040956fe608080604052600436101561001357600080fd5b60003560e01c90816301ffc9a7146112355750806306fdde0314611192578063081812fc14611174578063095ea7b314610ffa5780631b0b19de14610a045780631bf83a9d146109d85780631cf7f7f71461093b57806323b872dd146109175780632c3763291461078e57806342842e0e1461075b5780635141887d146106fd5780635d5520ae146106ba5780635e1138971461068e5780636352211e1461065e57806370a08231146105c7578063715018a61461057c5780637b663985146105535780638da5cb5b1461052a57806395d89b4114610465578063a22cb46514610397578063b88d4fde14610310578063c87b56dd146102ac578063d873625e1461023e578063e985e9c5146101e85763f2fde38b1461013257600080fd5b346101e35760203660031901126101e35761014b6112fa565b610153611522565b6001600160a01b0390811690811561018f57600780546001600160a01b03198116841790915516600080516020611c50833981519152600080a3005b60405162461bcd60e51b815260206004820152602660248201527f4f776e61626c653a206e6577206f776e657220697320746865207a65726f206160448201526564647265737360d01b6064820152608490fd5b600080fd5b346101e35760403660031901126101e3576102016112fa565b610209611310565b9060018060a01b03809116600052600560205260406000209116600052602052602060ff604060002054166040519015158152f35b346101e35760603660031901126101e3576102576112fa565b60443563ffffffff811681036101e3576102916102839160405192839160208301956024359187611acd565b03601f19810183528261135c565b519020600052600c6020526020604060002054604051908152f35b346101e35760203660031901126101e3576004356102d16102cc826118ab565b61157a565b600052600660205261030c6102e9604060002061147c565b60006040516102f781611341565b526040519182916020835260208301906112ba565b0390f35b346101e35760803660031901126101e3576103296112fa565b610331611310565b90606435906044356001600160401b0383116101e357366023840112156101e3576103959361036d61039094369060248160040135910161139a565b9261038061037b84336116e7565b61160e565b61038b8383836117af565b6119e8565b6116c3565b005b346101e35760403660031901126101e3576103b06112fa565b602435908115158092036101e3576001600160a01b03169033821461042457336000526005602052604060002082600052602052604060002060ff1981541660ff83161790556040519081527f17307eab39ab6107e8899845ad3d59bd9653f200f220920489ca2b5937696c3160203392a3005b60405162461bcd60e51b815260206004820152601960248201527822a9219b99189d1030b8383937bb32903a379031b0b63632b960391b6044820152606490fd5b346101e35760003660031901126101e3576040516000906001805461048981611442565b8084529082811690811561050257506001146104c4575b61030c836104b08187038261135c565b6040519182916020835260208301906112ba565b92508060005260209283600020916000925b8284106104ef575050508101909101906104b0816104a0565b80548585018701529285019281016104d6565b61030c95506104b093506020915091849260ff191682840152151560051b82010193506104a0565b346101e35760003660031901126101e3576007546040516001600160a01b039091168152602090f35b346101e35760003660031901126101e3576009546040516001600160a01b039091168152602090f35b346101e35760003660031901126101e357610595611522565b600780546001600160a01b031981169091556000906001600160a01b0316600080516020611c508339815191528280a3005b346101e35760203660031901126101e3576001600160a01b036105e86112fa565b1680156106075760005260036020526020604060002054604051908152f35b60405162461bcd60e51b815260206004820152602960248201527f4552433732313a2061646472657373207a65726f206973206e6f7420612076616044820152683634b21037bbb732b960b91b6064820152608490fd5b346101e35760203660031901126101e357602061067c6004356115c1565b6040516001600160a01b039091168152f35b346101e35760203660031901126101e357600435600052600c6020526020604060002054604051908152f35b346101e35760203660031901126101e3576106d36112fa565b6106db611522565b600980546001600160a01b0319166001600160a01b0392909216919091179055005b346101e35760203660031901126101e357600435600052600a602052604060002060018060a01b0381541661030c60018301549263ffffffff60028201541690600461074b6003830161147c565b91015491604051958695866113d1565b346101e35761039561039061076f3661140d565b906040519261077d84611341565b6000845261038061037b84336116e7565b346101e3576020806003193601126101e3576009546001600160a01b0390600435906107bd9083163314611a73565b6107c5611b19565b6107d66107d1826118ab565b611bba565b6107df816115c1565b9080600052600a84527ff1493fd7c26aa4f6455b1782cbf96f7daa416221c19d7987eb50c226f4d80f5c8460046040600020015494600d8252604060002054600052600c82526000604081205583600052600d825260006040812055600a8252600060046040822082815582600182015582600282015561086260038201611c03565b015561086d846115c1565b5083600061087a826115c1565b82825260048552604080832080546001600160a01b03199081169091559185168084526003875281842080548519019055848452600287529083208054909216909155600080516020611c708339815191528280a4600682526108e1604060002054611442565b6108fd575b604051948686521693a36001600855604051908152f35b83600052600682526109126040600020611c03565b6108e6565b346101e3576103956109283661140d565b9161093661037b84336116e7565b6117af565b346101e35760203660031901126101e35760043561095b6107d1826118ab565b600052600a60205260406000206040519061097582611326565b61030c60018060a01b03928383541681526001830154926020820193845263ffffffff80600283015416956040840196875260046109b56003850161147c565b9384606087015201549384608082015251169451955116604051958695866113d1565b346101e35760203660031901126101e357600435600052600d6020526020604060002054604051908152f35b346101e35760c03660031901126101e357610a1d6112fa565b610a25611310565b6064359063ffffffff821682036101e3576084356001600160401b0381116101e357366023820112156101e357610a6690369060248160040135910161139a565b92610a7c60018060a01b03600954163314611a73565b610a84611b19565b6040516020810190610a9e81610283604435878987611acd565b5190209081600052600c602052604060002054610fb857600b54936000198514610fa25760018501600b556040516001600160401b036020820190811190821117610e475760208101604052600081526001600160a01b03831615610f5e57610390610b7a91610b16610b10896118ab565b15611b6f565b610b22610b10896118ab565b6001600160a01b0385166000818152600360209081526040808320805460010190558b83526002909152812080546001600160a01b03191683179055899190600080516020611c708339815191528180a487856118c8565b610b83856118ab565b15610f0257600085815260066020526040902086516001600160401b038111610e4757610bb08254611442565b601f8111610ed0575b50806020601f8211600114610e6857600091610e5d575b508160011b916000199060031b1c19161790555b7ff8e1a15aba9398e019f0b49df1a4fde98ee17ae345cb5f6b5e2c27f5033e8ce76020604051878152a160405195610c1b87611326565b6001600160a01b0385811688526044356020808a0191825263ffffffff8581166040808d0191825260608d0196875260a43560808e015260008c8152600a9094529092208b5181546001600160a01b0319169516949094178455915160018401555160028301805463ffffffff1916919092161790559051805197909491906001600160401b038911610e47576020988896610cba6003850154611442565b601f8111610e09575b508a90601f8311600114610d7a57608080979484600080516020611c908339815191529a989563ffffffff9895600495600092610d6f575b50508160011b916000199060031b1c19161760038501555b015191015580600052600c8a528660406000205586600052600d8a526040600020556040519660018060a01b031687526044358988015216604086015260a435606086015260018060a01b031693a36001600855604051908152f35b015190503880610cfb565b90600385016000528b6000209160005b601f1985168110610def57506080979460018563ffffffff98956004958c95600080516020611c908339815191529e9c99601f19811610610dd6575b505050811b016003850155610d13565b015160001960f88460031b161c19169055388080610dc6565b8183015184558c9a50600190930192918d01918d01610d8a565b610e3790600386016000528c600020601f850160051c8101918e8610610e3d575b601f0160051c0190611b02565b8b610cc3565b9091508190610e2a565b634e487b7160e01b600052604160045260246000fd5b905088015189610bd0565b91508260005260206000206000925b8a601f1984168510610eb957506001935082601f19811610610ea0575b5050811b019055610be4565b8a015160001960f88460031b161c191690558980610e94565b810151825560209384019360019092019101610e77565b610efc90836000526020600020601f840160051c81019160208510610e3d57601f0160051c0190611b02565b88610bb9565b60405162461bcd60e51b815260206004820152602e60248201527f45524337323155524953746f726167653a2055524920736574206f66206e6f6e60448201526d32bc34b9ba32b73a103a37b5b2b760911b6064820152608490fd5b606460405162461bcd60e51b815260206004820152602060248201527f4552433732313a206d696e7420746f20746865207a65726f20616464726573736044820152fd5b634e487b7160e01b600052601160045260246000fd5b60405162461bcd60e51b815260206004820152601a60248201527957726170706564204e465420616c72656164792065786973747360301b6044820152606490fd5b346101e35760403660031901126101e3576110136112fa565b602435906001600160a01b03808061102a856115c1565b1692169180831461112557803314908115611100575b501561109557600083815260046020526040902080546001600160a01b0319168317905561106d836115c1565b167f8c5be1e5ebec7d5bd14f71427d1e84f3dd0314c0f7b2291e5b200ac8c7c3b925600080a4005b60405162461bcd60e51b815260206004820152603d60248201527f4552433732313a20617070726f76652063616c6c6572206973206e6f7420746f60448201527f6b656e206f776e6572206f7220617070726f76656420666f7220616c6c0000006064820152608490fd5b9050600052600560205260406000203360005260205260ff6040600020541684611040565b60405162461bcd60e51b815260206004820152602160248201527f4552433732313a20617070726f76616c20746f2063757272656e74206f776e656044820152603960f91b6064820152608490fd5b346101e35760203660031901126101e357602061067c6004356115e7565b346101e35760003660031901126101e3576040516000906000546111b581611442565b80835260019180831690811561050257506001146111dd5761030c836104b08187038261135c565b600080805260209450917f290decd9548b62a8d60345a988386fc84ba6bc95484008f6362f93160ef3e5635b828410611222575050508101909101906104b0816104a0565b8054858501870152928501928101611209565b346101e35760203660031901126101e3576004359063ffffffff60e01b82168092036101e357602091632483248360e11b8114908115611277575b5015158152f35b6380ac58cd60e01b8114915081156112a9575b8115611298575b5083611270565b6301ffc9a760e01b14905083611291565b635b5e139f60e01b8114915061128a565b919082519283825260005b8481106112e6575050826000602080949584010152601f8019910116010190565b6020818301810151848301820152016112c5565b600435906001600160a01b03821682036101e357565b602435906001600160a01b03821682036101e357565b60a081019081106001600160401b03821117610e4757604052565b602081019081106001600160401b03821117610e4757604052565b601f909101601f19168101906001600160401b03821190821017610e4757604052565b6001600160401b038111610e4757601f01601f191660200190565b9291926113a68261137f565b916113b4604051938461135c565b8294818452818301116101e3578281602093846000960137010152565b959493906080936114089363ffffffff9260018060a01b03168952602089015216604087015260a0606087015260a08601906112ba565b930152565b60609060031901126101e3576001600160a01b039060043582811681036101e3579160243590811681036101e3579060443590565b90600182811c92168015611472575b602083101461145c57565b634e487b7160e01b600052602260045260246000fd5b91607f1691611451565b906040519182600082549261149084611442565b9081845260019485811690816000146114ff57506001146114bc575b50506114ba9250038361135c565b565b9093915060005260209081600020936000915b8183106114e75750506114ba935082010138806114ac565b855488840185015294850194879450918301916114cf565b9150506114ba94506020925060ff191682840152151560051b82010138806114ac565b6007546001600160a01b0316330361153657565b606460405162461bcd60e51b815260206004820152602060248201527f4f776e61626c653a2063616c6c6572206973206e6f7420746865206f776e65726044820152fd5b1561158157565b60405162461bcd60e51b8152602060048201526018602482015277115490cdcc8c4e881a5b9d985b1a59081d1bdad95b88125160421b6044820152606490fd5b6000908152600260205260409020546001600160a01b03166115e481151561157a565b90565b6115f36102cc826118ab565b6000908152600460205260409020546001600160a01b031690565b1561161557565b60405162461bcd60e51b815260206004820152602d60248201527f4552433732313a2063616c6c6572206973206e6f7420746f6b656e206f776e6560448201526c1c881bdc88185c1c1c9bdd9959609a1b6064820152608490fd5b60809060208152603260208201527f4552433732313a207472616e7366657220746f206e6f6e20455243373231526560408201527131b2b4bb32b91034b6b83632b6b2b73a32b960711b60608201520190565b156116ca57565b60405162461bcd60e51b8152806116e360048201611670565b0390fd5b906001600160a01b0380806116fb846115c1565b1693169183831493841561172e575b508315611718575b50505090565b611724919293506115e7565b1614388080611712565b909350600052600560205260406000208260005260205260ff60406000205416923861170a565b1561175c57565b60405162461bcd60e51b815260206004820152602560248201527f4552433732313a207472616e736665722066726f6d20696e636f72726563742060448201526437bbb732b960d91b6064820152608490fd5b906117d7916117bd846115c1565b6001600160a01b0393918416928492909183168414611755565b1691821561185a57816117f4916117ed866115c1565b1614611755565b600080516020611c70833981519152600084815260046020526040812060018060a01b03199081815416905583825260036020526040822060001981540190558482526040822060018154019055858252600260205284604083209182541617905580a4565b60405162461bcd60e51b8152602060048201526024808201527f4552433732313a207472616e7366657220746f20746865207a65726f206164646044820152637265737360e01b6064820152608490fd5b6000908152600260205260409020546001600160a01b0316151590565b9192600092909190803b156119de57611916946040518092630a85bd0160e11b9485835233600484015287602484015260448301526080606483015281878160209a8b9660848301906112ba565b03926001600160a01b03165af184918161199a575b50611989575050503d600014611981573d6119458161137f565b90611953604051928361135c565b81528091833d92013e5b8051918261197e5760405162461bcd60e51b8152806116e360048201611670565b01fd5b50606061195d565b6001600160e01b0319161492509050565b9091508581813d83116119d7575b6119b2818361135c565b810103126119d357516001600160e01b0319811681036119d357903861192b565b8480fd5b503d6119a8565b5050915050600190565b9293600093909291803b15611a6857948491611a429660405180948193630a85bd0160e11b9788845233600485015260018060a01b0380921660248501526044840152608060648401528260209b8c9760848301906112ba565b0393165af184918161199a5750611989575050503d600014611981573d6119458161137f565b505050915050600190565b15611a7a57565b60405162461bcd60e51b815260206004820152602560248201527f4f6e6c792058434d4272696467652063616e2063616c6c20746869732066756e60448201526431ba34b7b760d91b6064820152608490fd5b60e09190911b6001600160e01b031916815260609190911b6001600160601b0319166004820152601881019190915260380190565b818110611b0d575050565b60008155600101611b02565b600260085414611b2a576002600855565b60405162461bcd60e51b815260206004820152601f60248201527f5265656e7472616e637947756172643a207265656e7472616e742063616c6c006044820152606490fd5b15611b7657565b60405162461bcd60e51b815260206004820152601c60248201527b115490cdcc8c4e881d1bdad95b88185b1c9958591e481b5a5b9d195960221b6044820152606490fd5b15611bc157565b60405162461bcd60e51b815260206004820152601a60248201527915dc985c1c19590813919508191bd95cc81b9bdd08195e1a5cdd60321b6044820152606490fd5b611c0d8154611442565b9081611c17575050565b81601f60009311600114611c29575055565b81835260208320611c4591601f0160051c810190600101611b02565b816020812091555556fe8be0079c531659141344cd1fd0a4f28419497f9722a3daafe3b4186f6b6457e0ddf252ad1be2c89b69c2b068fc378daa952ba7f163c4a11628f55a4df523b3ef5e1ea4e103578bf6208ce2251130c7dfd4bab3fc07c3afebcc330e2907e8cdcea264697066735822122052d6f73345f38bd04ff69b12de4261660fac0929aa98ebd3f3cf0883f2983ffc64736f6c63430008110033",
  "devdoc": {
    "details": "NFTNFT XCMBridgeNFT",
    "kind": "dev",
    "methods": {
      "approve(address,uint256)": {
        "details": "See {IERC721-approve}."
      },
      "balanceOf(address)": {
        "details": "See {IERC721-balanceOf}."
      },
      "burnWrappedNFT(uint256)": {
        "details": "NFTXCMBridge",
        "params": {
          "wrappedTokenId": "NFTTokenId"
        },
        "returns": {
          "_0": "lockMessageHash "
        }
      },
      "getApproved(uint256)": {
        "details": "See {IERC721-getApproved}."
      },
      "getOriginalNFTInfo(uint256)": {
        "details": "NFT"
      },
      "getWrappedTokenId(address,uint256,uint32)": {
        "details": "NFTNFT"
      },
      "isApprovedForAll(address,address)": {
        "details": "See {IERC721-isApprovedForAll}."
      },
      "mintWrappedNFT(address,address,uint256,uint32,string,bytes32)": {
        "details": "NFTXCMBridge",
        "params": {
          "lockMessageHash": "",
          "originalContract": "NFT",
          "originalTokenId": "NFTTokenId",
          "sourceChainId": "ID",
          "to": "",
          "tokenURI": "NFTURI"
        },
        "returns": {
          "_0": "wrappedTokenId NFTTokenId"
        }
      },
      "name()": {
        "details": "See {IERC721Metadata-name}."
      },
      "owner()": {
        "details": "Returns the address of the current owner."
      },
      "ownerOf(uint256)": {
        "details": "See {IERC721-ownerOf}."
      },
      "renounceOwnership()": {
        "details": "Leaves the contract without owner. It will not be possible to call `onlyOwner` functions. Can only be called by the current owner. NOTE: Renouncing ownership will leave the contract without an owner, thereby disabling any functionality that is only available to the owner."
      },
      "safeTransferFrom(address,address,uint256)": {
        "details": "See {IERC721-safeTransferFrom}."
      },
      "safeTransferFrom(address,address,uint256,bytes)": {
        "details": "See {IERC721-safeTransferFrom}."
      },
      "setApprovalForAll(address,bool)": {
        "details": "See {IERC721-setApprovalForAll}."
      },
      "setXCMBridge(address)": {
        "details": "XCMBridge"
      },
      "symbol()": {
        "details": "See {IERC721Metadata-symbol}."
      },
      "transferFrom(address,address,uint256)": {
        "details": "See {IERC721-transferFrom}."
      },
      "transferOwnership(address)": {
        "details": "Transfers ownership of the contract to a new account (`newOwner`). Can only be called by the current owner."
      }
    },
    "title": "WrappedNFT",
    "version": 1
  },
  "userdoc": {
    "kind": "user",
    "methods": {},
    "version": 1
  },
  "storageLayout": {
    "storage": [
      {
        "astId": 339,
        "contract": "contracts/WrappedNFT.sol:WrappedNFT",
        "label": "_name",
        "offset": 0,
        "slot": "0",
        "type": "t_string_storage"
      },
      {
        "astId": 341,
        "contract": "contracts/WrappedNFT.sol:WrappedNFT",
        "label": "_symbol",
        "offset": 0,
        "slot": "1",
        "type": "t_string_storage"
      },
      {
        "astId": 345,
        "contract": "contracts/WrappedNFT.sol:WrappedNFT",
        "label": "_owners",
        "offset": 0,
        "slot": "2",
        "type": "t_mapping(t_uint256,t_address)"
      },
      {
        "astId": 349,
        "contract": "contracts/WrappedNFT.sol:WrappedNFT",
        "label": "_balances",
        "offset": 0,
        "slot": "3",
        "type": "t_mapping(t_address,t_uint256)"
      },
      {
        "astId": 353,
        "contract": "contracts/WrappedNFT.sol:WrappedNFT",
        "label": "_tokenApprovals",
        "offset": 0,
        "slot": "4",
        "type": "t_mapping(t_uint256,t_address)"
      },
      {
        "astId": 359,
        "contract": "contracts/WrappedNFT.sol:WrappedNFT",
        "label": "_operatorApprovals",
        "offset": 0,
        "slot": "5",
        "type": "t_mapping(t_address,t_mapping(t_address,t_bool))"
      },
      {
        "astId": 1390,
        "contract": "contracts/WrappedNFT.sol:WrappedNFT",
        "label": "_tokenURIs",
        "offset": 0,
        "slot": "6",
        "type": "t_mapping(t_uint256,t_string_storage)"
      },
      {
        "astId": 7,
        "contract": "contracts/WrappedNFT.sol:WrappedNFT",
        "label": "_owner",
        "offset": 0,
        "slot": "7",
        "type": "t_address"
      },
      {
        "astId": 259,
        "contract": "contracts/WrappedNFT.sol:WrappedNFT",
        "label": "_status",
        "offset": 0,
        "slot": "8",
        "type": "t_uint256"
      },
      {
        "astId": 3170,
        "contract": "contracts/WrappedNFT.sol:WrappedNFT",
        "label": "xcmBridge",
        "offset": 0,
        "slot": "9",
        "type": "t_address"
      },
      {
        "astId": 3186,
        "contract": "contracts/WrappedNFT.sol:WrappedNFT",
        "label": "wrappedNFTInfo",
        "offset": 0,
        "slot": "10",
        "type": "t_mapping(t_uint256,t_struct(WrappedNFTInfo)3181_storage)"
      },
      {
        "astId": 3189,
        "contract": "contracts/WrappedNFT.sol:WrappedNFT",
        "label": "_nextTokenId",
        "offset": 0,
        "slot": "11",
        "type": "t_uint256"
      },
      {
        "astId": 3193,
        "contract": "contracts/WrappedNFT.sol:WrappedNFT",
        "label": "originalToWrapped",
        "offset": 0,
        "slot": "12",
        "type": "t_mapping(t_bytes32,t_uint256)"
      },
      {
        "astId": 3197,
        "contract": "contracts/WrappedNFT.sol:WrappedNFT",
        "label": "wrappedToOriginal",
        "offset": 0,
        "slot": "13",
        "type": "t_mapping(t_uint256,t_bytes32)"
      }
    ],
    "types": {
      "t_address": {
        "encoding": "inplace",
        "label": "address",
        "numberOfBytes": "20"
      },
      "t_bool": {
        "encoding": "inplace",
        "label": "bool",
        "numberOfBytes": "1"
      },
      "t_bytes32": {
        "encoding": "inplace",
        "label": "bytes32",
        "numberOfBytes": "32"
      },
      "t_mapping(t_address,t_bool)": {
        "encoding": "mapping",
        "key": "t_address",
        "label": "mapping(address => bool)",
        "numberOfBytes": "32",
        "value": "t_bool"
      },
      "t_mapping(t_address,t_mapping(t_address,t_bool))": {
        "encoding": "mapping",
        "key": "t_address",
        "label": "mapping(address => mapping(address => bool))",
        "numberOfBytes": "32",
        "value": "t_mapping(t_address,t_bool)"
      },
      "t_mapping(t_address,t_uint256)": {
        "encoding": "mapping",
        "key": "t_address",
        "label": "mapping(address => uint256)",
        "numberOfBytes": "32",
        "value": "t_uint256"
      },
      "t_mapping(t_bytes32,t_uint256)": {
        "encoding": "mapping",
        "key": "t_bytes32",
        "label": "mapping(bytes32 => uint256)",
        "numberOfBytes": "32",
        "value": "t_uint256"
      },
      "t_mapping(t_uint256,t_address)": {
        "encoding": "mapping",
        "key": "t_uint256",
        "label": "mapping(uint256 => address)",
        "numberOfBytes": "32",
        "value": "t_address"
      },
      "t_mapping(t_uint256,t_bytes32)": {
        "encoding": "mapping",
        "key": "t_uint256",
        "label": "mapping(uint256 => bytes32)",
        "numberOfBytes": "32",
        "value": "t_bytes32"
      },
      "t_mapping(t_uint256,t_string_storage)": {
        "encoding": "mapping",
        "key": "t_uint256",
        "label": "mapping(uint256 => string)",
        "numberOfBytes": "32",
        "value": "t_string_storage"
      },
      "t_mapping(t_uint256,t_struct(WrappedNFTInfo)3181_storage)": {
        "encoding": "mapping",
        "key": "t_uint256",
        "label": "mapping(uint256 => struct WrappedNFT.WrappedNFTInfo)",
        "numberOfBytes": "32",
        "value": "t_struct(WrappedNFTInfo)3181_storage"
      },
      "t_string_storage": {
        "encoding": "bytes",
        "label": "string",
        "numberOfBytes": "32"
      },
      "t_struct(WrappedNFTInfo)3181_storage": {
        "encoding": "inplace",
        "label": "struct WrappedNFT.WrappedNFTInfo",
        "members": [
          {
            "astId": 3172,
            "contract": "contracts/WrappedNFT.sol:WrappedNFT",
            "label": "originalContract",
            "offset": 0,
            "slot": "0",
            "type": "t_address"
          },
          {
            "astId": 3174,
            "contract": "contracts/WrappedNFT.sol:WrappedNFT",
            "label": "originalTokenId",
            "offset": 0,
            "slot": "1",
            "type": "t_uint256"
          },
          {
            "astId": 3176,
            "contract": "contracts/WrappedNFT.sol:WrappedNFT",
            "label": "sourceChainId",
            "offset": 0,
            "slot": "2",
            "type": "t_uint32"
          },
          {
            "astId": 3178,
            "contract": "contracts/WrappedNFT.sol:WrappedNFT",
            "label": "originalTokenURI",
            "offset": 0,
            "slot": "3",
            "type": "t_string_storage"
          },
          {
            "astId": 3180,
            "contract": "contracts/WrappedNFT.sol:WrappedNFT",
            "label": "lockMessageHash",
            "offset": 0,
            "slot": "4",
            "type": "t_bytes32"
          }
        ],
        "numberOfBytes": "160"
      },
      "t_uint256": {
        "encoding": "inplace",
        "label": "uint256",
        "numberOfBytes": "32"
      },
      "t_uint32": {
        "encoding": "inplace",
        "label": "uint32",
        "numberOfBytes": "4"
      }
    }
  }
}