{
  "address": "0x5B7EAC4fE498ac4b69BcBAC2EBE6dcB5a517153d",
  "abi": [
    {
      "inputs": [],
      "stateMutability": "payable",
      "type": "constructor"
    },
    {
      "anonymous": false,
      "inputs": [
        {
          "indexed": true,
          "internalType": "address",
          "name": "claimer",
          "type": "address"
        },
        {
          "indexed": false,
          "internalType": "uint256",
          "name": "tokenId",
          "type": "uint256"
        }
      ],
      "name": "AirdropClaimed",
      "type": "event"
    },
    {
      "anonymous": false,
      "inputs": [
        {
          "indexed": true,
          "internalType": "address",
          "name": "owner",
          "type": "address"
        },
        {
          "indexed": true,
          "internalType": "address",
          "name": "approved",
          "type": "address"
        },
        {
          "indexed": true,
          "internalType": "uint256",
          "name": "tokenId",
          "type": "uint256"
        }
      ],
      "name": "Approval",
      "type": "event"
    },
    {
      "anonymous": false,
      "inputs": [
        {
          "indexed": true,
          "internalType": "address",
          "name": "owner",
          "type": "address"
        },
        {
          "indexed": true,
          "internalType": "address",
          "name": "operator",
          "type": "address"
        },
        {
          "indexed": false,
          "internalType": "bool",
          "name": "approved",
          "type": "bool"
        }
      ],
      "name": "ApprovalForAll",
      "type": "event"
    },
    {
      "anonymous": false,
      "inputs": [
        {
          "indexed": false,
          "internalType": "uint256",
          "name": "_fromTokenId",
          "type": "uint256"
        },
        {
          "indexed": false,
          "internalType": "uint256",
          "name": "_toTokenId",
          "type": "uint256"
        }
      ],
      "name": "BatchMetadataUpdate",
      "type": "event"
    },
    {
      "anonymous": false,
      "inputs": [
        {
          "indexed": true,
          "internalType": "uint256",
          "name": "tokenId",
          "type": "uint256"
        },
        {
          "indexed": true,
          "internalType": "address",
          "name": "buyer",
          "type": "address"
        },
        {
          "indexed": true,
          "internalType": "address",
          "name": "seller",
          "type": "address"
        },
        {
          "indexed": false,
          "internalType": "uint256",
          "name": "amount",
          "type": "uint256"
        },
        {
          "indexed": false,
          "internalType": "uint256",
          "name": "pricePerFraction",
          "type": "uint256"
        }
      ],
      "name": "FractionBought",
      "type": "event"
    },
    {
      "anonymous": false,
      "inputs": [
        {
          "indexed": true,
          "internalType": "uint256",
          "name": "tokenId",
          "type": "uint256"
        },
        {
          "indexed": true,
          "internalType": "address",
          "name": "owner",
          "type": "address"
        },
        {
          "indexed": false,
          "internalType": "uint256",
          "name": "price",
          "type": "uint256"
        }
      ],
      "name": "FractionForSale",
      "type": "event"
    },
    {
      "anonymous": false,
      "inputs": [
        {
          "indexed": true,
          "internalType": "uint256",
          "name": "tokenId",
          "type": "uint256"
        },
        {
          "indexed": true,
          "internalType": "address",
          "name": "owner",
          "type": "address"
        }
      ],
      "name": "FractionSaleCancelled",
      "type": "event"
    },
    {
      "anonymous": false,
      "inputs": [
        {
          "indexed": true,
          "internalType": "uint256",
          "name": "tokenId",
          "type": "uint256"
        },
        {
          "indexed": true,
          "internalType": "address",
          "name": "holder",
          "type": "address"
        },
        {
          "indexed": false,
          "internalType": "uint256",
          "name": "amount",
          "type": "uint256"
        }
      ],
      "name": "LoyaltyRewardClaimed",
      "type": "event"
    },
    {
      "anonymous": false,
      "inputs": [
        {
          "indexed": false,
          "internalType": "bytes32",
          "name": "merkleRoot",
          "type": "bytes32"
        }
      ],
      "name": "MerkleRootSet",
      "type": "event"
    },
    {
      "anonymous": false,
      "inputs": [
        {
          "indexed": false,
          "internalType": "uint256",
          "name": "_tokenId",
          "type": "uint256"
        }
      ],
      "name": "MetadataUpdate",
      "type": "event"
    },
    {
      "anonymous": false,
      "inputs": [
        {
          "indexed": false,
          "internalType": "uint256",
          "name": "price",
          "type": "uint256"
        },
        {
          "indexed": false,
          "internalType": "uint256",
          "name": "totalOptions",
          "type": "uint256"
        }
      ],
      "name": "MysteryBoxCreated",
      "type": "event"
    },
    {
      "anonymous": false,
      "inputs": [
        {
          "indexed": true,
          "internalType": "address",
          "name": "buyer",
          "type": "address"
        },
        {
          "indexed": false,
          "internalType": "uint256",
          "name": "tokenId",
          "type": "uint256"
        },
        {
          "indexed": false,
          "internalType": "string",
          "name": "uri",
          "type": "string"
        }
      ],
      "name": "MysteryBoxPurchased",
      "type": "event"
    },
    {
      "anonymous": false,
      "inputs": [
        {
          "indexed": false,
          "internalType": "bool",
          "name": "isActive",
          "type": "bool"
        }
      ],
      "name": "MysteryBoxStatusChanged",
      "type": "event"
    },
    {
      "anonymous": false,
      "inputs": [
        {
          "indexed": true,
          "internalType": "uint256",
          "name": "tokenId",
          "type": "uint256"
        },
        {
          "indexed": false,
          "internalType": "uint256",
          "name": "totalFractions",
          "type": "uint256"
        }
      ],
      "name": "NFTFractionalized",
      "type": "event"
    },
    {
      "anonymous": false,
      "inputs": [
        {
          "indexed": true,
          "internalType": "uint256",
          "name": "tokenId",
          "type": "uint256"
        },
        {
          "indexed": true,
          "internalType": "address",
          "name": "owner",
          "type": "address"
        },
        {
          "indexed": false,
          "internalType": "bytes32",
          "name": "messageHash",
          "type": "bytes32"
        }
      ],
      "name": "NFTLockedForCrossChain",
      "type": "event"
    },
    {
      "anonymous": false,
      "inputs": [
        {
          "indexed": true,
          "internalType": "uint256",
          "name": "tokenId",
          "type": "uint256"
        },
        {
          "indexed": true,
          "internalType": "address",
          "name": "redeemer",
          "type": "address"
        }
      ],
      "name": "NFTRedeemed",
      "type": "event"
    },
    {
      "anonymous": false,
      "inputs": [
        {
          "indexed": true,
          "internalType": "uint256",
          "name": "tokenId",
          "type": "uint256"
        },
        {
          "indexed": true,
          "internalType": "address",
          "name": "owner",
          "type": "address"
        },
        {
          "indexed": false,
          "internalType": "bytes32",
          "name": "messageHash",
          "type": "bytes32"
        }
      ],
      "name": "NFTUnlockedFromCrossChain",
      "type": "event"
    },
    {
      "anonymous": false,
      "inputs": [
        {
          "indexed": true,
          "internalType": "uint256",
          "name": "tokenId",
          "type": "uint256"
        },
        {
          "indexed": true,
          "internalType": "address",
          "name": "seller",
          "type": "address"
        },
        {
          "indexed": true,
          "internalType": "address",
          "name": "buyer",
          "type": "address"
        },
        {
          "indexed": false,
          "internalType": "uint256",
          "name": "price",
          "type": "uint256"
        },
        {
          "indexed": false,
          "internalType": "address",
          "name": "royaltyReceiver",
          "type": "address"
        },
        {
          "indexed": false,
          "internalType": "uint256",
          "name": "royaltyAmount",
          "type": "uint256"
        }
      ],
      "name": "NftBought",
      "type": "event"
    },
    {
      "anonymous": false,
      "inputs": [
        {
          "indexed": true,
          "internalType": "uint256",
          "name": "tokenId",
          "type": "uint256"
        },
        {
          "indexed": true,
          "internalType": "address",
          "name": "owner",
          "type": "address"
        }
      ],
      "name": "NftDelisted",
      "type": "event"
    },
    {
      "anonymous": false,
      "inputs": [
        {
          "indexed": true,
          "internalType": "uint256",
          "name": "tokenId",
          "type": "uint256"
        },
        {
          "indexed": true,
          "internalType": "address",
          "name": "seller",
          "type": "address"
        },
        {
          "indexed": false,
          "internalType": "uint256",
          "name": "price",
          "type": "uint256"
        }
      ],
      "name": "NftListed",
      "type": "event"
    },
    {
      "anonymous": false,
      "inputs": [
        {
          "indexed": true,
          "internalType": "address",
          "name": "previousOwner",
          "type": "address"
        },
        {
          "indexed": true,
          "internalType": "address",
          "name": "newOwner",
          "type": "address"
        }
      ],
      "name": "OwnershipTransferred",
      "type": "event"
    },
    {
      "anonymous": false,
      "inputs": [
        {
          "indexed": true,
          "internalType": "address",
          "name": "from",
          "type": "address"
        },
        {
          "indexed": true,
          "internalType": "address",
          "name": "to",
          "type": "address"
        },
        {
          "indexed": true,
          "internalType": "uint256",
          "name": "tokenId",
          "type": "uint256"
        }
      ],
      "name": "Transfer",
      "type": "event"
    },
    {
      "anonymous": false,
      "inputs": [
        {
          "indexed": true,
          "internalType": "uint256",
          "name": "tokenId",
          "type": "uint256"
        },
        {
          "indexed": true,
          "internalType": "address",
          "name": "user",
          "type": "address"
        },
        {
          "indexed": false,
          "internalType": "uint64",
          "name": "expires",
          "type": "uint64"
        }
      ],
      "name": "UpdateUser",
      "type": "event"
    },
    {
      "inputs": [],
      "name": "LOYALTY_PERIOD",
      "outputs": [
        {
          "internalType": "uint256",
          "name": "",
          "type": "uint256"
        }
      ],
      "stateMutability": "view",
      "type": "function"
    },
    {
      "inputs": [],
      "name": "LOYALTY_REWARD",
      "outputs": [
        {
          "internalType": "uint256",
          "name": "",
          "type": "uint256"
        }
      ],
      "stateMutability": "view",
      "type": "function"
    },
    {
      "inputs": [
        {
          "internalType": "string",
          "name": "_uri",
          "type": "string"
        }
      ],
      "name": "addURIToMysteryBox",
      "outputs": [],
      "stateMutability": "nonpayable",
      "type": "function"
    },
    {
      "inputs": [
        {
          "internalType": "address",
          "name": "to",
          "type": "address"
        },
        {
          "internalType": "uint256",
          "name": "tokenId",
          "type": "uint256"
        }
      ],
      "name": "approve",
      "outputs": [],
      "stateMutability": "nonpayable",
      "type": "function"
    },
    {
      "inputs": [
        {
          "internalType": "address",
          "name": "owner",
          "type": "address"
        }
      ],
      "name": "balanceOf",
      "outputs": [
        {
          "internalType": "uint256",
          "name": "",
          "type": "uint256"
        }
      ],
      "stateMutability": "view",
      "type": "function"
    },
    {
      "inputs": [
        {
          "internalType": "address",
          "name": "to",
          "type": "address"
        },
        {
          "internalType": "string[]",
          "name": "uris",
          "type": "string[]"
        },
        {
          "internalType": "uint96",
          "name": "royaltyFeeNumerator",
          "type": "uint96"
        }
      ],
      "name": "batchMintItems",
      "outputs": [
        {
          "internalType": "uint256[]",
          "name": "",
          "type": "uint256[]"
        }
      ],
      "stateMutability": "nonpayable",
      "type": "function"
    },
    {
      "inputs": [
        {
          "internalType": "uint256",
          "name": "tokenId",
          "type": "uint256"
        },
        {
          "internalType": "address",
          "name": "seller",
          "type": "address"
        },
        {
          "internalType": "uint256",
          "name": "amount",
          "type": "uint256"
        }
      ],
      "name": "buyFraction",
      "outputs": [],
      "stateMutability": "payable",
      "type": "function"
    },
    {
      "inputs": [
        {
          "internalType": "uint256",
          "name": "tokenId",
          "type": "uint256"
        }
      ],
      "name": "buyItem",
      "outputs": [],
      "stateMutability": "payable",
      "type": "function"
    },
    {
      "inputs": [
        {
          "internalType": "uint256",
          "name": "tokenId",
          "type": "uint256"
        }
      ],
      "name": "cancelFractionSale",
      "outputs": [],
      "stateMutability": "nonpayable",
      "type": "function"
    },
    {
      "inputs": [
        {
          "internalType": "uint256",
          "name": "tokenId",
          "type": "uint256"
        }
      ],
      "name": "checkClaimLoyaltyReward",
      "outputs": [
        {
          "internalType": "bool",
          "name": "",
          "type": "bool"
        }
      ],
      "stateMutability": "view",
      "type": "function"
    },
    {
      "inputs": [
        {
          "internalType": "uint256",
          "name": "tokenId",
          "type": "uint256"
        },
        {
          "internalType": "bytes32[]",
          "name": "proof",
          "type": "bytes32[]"
        }
      ],
      "name": "claimAirdrop",
      "outputs": [],
      "stateMutability": "nonpayable",
      "type": "function"
    },
    {
      "inputs": [
        {
          "internalType": "uint256",
          "name": "tokenId",
          "type": "uint256"
        }
      ],
      "name": "claimLoyaltyReward",
      "outputs": [],
      "stateMutability": "nonpayable",
      "type": "function"
    },
    {
      "inputs": [
        {
          "internalType": "uint256",
          "name": "_price",
          "type": "uint256"
        },
        {
          "internalType": "string[]",
          "name": "_possibleURIs",
          "type": "string[]"
        },
        {
          "internalType": "uint96",
          "name": "_royaltyFee",
          "type": "uint96"
        }
      ],
      "name": "createMysteryBox",
      "outputs": [],
      "stateMutability": "nonpayable",
      "type": "function"
    },
    {
      "inputs": [
        {
          "internalType": "bytes32",
          "name": "",
          "type": "bytes32"
        }
      ],
      "name": "crossChainMessages",
      "outputs": [
        {
          "internalType": "uint256",
          "name": "",
          "type": "uint256"
        }
      ],
      "stateMutability": "view",
      "type": "function"
    },
    {
      "inputs": [
        {
          "internalType": "uint256",
          "name": "tokenId",
          "type": "uint256"
        }
      ],
      "name": "delistItem",
      "outputs": [],
      "stateMutability": "nonpayable",
      "type": "function"
    },
    {
      "inputs": [
        {
          "internalType": "uint256",
          "name": "",
          "type": "uint256"
        },
        {
          "internalType": "uint256",
          "name": "",
          "type": "uint256"
        }
      ],
      "name": "fractionOwners",
      "outputs": [
        {
          "internalType": "address",
          "name": "",
          "type": "address"
        }
      ],
      "stateMutability": "view",
      "type": "function"
    },
    {
      "inputs": [
        {
          "internalType": "uint256",
          "name": "tokenId",
          "type": "uint256"
        },
        {
          "internalType": "uint256",
          "name": "total",
          "type": "uint256"
        }
      ],
      "name": "fractionalizeNFT",
      "outputs": [],
      "stateMutability": "nonpayable",
      "type": "function"
    },
    {
      "inputs": [
        {
          "internalType": "uint256",
          "name": "",
          "type": "uint256"
        },
        {
          "internalType": "address",
          "name": "",
          "type": "address"
        }
      ],
      "name": "fractions",
      "outputs": [
        {
          "internalType": "uint256",
          "name": "amount",
          "type": "uint256"
        },
        {
          "internalType": "bool",
          "name": "isForSale",
          "type": "bool"
        },
        {
          "internalType": "uint256",
          "name": "price",
          "type": "uint256"
        }
      ],
      "stateMutability": "view",
      "type": "function"
    },
    {
      "inputs": [],
      "name": "getAllFractionsForSale",
      "outputs": [
        {
          "internalType": "uint256[]",
          "name": "",
          "type": "uint256[]"
        },
        {
          "internalType": "address[]",
          "name": "",
          "type": "address[]"
        },
        {
          "components": [
            {
              "internalType": "uint256",
              "name": "amount",
              "type": "uint256"
            },
            {
              "internalType": "bool",
              "name": "isForSale",
              "type": "bool"
            },
            {
              "internalType": "uint256",
              "name": "price",
              "type": "uint256"
            }
          ],
          "internalType": "struct YourCollectible.Fraction[]",
          "name": "",
          "type": "tuple[]"
        }
      ],
      "stateMutability": "view",
      "type": "function"
    },
    {
      "inputs": [],
      "name": "getAllListedItems",
      "outputs": [
        {
          "components": [
            {
              "internalType": "uint256",
              "name": "tokenId",
              "type": "uint256"
            },
            {
              "internalType": "uint256",
              "name": "price",
              "type": "uint256"
            },
            {
              "internalType": "address payable",
              "name": "owner",
              "type": "address"
            },
            {
              "internalType": "bool",
              "name": "isListed",
              "type": "bool"
            },
            {
              "internalType": "string",
              "name": "tokenUri",
              "type": "string"
            }
          ],
          "internalType": "struct YourCollectible.NFTItem[]",
          "name": "",
          "type": "tuple[]"
        }
      ],
      "stateMutability": "view",
      "type": "function"
    },
    {
      "inputs": [
        {
          "internalType": "uint256",
          "name": "tokenId",
          "type": "uint256"
        }
      ],
      "name": "getApproved",
      "outputs": [
        {
          "internalType": "address",
          "name": "",
          "type": "address"
        }
      ],
      "stateMutability": "view",
      "type": "function"
    },
    {
      "inputs": [
        {
          "internalType": "address",
          "name": "account",
          "type": "address"
        }
      ],
      "name": "getFractionsByAddress",
      "outputs": [
        {
          "internalType": "uint256[]",
          "name": "",
          "type": "uint256[]"
        },
        {
          "components": [
            {
              "internalType": "uint256",
              "name": "amount",
              "type": "uint256"
            },
            {
              "internalType": "bool",
              "name": "isForSale",
              "type": "bool"
            },
            {
              "internalType": "uint256",
              "name": "price",
              "type": "uint256"
            }
          ],
          "internalType": "struct YourCollectible.Fraction[]",
          "name": "",
          "type": "tuple[]"
        }
      ],
      "stateMutability": "view",
      "type": "function"
    },
    {
      "inputs": [
        {
          "internalType": "uint256",
          "name": "tokenId",
          "type": "uint256"
        }
      ],
      "name": "getLoyaltyInfo",
      "outputs": [
        {
          "internalType": "uint256",
          "name": "holdingStartTime",
          "type": "uint256"
        },
        {
          "internalType": "bool",
          "name": "rewardClaimed",
          "type": "bool"
        },
        {
          "internalType": "uint256",
          "name": "lastRewardTime",
          "type": "uint256"
        },
        {
          "internalType": "uint256",
          "name": "nextRewardTime",
          "type": "uint256"
        }
      ],
      "stateMutability": "view",
      "type": "function"
    },
    {
      "inputs": [
        {
          "internalType": "uint256",
          "name": "tokenId",
          "type": "uint256"
        }
      ],
      "name": "getMintedBy",
      "outputs": [
        {
          "internalType": "address",
          "name": "",
          "type": "address"
        }
      ],
      "stateMutability": "view",
      "type": "function"
    },
    {
      "inputs": [],
      "name": "getMysteryBoxInfo",
      "outputs": [
        {
          "internalType": "uint256",
          "name": "price",
          "type": "uint256"
        },
        {
          "internalType": "bool",
          "name": "isActive",
          "type": "bool"
        },
        {
          "internalType": "uint256",
          "name": "totalURIs",
          "type": "uint256"
        }
      ],
      "stateMutability": "view",
      "type": "function"
    },
    {
      "inputs": [
        {
          "internalType": "uint256",
          "name": "index",
          "type": "uint256"
        }
      ],
      "name": "getMysteryBoxURI",
      "outputs": [
        {
          "internalType": "string",
          "name": "",
          "type": "string"
        }
      ],
      "stateMutability": "view",
      "type": "function"
    },
    {
      "inputs": [
        {
          "internalType": "uint256",
          "name": "tokenId",
          "type": "uint256"
        }
      ],
      "name": "getNFTItemByTokenId",
      "outputs": [
        {
          "components": [
            {
              "internalType": "uint256",
              "name": "tokenId",
              "type": "uint256"
            },
            {
              "internalType": "uint256",
              "name": "price",
              "type": "uint256"
            },
            {
              "internalType": "address payable",
              "name": "owner",
              "type": "address"
            },
            {
              "internalType": "bool",
              "name": "isListed",
              "type": "bool"
            },
            {
              "internalType": "string",
              "name": "tokenUri",
              "type": "string"
            }
          ],
          "internalType": "struct YourCollectible.NFTItem",
          "name": "",
          "type": "tuple"
        }
      ],
      "stateMutability": "view",
      "type": "function"
    },
    {
      "inputs": [
        {
          "internalType": "bytes32",
          "name": "messageHash",
          "type": "bytes32"
        }
      ],
      "name": "getTokenIdByMessageHash",
      "outputs": [
        {
          "internalType": "uint256",
          "name": "",
          "type": "uint256"
        }
      ],
      "stateMutability": "view",
      "type": "function"
    },
    {
      "inputs": [
        {
          "internalType": "uint256",
          "name": "tokenId",
          "type": "uint256"
        }
      ],
      "name": "getTotalFractions",
      "outputs": [
        {
          "internalType": "uint256",
          "name": "",
          "type": "uint256"
        }
      ],
      "stateMutability": "view",
      "type": "function"
    },
    {
      "inputs": [
        {
          "internalType": "address",
          "name": "",
          "type": "address"
        }
      ],
      "name": "hasClaimed",
      "outputs": [
        {
          "internalType": "bool",
          "name": "",
          "type": "bool"
        }
      ],
      "stateMutability": "view",
      "type": "function"
    },
    {
      "inputs": [
        {
          "internalType": "address",
          "name": "owner",
          "type": "address"
        },
        {
          "internalType": "address",
          "name": "operator",
          "type": "address"
        }
      ],
      "name": "isApprovedForAll",
      "outputs": [
        {
          "internalType": "bool",
          "name": "",
          "type": "bool"
        }
      ],
      "stateMutability": "view",
      "type": "function"
    },
    {
      "inputs": [
        {
          "internalType": "uint256",
          "name": "",
          "type": "uint256"
        }
      ],
      "name": "isFractionalized",
      "outputs": [
        {
          "internalType": "bool",
          "name": "",
          "type": "bool"
        }
      ],
      "stateMutability": "view",
      "type": "function"
    },
    {
      "inputs": [
        {
          "internalType": "uint256",
          "name": "",
          "type": "uint256"
        }
      ],
      "name": "isLockedForCrossChain",
      "outputs": [
        {
          "internalType": "bool",
          "name": "",
          "type": "bool"
        }
      ],
      "stateMutability": "view",
      "type": "function"
    },
    {
      "inputs": [
        {
          "internalType": "uint256",
          "name": "tokenId",
          "type": "uint256"
        }
      ],
      "name": "isNFTFractionalized",
      "outputs": [
        {
          "internalType": "bool",
          "name": "",
          "type": "bool"
        }
      ],
      "stateMutability": "view",
      "type": "function"
    },
    {
      "inputs": [
        {
          "internalType": "uint256",
          "name": "tokenId",
          "type": "uint256"
        }
      ],
      "name": "isNFTLockedForCrossChain",
      "outputs": [
        {
          "internalType": "bool",
          "name": "",
          "type": "bool"
        }
      ],
      "stateMutability": "view",
      "type": "function"
    },
    {
      "inputs": [
        {
          "internalType": "address",
          "name": "account",
          "type": "address"
        },
        {
          "internalType": "uint256",
          "name": "tokenId",
          "type": "uint256"
        },
        {
          "internalType": "bytes32[]",
          "name": "proof",
          "type": "bytes32[]"
        }
      ],
      "name": "isWhitelisted",
      "outputs": [
        {
          "internalType": "bool",
          "name": "",
          "type": "bool"
        }
      ],
      "stateMutability": "view",
      "type": "function"
    },
    {
      "inputs": [
        {
          "internalType": "uint256",
          "name": "tokenId",
          "type": "uint256"
        },
        {
          "internalType": "uint256",
          "name": "price",
          "type": "uint256"
        }
      ],
      "name": "listItem",
      "outputs": [],
      "stateMutability": "payable",
      "type": "function"
    },
    {
      "inputs": [],
      "name": "listingFee",
      "outputs": [
        {
          "internalType": "uint256",
          "name": "",
          "type": "uint256"
        }
      ],
      "stateMutability": "view",
      "type": "function"
    },
    {
      "inputs": [
        {
          "internalType": "uint256",
          "name": "tokenId",
          "type": "uint256"
        },
        {
          "internalType": "bytes32",
          "name": "messageHash",
          "type": "bytes32"
        }
      ],
      "name": "lockForCrossChain",
      "outputs": [],
      "stateMutability": "nonpayable",
      "type": "function"
    },
    {
      "inputs": [],
      "name": "merkleRoot",
      "outputs": [
        {
          "internalType": "bytes32",
          "name": "",
          "type": "bytes32"
        }
      ],
      "stateMutability": "view",
      "type": "function"
    },
    {
      "inputs": [
        {
          "internalType": "address",
          "name": "to",
          "type": "address"
        },
        {
          "internalType": "string",
          "name": "uri",
          "type": "string"
        },
        {
          "internalType": "uint96",
          "name": "royaltyFeeNumerator",
          "type": "uint96"
        }
      ],
      "name": "mintItem",
      "outputs": [
        {
          "internalType": "uint256",
          "name": "",
          "type": "uint256"
        }
      ],
      "stateMutability": "nonpayable",
      "type": "function"
    },
    {
      "inputs": [
        {
          "internalType": "uint256",
          "name": "",
          "type": "uint256"
        }
      ],
      "name": "mintedBy",
      "outputs": [
        {
          "internalType": "address",
          "name": "",
          "type": "address"
        }
      ],
      "stateMutability": "view",
      "type": "function"
    },
    {
      "inputs": [],
      "name": "mysteryBox",
      "outputs": [
        {
          "internalType": "uint256",
          "name": "price",
          "type": "uint256"
        },
        {
          "internalType": "bool",
          "name": "isActive",
          "type": "bool"
        },
        {
          "internalType": "uint96",
          "name": "royaltyFee",
          "type": "uint96"
        },
        {
          "internalType": "uint256",
          "name": "uriCount",
          "type": "uint256"
        }
      ],
      "stateMutability": "view",
      "type": "function"
    },
    {
      "inputs": [
        {
          "internalType": "uint256",
          "name": "",
          "type": "uint256"
        }
      ],
      "name": "mysteryBoxURIs",
      "outputs": [
        {
          "internalType": "string",
          "name": "",
          "type": "string"
        }
      ],
      "stateMutability": "view",
      "type": "function"
    },
    {
      "inputs": [],
      "name": "name",
      "outputs": [
        {
          "internalType": "string",
          "name": "",
          "type": "string"
        }
      ],
      "stateMutability": "view",
      "type": "function"
    },
    {
      "inputs": [
        {
          "internalType": "uint256",
          "name": "",
          "type": "uint256"
        }
      ],
      "name": "nftItems",
      "outputs": [
        {
          "internalType": "uint256",
          "name": "tokenId",
          "type": "uint256"
        },
        {
          "internalType": "uint256",
          "name": "price",
          "type": "uint256"
        },
        {
          "internalType": "address payable",
          "name": "owner",
          "type": "address"
        },
        {
          "internalType": "bool",
          "name": "isListed",
          "type": "bool"
        },
        {
          "internalType": "string",
          "name": "tokenUri",
          "type": "string"
        }
      ],
      "stateMutability": "view",
      "type": "function"
    },
    {
      "inputs": [
        {
          "internalType": "uint256",
          "name": "",
          "type": "uint256"
        }
      ],
      "name": "nftLoyalty",
      "outputs": [
        {
          "internalType": "uint256",
          "name": "holdingStartTime",
          "type": "uint256"
        },
        {
          "internalType": "bool",
          "name": "rewardClaimed",
          "type": "bool"
        },
        {
          "internalType": "uint256",
          "name": "lastRewardTime",
          "type": "uint256"
        }
      ],
      "stateMutability": "view",
      "type": "function"
    },
    {
      "inputs": [],
      "name": "owner",
      "outputs": [
        {
          "internalType": "address",
          "name": "",
          "type": "address"
        }
      ],
      "stateMutability": "view",
      "type": "function"
    },
    {
      "inputs": [
        {
          "internalType": "uint256",
          "name": "tokenId",
          "type": "uint256"
        }
      ],
      "name": "ownerOf",
      "outputs": [
        {
          "internalType": "address",
          "name": "",
          "type": "address"
        }
      ],
      "stateMutability": "view",
      "type": "function"
    },
    {
      "inputs": [],
      "name": "purchaseMysteryBox",
      "outputs": [],
      "stateMutability": "payable",
      "type": "function"
    },
    {
      "inputs": [
        {
          "internalType": "uint256",
          "name": "tokenId",
          "type": "uint256"
        }
      ],
      "name": "redeemNFT",
      "outputs": [],
      "stateMutability": "nonpayable",
      "type": "function"
    },
    {
      "inputs": [],
      "name": "renounceOwnership",
      "outputs": [],
      "stateMutability": "nonpayable",
      "type": "function"
    },
    {
      "inputs": [
        {
          "internalType": "uint256",
          "name": "tokenId",
          "type": "uint256"
        },
        {
          "internalType": "uint256",
          "name": "salePrice",
          "type": "uint256"
        }
      ],
      "name": "royaltyInfo",
      "outputs": [
        {
          "internalType": "address",
          "name": "",
          "type": "address"
        },
        {
          "internalType": "uint256",
          "name": "",
          "type": "uint256"
        }
      ],
      "stateMutability": "view",
      "type": "function"
    },
    {
      "inputs": [
        {
          "internalType": "address",
          "name": "from",
          "type": "address"
        },
        {
          "internalType": "address",
          "name": "to",
          "type": "address"
        },
        {
          "internalType": "uint256",
          "name": "tokenId",
          "type": "uint256"
        }
      ],
      "name": "safeTransferFrom",
      "outputs": [],
      "stateMutability": "nonpayable",
      "type": "function"
    },
    {
      "inputs": [
        {
          "internalType": "address",
          "name": "from",
          "type": "address"
        },
        {
          "internalType": "address",
          "name": "to",
          "type": "address"
        },
        {
          "internalType": "uint256",
          "name": "tokenId",
          "type": "uint256"
        },
        {
          "internalType": "bytes",
          "name": "data",
          "type": "bytes"
        }
      ],
      "name": "safeTransferFrom",
      "outputs": [],
      "stateMutability": "nonpayable",
      "type": "function"
    },
    {
      "inputs": [
        {
          "internalType": "address",
          "name": "operator",
          "type": "address"
        },
        {
          "internalType": "bool",
          "name": "approved",
          "type": "bool"
        }
      ],
      "name": "setApprovalForAll",
      "outputs": [],
      "stateMutability": "nonpayable",
      "type": "function"
    },
    {
      "inputs": [
        {
          "internalType": "uint256",
          "name": "tokenId",
          "type": "uint256"
        },
        {
          "internalType": "uint256",
          "name": "price",
          "type": "uint256"
        }
      ],
      "name": "setFractionForSale",
      "outputs": [],
      "stateMutability": "nonpayable",
      "type": "function"
    },
    {
      "inputs": [
        {
          "internalType": "bytes32",
          "name": "_merkleRoot",
          "type": "bytes32"
        }
      ],
      "name": "setMerkleRoot",
      "outputs": [],
      "stateMutability": "nonpayable",
      "type": "function"
    },
    {
      "inputs": [
        {
          "internalType": "bool",
          "name": "_isActive",
          "type": "bool"
        }
      ],
      "name": "setMysteryBoxStatus",
      "outputs": [],
      "stateMutability": "nonpayable",
      "type": "function"
    },
    {
      "inputs": [
        {
          "internalType": "uint256",
          "name": "tokenId",
          "type": "uint256"
        },
        {
          "internalType": "address",
          "name": "user",
          "type": "address"
        },
        {
          "internalType": "uint64",
          "name": "expires",
          "type": "uint64"
        }
      ],
      "name": "setUser",
      "outputs": [],
      "stateMutability": "nonpayable",
      "type": "function"
    },
    {
      "inputs": [
        {
          "internalType": "address",
          "name": "_xcmBridge",
          "type": "address"
        }
      ],
      "name": "setXCMBridge",
      "outputs": [],
      "stateMutability": "nonpayable",
      "type": "function"
    },
    {
      "inputs": [
        {
          "internalType": "bytes4",
          "name": "interfaceId",
          "type": "bytes4"
        }
      ],
      "name": "supportsInterface",
      "outputs": [
        {
          "internalType": "bool",
          "name": "",
          "type": "bool"
        }
      ],
      "stateMutability": "view",
      "type": "function"
    },
    {
      "inputs": [],
      "name": "symbol",
      "outputs": [
        {
          "internalType": "string",
          "name": "",
          "type": "string"
        }
      ],
      "stateMutability": "view",
      "type": "function"
    },
    {
      "inputs": [
        {
          "internalType": "uint256",
          "name": "index",
          "type": "uint256"
        }
      ],
      "name": "tokenByIndex",
      "outputs": [
        {
          "internalType": "uint256",
          "name": "",
          "type": "uint256"
        }
      ],
      "stateMutability": "view",
      "type": "function"
    },
    {
      "inputs": [],
      "name": "tokenIdCounter",
      "outputs": [
        {
          "internalType": "uint256",
          "name": "_value",
          "type": "uint256"
        }
      ],
      "stateMutability": "view",
      "type": "function"
    },
    {
      "inputs": [
        {
          "internalType": "address",
          "name": "owner",
          "type": "address"
        },
        {
          "internalType": "uint256",
          "name": "index",
          "type": "uint256"
        }
      ],
      "name": "tokenOfOwnerByIndex",
      "outputs": [
        {
          "internalType": "uint256",
          "name": "",
          "type": "uint256"
        }
      ],
      "stateMutability": "view",
      "type": "function"
    },
    {
      "inputs": [
        {
          "internalType": "uint256",
          "name": "tokenId",
          "type": "uint256"
        }
      ],
      "name": "tokenURI",
      "outputs": [
        {
          "internalType": "string",
          "name": "",
          "type": "string"
        }
      ],
      "stateMutability": "view",
      "type": "function"
    },
    {
      "inputs": [
        {
          "internalType": "uint256",
          "name": "",
          "type": "uint256"
        }
      ],
      "name": "totalFractions",
      "outputs": [
        {
          "internalType": "uint256",
          "name": "",
          "type": "uint256"
        }
      ],
      "stateMutability": "view",
      "type": "function"
    },
    {
      "inputs": [],
      "name": "totalSupply",
      "outputs": [
        {
          "internalType": "uint256",
          "name": "",
          "type": "uint256"
        }
      ],
      "stateMutability": "view",
      "type": "function"
    },
    {
      "inputs": [
        {
          "internalType": "uint256",
          "name": "tokenId",
          "type": "uint256"
        },
        {
          "internalType": "address",
          "name": "to",
          "type": "address"
        },
        {
          "internalType": "uint256",
          "name": "amount",
          "type": "uint256"
        }
      ],
      "name": "transferFraction",
      "outputs": [],
      "stateMutability": "nonpayable",
      "type": "function"
    },
    {
      "inputs": [
        {
          "internalType": "address",
          "name": "from",
          "type": "address"
        },
        {
          "internalType": "address",
          "name": "to",
          "type": "address"
        },
        {
          "internalType": "uint256",
          "name": "tokenId",
          "type": "uint256"
        }
      ],
      "name": "transferFrom",
      "outputs": [],
      "stateMutability": "nonpayable",
      "type": "function"
    },
    {
      "inputs": [
        {
          "internalType": "address",
          "name": "newOwner",
          "type": "address"
        }
      ],
      "name": "transferOwnership",
      "outputs": [],
      "stateMutability": "nonpayable",
      "type": "function"
    },
    {
      "inputs": [
        {
          "internalType": "uint256",
          "name": "tokenId",
          "type": "uint256"
        },
        {
          "internalType": "bytes32",
          "name": "messageHash",
          "type": "bytes32"
        }
      ],
      "name": "unlockFromCrossChain",
      "outputs": [],
      "stateMutability": "nonpayable",
      "type": "function"
    },
    {
      "inputs": [
        {
          "internalType": "uint256",
          "name": "_newPrice",
          "type": "uint256"
        }
      ],
      "name": "updateMysteryBoxPrice",
      "outputs": [],
      "stateMutability": "nonpayable",
      "type": "function"
    },
    {
      "inputs": [
        {
          "internalType": "uint256",
          "name": "tokenId",
          "type": "uint256"
        }
      ],
      "name": "userExpires",
      "outputs": [
        {
          "internalType": "uint256",
          "name": "",
          "type": "uint256"
        }
      ],
      "stateMutability": "view",
      "type": "function"
    },
    {
      "inputs": [
        {
          "internalType": "uint256",
          "name": "tokenId",
          "type": "uint256"
        }
      ],
      "name": "userOf",
      "outputs": [
        {
          "internalType": "address",
          "name": "",
          "type": "address"
        }
      ],
      "stateMutability": "view",
      "type": "function"
    },
    {
      "inputs": [],
      "name": "withdrawFees",
      "outputs": [],
      "stateMutability": "payable",
      "type": "function"
    },
    {
      "inputs": [],
      "name": "xcmBridge",
      "outputs": [
        {
          "internalType": "address",
          "name": "",
          "type": "address"
        }
      ],
      "stateMutability": "view",
      "type": "function"
    }
  ],
  "transactionHash": "0x93d51be14ea6bfd39dc9030aaf7d13fad756a8cd459d223cff0eb440e3f856a4",
  "args": [],
  "numDeployments": 1,
  "solcInputHash": "08662356f4005679ef630d9cc64f15dd",
  "bytecode": "0x600f60808181526e596f7572436f6c6c65637469626c6560881b60a0526101006040908152600360c0818152622ca1a160e91b60e052939192916001600160401b03906020600254916001958684811c941680156200031f575b838510146200021c578190601f94858111620002c8575b5083908583116001146200025f5760009262000253575b505060001982871b1c191690861b176002555b86519283116200023d5783548581811c9116801562000232575b828210146200021c57828111620001d1575b508091831160011462000166575081929394956000926200015a575b505060001982841b1c191690831b1790555b600d8054336001600160a01b0319821681179092559251926001600160a01b03167f8be0079c531659141344cd1fd0a4f28419497f9722a3daafe3b4186f6b6457e0600080a3600e556658d15e17628000601055600060185561546590816200032b8239f35b015190503880620000e2565b90601f198316968460005282600020926000905b898210620001b95750508386979896959610620001a0575b505050811b019055620000f4565b015160001983861b60f8161c1916905538808062000192565b8088859682949686015181550195019301906200017a565b84600052816000208380860160051c82019284871062000212575b0160051c019086905b82811062000205575050620000c6565b60008155018690620001f5565b92508192620001ec565b634e487b7160e01b600052602260045260246000fd5b90607f1690620000b4565b634e487b7160e01b600052604160045260246000fd5b01519050388062000087565b90889350601f198316916002600052856000209260005b87828210620002b1575050841162000298575b505050811b016002556200009a565b015160001983891b60f8161c1916905538808062000289565b8385015186558c9790950194938401930162000276565b9091506002600052836000208580850160051c82019286861062000315575b918a91869594930160051c01915b8281106200030557505062000070565b600081558594508a9101620002f5565b92508192620002e7565b93607f16936200005956fe6080604081815260048036101561001557600080fd5b600092833560e01c90816301ffc9a71461344e575080630410b7091461343157806306fdde0314613362578063081812fc14613342578063095ea7b31461331d5780630bcae1ac14613170578063100616311461308c57806314e8e14a14611bb4578063150a533114613050578063165c33c61461302757806318160ddd146130085780631e006e0c14612f9357806323b872dd14612f735780632a55205a14612f435780632eb4a7ab14612f245780632f745c5914612e78578063302aa17c14612de25780633877248d14612d9357806338b05ec914612a6d5780633b1b1ad01461289c57806340dbc8a61461270957806342842e0e146126d5578063474b16681461267d578063476343ee146126255780634f6ccce71461259257806358dc2cdb146124025780635d5520ae1461237757806360dfd2b21461222857806362821396146121b45780636352211e146121945780636873c1cc1461124d5780636a1b7ecc146121755780636fba603f14611efd57806370a0823114611ed0578063715018a614611e845780637209f8cf14611d7257806373b2e80e14611d3457806373befb1a14611bdb578063766de47f14611bb457806376d2a03414611a7f5780637b66398514611a565780637cb6475914611a09578063883efa67146116ea5780638997bf84146116575780638da5cb5b1461162e5780638fbd6b1f146115cc5780638fc88c4814611596578063939d8b94146114f357806394e53ea71461137557806395d89b411461129357806398bdf6f5146112745780639a5e6d231461124d5780639c281e791461110c5780639c2b4daa14611003578063a22cb46514611035578063a66be8bb14610c7a578063b408fd6914611003578063b802016614610e9a578063b86b19de14610540578063b88d4fde14610e0c578063ba3b80da14610ca6578063c213ec4814610c7a578063c2e017e514610a56578063c2f1f14a14610a25578063c38b761c146109dd578063c87b56dd146109a9578063c95c6f3c14610989578063cf7dea3614610940578063d32060d81461091e57838163d9dcd9ba1461088a57508063e030565e1461077f578063e7fb74c71461056c578063e97b319014610540578063e985e9c5146104f0578063f2fde38b1461043c578063f82d85731461040a578063fa519f9d146103d95763faf7a8261461037f57600080fd5b346103d55760603660031901126103d557610398613550565b92604435906001600160401b0382116103d25750926103bf6103c99260209536910161357c565b9160243590615062565b90519015158152f35b80fd5b8280fd5b83823461040657602036600319011261040657356103f56139fb565b610400811515615017565b60155580f35b5080fd5b8284346103d257806003193601126103d2575060155461043860ff60165416926017549051938493846135ac565b0390f35b50346103d55760203660031901126103d557610456613550565b9061045f6139fb565b6001600160a01b0391821692831561049e575050600d80546001600160a01b031981168417909155166000805160206153f0833981519152600080a380f35b906020608492519162461bcd60e51b8352820152602660248201527f4f776e61626c653a206e6577206f776e657220697320746865207a65726f206160448201526564647265737360d01b6064820152fd5b50503461040657806003193601126104065760209161050d613550565b82610516613566565b9260018060a01b03809316815260078652209116600052825260ff81600020541690519015158152f35b50346103d55760203660031901126103d5578160209360ff92358152601b855220541690519015158152f35b509060203660031901126103d5578135610584614bb2565b8084526019602052818420600281019260018454926105a860ff8560a01c16614c08565b01948554340361074b5760ff60a01b19831685558692836105c934876143b3565b506001600160a01b03939092848416908516036106ba575b875489546001600160a01b0319821633179099559882905596978316966106208280808061060f8b34614c48565b8d5af161061a614201565b50614c55565b303b1561040657818761064992875193849283926323b872dd60e01b8452339030908501614b90565b038183305af180156106b057610698575b505082519687521660208601528401527f38ed573e5b0a36d956d10e556b61bd974cc43bfdf59bffec98b5af39e5ce73bb60603394a46001600e5580f35b6106a1906135fe565b6106ac57873861065a565b8780fd5b85513d84823e3d90fd5b945050506106c834856143b3565b9388858484826106dc575b505050906105e1565b839283928392165af16106ed614201565b50156106fc57883884816106d3565b608490602085519162461bcd60e51b8352820152602360248201527f5472616e7366657220746f20726f79616c7479207265636569766572206661696044820152621b195960ea1b6064820152fd5b6020606492519162461bcd60e51b8352820152600f60248201526e496e636f727265637420707269636560881b6044820152fd5b50346103d55760603660031901126103d55780359061079c613566565b604435936001600160401b03851692909190838603610886576107bf8533613d96565b156108315750838652601f602090815282872080546001600160e01b0319166001600160a01b0390931692831760a09790971b600160a01b600160e01b0316969096179095559051918252927f4e06b4e7000e659094299b3533b47b6aa8ad048e95e872d23d1f4ee55af89cfe91a380f35b608490602084519162461bcd60e51b8352820152602960248201527f455243343930373a2063616c6c6572206973206e6f74206f776e6572206e6f7260448201526808185c1c1c9bdd995960ba1b6064820152fd5b8680fd5b91905034610406576020366003190112610406576002903592838352601b6020526108ba60ff8285205416614e1c565b838352601d602052808320336000526020526000206001810180546108e160ff8216614eaf565b6108ed83541515614e64565b60ff19169055015533907f2c29c87ef16c6135cfda3989f658daaf049df7e9157c9b57c846e1ce3a1abf278380a380f35b5050346104065781600319360112610406576020905166038d7ea4c680008152f35b5050346104065761095036613791565b92908152601e6020528181209081548410156103d25750602092610973916139e3565b905491519160018060a01b039160031b1c168152f35b5091346103d25760203660031901126103d257506103c960209235614f75565b5091346103d25760203660031901126103d257506109ca6104389235615180565b905191829160208352602083019061352b565b505034610406578160031936011261040657608090601554906016549060175491815193845260ff81161515602085015260018060601b039060081c16908301526060820152f35b5091346103d25760203660031901126103d25750610a4560209235614f3d565b90516001600160a01b039091168152f35b50346103d557610a6536613791565b9092610a7084613b11565b336001600160a01b0390911603610c3c57838552602092601b845260ff8287205416610bfe578215610bab578486526019845260ff6002838820015460a01c16610b465750907f5569d27c5ca66b9bd7549eaaa0c687144265ac6c25a7615b036bac8fc82c76b49291848652601b8352808620600160ff19825416179055601c83528181872055610b2b8151610b0581613642565b83815287858201528783820152868852601d855282882033600052855282600020614d19565b848652601e8352610b3e33828820614d49565b51908152a280f35b83608492519162461bcd60e51b8352820152603b60248201527f4e46542069732063757272656e746c79206c69737465642c206d75737420646560448201527a6c697374206265666f7265206672616374696f6e616c697a696e6760281b6064820152fd5b83608492519162461bcd60e51b8352820152602960248201527f546f74616c206672616374696f6e73206d7573742062652067726561746572206044820152687468616e207a65726f60b81b6064820152fd5b83606492519162461bcd60e51b8352820152601a60248201527913919508185b1c9958591e48199c9858dd1a5bdb985b1a5e995960321b6044820152fd5b5162461bcd60e51b81526020818401526019602482015278139bdd081d1a19481bdddb995c881bd9881d1a1a5cc8139195603a1b6044820152606490fd5b50346103d55760203660031901126103d5578160209360ff923581526013855220541690519015158152f35b50346103d557610cb536613791565b6012549192916001600160a01b039081163303610dc957610cdd610cd8856141e4565b61513d565b8386526020926013845260ff868820541615610d955782875260148452848688205403610d5b5750907feb47d65891ede4301933ba6048a417fcc3c59c7272f62e895f55210d8907448592918487526013835285872060ff19815416905581875260148352600086882055610d5185613b11565b169451908152a380f35b855162461bcd60e51b81529081018490526014602482015273092dcecc2d8d2c840dacae6e6c2ceca40d0c2e6d60631b6044820152606490fd5b855162461bcd60e51b8152908101849052600e60248201526d139195081b9bdd081b1bd8dad95960921b6044820152606490fd5b845162461bcd60e51b8152602081850152601f60248201527f4f6e6c792058434d204272696467652063616e20756e6c6f636b204e465473006044820152606490fd5b83823461040657608036600319011261040657610e27613550565b90610e30613566565b6064359290604435906001600160401b038511610e965736602386011215610e9657610e6b610e8e94866024610e93983693013591016137c2565b92610e7e610e798433613d96565b613cbd565b610e89838383613e5e565b614325565b613d72565b80f35b8580fd5b50826003193601126103d557610eae614bb2565b6016549060ff821615610fc457610ec86015543414614ef6565b601754908115610f815750907f97abd941e57ce5fabac149412bd989faf94503d1cb37cf447b5d8898d50e6a9291610f01601854614add565b806018558451602081019142835244878301523360601b6060830152607482015260748152610f2f81613627565b5190200684526022602052610f5c610f488486206136b6565b9160081c6001600160601b0316823361445b565b610f7684519283928352856020840152339583019061352b565b0390a26001600e5580f35b606490602085519162461bcd60e51b8352820152602060248201527f4e6f204e46547320617661696c61626c6520696e206d79737465727920626f786044820152fd5b606490602084519162461bcd60e51b835282015260196024820152784d79737465727920626f78206973206e6f742061637469766560381b6044820152fd5b50346103d55760203660031901126103d557358252601a6020908152918190205490516001600160a01b039091168152f35b5090346103d557806003193601126103d55761104f613550565b9060243580151592838203611107576001600160a01b0316933385146110c8575061109b90338652600760205282862085600052602052826000209060ff801983541691151516179055565b519081527f17307eab39ab6107e8899845ad3d59bd9653f200f220920489ca2b5937696c3160203392a380f35b606490602084519162461bcd60e51b8352820152601960248201527822a9219b99189d1030b8383937bb32903a379031b0b63632b960391b6044820152fd5b600080fd5b5091346103d25760603660031901126103d257611127613550565b6024356001600160401b0381116103d5576111459036908601613932565b61114d613817565b9481511561120a5760328251116111b757506111698151614aab565b925b81518110156111a2578061118d8761118661119d9486614aec565b518661445b565b6111978287614aec565b52614add565b61116b565b8451602080825281906104389082018761382d565b608490602086519162461bcd60e51b8352820152602760248201527f4d6178696d756d203530204e4654732063616e206265206d696e74656420617460448201526620612074696d6560c81b6064820152fd5b606490602086519162461bcd60e51b8352820152601d60248201527f4d7573742070726f76696465206174206c65617374206f6e65205552490000006044820152fd5b50346103d55760203660031901126103d55760209282913581526014845220549051908152f35b505034610406578160031936011261040657602090600f549051908152f35b8284346103d257806003193601126103d2575080516000916003546112b7816135c4565b80845260019180831690811561134d57506001146112f3575b50506112e182610438940383613693565b5191829160208352602083019061352b565b6003600090815260209550917fc2575a0e9e593c00f959f8c92f12db2869c3395a3b0502d05e2516446f71f85b5b82841061133a575050508201909201916112e1826112d0565b8054868501880152928601928101611321565b61043896506112e193506020915091859260ff191682840152151560051b82010194506112d0565b5090346103d557611385366138f1565b82869493929452602094601b86526113a260ff8589205416614e1c565b828752601d86528387203360005286528360002080548381106114b757600182019081549360ff85166114605750906113de858b959493614c48565b8083551561144c575b505050829052601d855282862060018060a01b0385169081600052865283600020611413838254614c9d565b9055828752601d8652838720906000528552826000205414611433578480f35b61144493601e918652528320614d49565b388080808480f35b60029260ff191690550155853880806113e7565b875162461bcd60e51b81529081018a9052602b60248201527f43616e6e6f74207472616e73666572206672616374696f6e732074686174206160448201526a726520666f722073616c6560a81b6064820152608490fd5b855162461bcd60e51b81528084018990526016602482015275496e73756666696369656e74206672616374696f6e7360501b6044820152606490fd5b5091346103d25760203660031901126103d2578235611519611514826141e4565b614cd8565b81526020805261152a828220614def565b90815192806020840151151593015191821560001461157e5761012c85019081861161156b575060809550925b815194855260208501528301526060820152f35b634e487b7160e01b815260118752602490fd5b61012c83019081841161156b57506080955092611557565b50346103d55760203660031901126103d557358252601f60209081529181902054905160a09190911c6001600160401b03168152f35b50346103d55760203660031901126103d5573590811515809203611107577f2df160d881060c80321d66098fc31487890660418a73a9bd858ead9857a39ae6916020916116176139fb565b60ff196016541660ff83161760165551908152a180f35b505034610406578160031936011261040657600d5490516001600160a01b039091168152602090f35b50346103d55760203660031901126103d55761043892829135611678614caa565b50611685611514826141e4565b8152601960205220906116d3600382519361169f85613627565b805485526001810154602086015260028101546001600160a01b0381168587015260a01c60ff1615156060860152016136b6565b6080830152519182916020835260208301906138ad565b50906116f536613791565b916116fe614bb2565b601054908134036119d05761171283613b11565b6001600160a01b0392906117299084163314614b00565b611734851515614b44565b838752602092601b845260ff838920541661198d57878080938193600d54165af161175d614201565b50156119545761176d8330613b34565b303b15610e965780516323b872dd60e01b815286908181806117938830338d8501614b90565b038183305af1801561194a57611936575b50839052601982528086206002908101805460ff60a01b1916600160a01b179055818720600190810186905582882090910180546001600160a01b03191633179055946117f084615180565b90848852601984526003838920019180519160018060401b038311611923575061181a83546135c4565b601f81116118ea575b508490601f8311600114611879576000805160206153d083398151915295949392918a918361186e575b5050600019600383901b1c191690881b1790555b519384523393a3600e5580f35b01519050388061184d565b838a52858a20601f198416969594938a9390928c5b8981106118d35750836000805160206153d083398151915299106118ba575b505050811b019055611861565b015160001960f88460031b161c191690553880806118ad565b8282015184558c959093019291880191880161188e565b61191390848b52868b20601f850160051c810191888610611919575b601f0160051c0190614444565b38611823565b9091508190611906565b634e487b7160e01b8a5260419052602489fd5b61193f906135fe565b610e965785386117a4565b83513d84823e3d90fd5b5162461bcd60e51b8152808501919091526013602482015272119959481d1c985b9cd9995c8819985a5b1959606a1b6044820152606490fd5b825162461bcd60e51b8152808801859052601e60248201527f43616e6e6f74206c697374206672616374696f6e616c697a6564204e465400006044820152606490fd5b5162461bcd60e51b815260208186015260146024820152734d75737420706179206c697374696e672066656560601b6044820152606490fd5b50346103d55760203660031901126103d5577f42cbc405e4dbf1b691e85b9a34b08ecfcf7a9ad9078bf4d645ccfa1fac11c10b916020913590611a4a6139fb565b8160115551908152a180f35b50503461040657816003193601126104065760125490516001600160a01b039091168152602090f35b505034610406576020806003193601126103d557611a9b613550565b600f5484916001600160a01b031660015b82811115611b775750611ac7611ac187614aab565b96614d89565b92809160015b84811115611af9578751888152806104388989611aec848e018f61382d565b9184830390850152613861565b808352601d808852888420836000528852898960002054611b25575b5050611b2090614add565b611acd565b94611b6f9183611b3983611b209699614aec565b528686528952898520846000528952611b548a600020614def565b611b5e828a614aec565b52611b698189614aec565b50614add565b939089611b15565b808452601d85528584208260005285528560002054611b9f575b611b9a90614add565b611aac565b95611bac611b9a91614add565b969050611b91565b50346103d55760203660031901126103d5576020928291358152601c845220549051908152f35b50829034610406576020806003193601126103d5576001600160401b03908235828111611d3057611c0f90369085016137f9565b94611c186139fb565b6017548552602282528420928551928311611d1d5750611c3883546135c4565b601f8111611cef575b5080601f8311600114611c8b5750839482939492611c80575b50508160011b916000199060031b1c19161790555b611c7a601754614add565b60175580f35b015190508480611c5a565b90601f198316958486528286209286905b888210611cd757505083600195969710611cbe575b505050811b019055611c6f565b015160001960f88460031b161c19169055848080611cb1565b80600185968294968601518155019501930190611c9c565b611d1790848652828620601f850160051c81019184861061191957601f0160051c0190614444565b85611c41565b634e487b7160e01b855260419052602484fd5b8480fd5b5050346104065760203660031901126104065760209160ff9082906001600160a01b03611d5f613550565b1681526021855220541690519015158152f35b50346103d557611d8136613791565b601254919290916001600160a01b03919082163303611e4157611da6610cd8856141e4565b838652601360205260ff8587205416611e0957507f94ee556512ab445c3c191d6f33a25e0d5a37c113ea8c6391d5ecdb53d47c763b9160209184875260138352858720600160ff19825416179055818752601483528486882055610d5185613b11565b606490602086519162461bcd60e51b8352820152601260248201527113919508185b1c9958591e481b1bd8dad95960721b6044820152fd5b606490602086519162461bcd60e51b8352820152601d60248201527f4f6e6c792058434d204272696467652063616e206c6f636b204e4654730000006044820152fd5b83346103d257806003193601126103d257611e9d6139fb565b600d80546001600160a01b031981169091556000906001600160a01b03166000805160206153f08339815191528280a380f35b50503461040657602036600319011261040657602090611ef6611ef1613550565b613a53565b9051908152f35b50829034610406576060366003190112610406578035916001600160401b0390602490813583811161040657611f369036908601613932565b611f3e613817565b611f466139fb565b81511561213f57611f58871515615017565b825b825181101561209557611f6d8184614aec565b51908085526020602281528a86209083519089821161208357611f9083546135c4565b90601f9182811161204d575b5080918311600114611fdf57508190611fcf958992611fd4575b50508160011b916000199060031b1c1916179055614add565b611f5a565b015190508d80611fb6565b91929394601f198416858a52838a20938a905b8282106120355750509084611fcf9796959493921061201c575b505050600190811b019055614add565b015160001960f88460031b161c191690558c808061200c565b80600186978294978701518155019601940190611ff2565b61207490858b52828b20600585808801821c83019386891061207a575b01901c0190614444565b8e611f9c565b9350829361206a565b634e487b7160e01b885260418b528888fd5b509694909291959383519286519260808401928484109084111761212c575050968260606001937f80b33e5b301f2e6b22c78539ac65b4bd422a733c910c74bcee1656b5a7fa2571999a89528781528460208201528480831b03841689820152015284601555601654906101008360681b039060081b1690828060681b03191617176016556017555182519182526020820152a180f35b604190634e487b7160e01b600052526000fd5b875162461bcd60e51b8152602081880152601181860152704d7573742070726f76696465205552497360781b6044820152606490fd5b5050346104065781600319360112610406576020906010549051908152f35b5091346103d25760203660031901126103d25750610a4560209235613b11565b50346103d55760203660031901126103d5579181923581526019602052209061043882549160ff6001850154946121f26003600283015492016136b6565b9280519687968752602087015260018060a01b0382169086015260a01c161515606084015260a0608084015260a083019061352b565b5090346103d55760208060031936011261237357823591612247614bb2565b61225083614f75565b156123385766038d7ea4c68000938447106122f7578386528280528186206002429101558580808088335af1612284614201565b50156122bd5750907f9551b3421e4e80d78a909881c692bf94ee58d223e4b6629c7ae67971afa6297d91519384523393a36001600e5580f35b82606492519162461bcd60e51b8352820152601660248201527514995dd85c99081d1c985b9cd9995c8819985a5b195960521b6044820152fd5b82606492519162461bcd60e51b8352820152601d60248201527f496e73756666696369656e7420636f6e74726163742062616c616e63650000006044820152fd5b5162461bcd60e51b81529283015250601760248201527610d85b9b9bdd0818db185a5b481c995dd85c99081e595d604a1b6044820152606490fd5b8380fd5b50346103d55760203660031901126103d557612391613550565b6123996139fb565b6001600160a01b03169182156123c2575050601280546001600160a01b03191691909117905580f35b906020606492519162461bcd60e51b8352820152601a602482015279496e76616c69642058434d20427269646765206164647265737360301b6044820152fd5b5090346103d55760208060031936011261237357823592838552601b825261242f60ff8487205416614e1c565b838552601d82528285203360005282528260002054848652601c835283862054036125585750906019600292848652601b815282862060ff1990818154169055601c82528684812055601d825283872033600052825260018460002001908154169055848652601d81528286203360005281526000848482200155848652601d8152828620336000528152858360002055848652601e815282862080548782558061253f575b50506124ea85336124e582613b11565b613e5e565b84865252808420820180546001600160a01b03191633908117909155908420909101805460ff60a01b19169055907f7be71752f68c15e043adc3b4f121846c1f4860a79b7e8ecc932ddbc10e63b4938380a380f35b61255191885282882090810190614444565b38806124d5565b915162461bcd60e51b81529182015260166024820152754d757374206f776e20616c6c206672616374696f6e7360501b6044820152606490fd5b5082346103d25760203660031901126103d25750803590600a548210156125cd576020836125bf846139b2565b91905490519160031b1c8152f35b608490602084519162461bcd60e51b8352820152602c60248201527f455243373231456e756d657261626c653a20676c6f62616c20696e646578206f60448201526b7574206f6620626f756e647360a01b6064820152fd5b5050816003193601126104065761263a6139fb565b612642614bb2565b8180808060018060a01b03600d54164790828215612674575bf11561266a57506001600e5580f35b51903d90823e3d90fd5b506108fc61265b565b5082346103d257826003193601126103d2578290612699613566565b92358152601d602052209060018060a01b03166000526020528060002090610438825491600260ff6001860154169401549051938493846135ac565b50503461040657610e8e610e93916126ec3661375c565b919251926126f984613678565b868452610e7e610e798433613d96565b5090612714366138f1565b92909361271f614bb2565b8286526020601b815261273760ff8489205416614e1c565b838752601d81528287206001600160a01b0390961660008181529682529583902060018101805461276a60ff8216614eaf565b82549488861061285957509189917f1627aae413729dbd2259e0b88c1ff1b5ffeffb77cf4cb85bb9fdd3b48aef08ec9695949360028301926127c28b8554986127bd6127b6838c6143a0565b3414614ef6565b614c48565b80915515612849575b505050859052601d8152828820336000528152826000206127ed878254614c9d565b9055848852601d815282882033600052815285836000205414612831575b61281e88808080348c5af161061a614201565b82519586528501523393a46001600e5580f35b848852601e815261284433848a20614d49565b61280b565b60ff1916905555873880806127cb565b865162461bcd60e51b8152908101859052601f60248201527f496e73756666696369656e74206672616374696f6e7320666f722073616c65006044820152606490fd5b50829034610406578160031936011261040657600f549082918360015b82811115612a3357506128cb8461391b565b936128d887519586613693565b8085526128e7601f199161391b565b01855b818110612a1c5750506001905b8282111561295e5750505050825191602080840190808552835180925280868601968360051b870101940192955b8287106129325785850386f35b90919293828061294e600193603f198a820301865288516138ad565b9601920196019592919092612925565b81865260206019815260ff600290818a8a2001548160a091821c16612992575b505050509061298c90614add565b906128f7565b916003916129d8938c8c20928d51966129aa88613627565b845488526001850154908801528301546001600160a01b0381168e880152901c1615156060850152016136b6565b60808201526129e78287614aec565b526129f28186614aec565b5060018101809111612a095761298c88808061297e565b634e487b7160e01b865260118452602486fd5b602090612a27614caa565b828289010152016128ea565b808652601960205260ff6002888820015460a01c16612a5b575b612a5690614add565b6128b9565b9360018101809111612a095793612a4d565b505034610406578160031936011261040657600f54829160015b82811115612c955750612a9984614aab565b92612aa38561391b565b612aaf83519182613693565b858152612abb8661391b565b95612ad260209182840198601f1901368a37614d89565b948360015b82811115612b3f5750505080612af785519760608952606089019061382d565b928784038289015251928381520196925b828110612b22578688038588015286806104388a89613861565b83516001600160a01b031688529681019692810192600101612b08565b808694959652601b855260ff808886205416612b69575b50612b6090614add565b94939294612ad7565b95909499928a9993601e8b9a969a99949952838a208451908b829e8f93818454918281520193835281832092915b818310612c75575050505090612bae91038d613693565b895b8c51811015612c5d576001600160a01b03612bcb828f614aec565b5116888c528c8c601d8083528882208460005283528c60018a600020015416612c01575b50505050612bfc90614add565b612bb0565b91888492612bfc969f948e612c5397612c278f8e84612c218c8094614aec565b52614aec565b5282528352209160005252612c3e87600020614def565b612c48828b614aec565b52611b69818a614aec565b99908c8c38612bef565b509a50929894612b6091965097939796919690612b56565b83546001600160a01b031685529384019360019384019390920191612b97565b80849594526020601b815260ff90818488205416612cc1575b5050612cb990614add565b939293612a87565b90929195601e829695965282812095835190818885829a54948581520190855285852085945b87818710612d7457505050612cff9293500388613693565b815b8751811015612d60576001600160a01b03612d1c828a614aec565b5116898452601d855285842090600052845285600186600020015416612d4b575b612d4690614add565b612d01565b95612d58612d4691614add565b969050612d3d565b50949550959050612cb99192509038612cae565b82546001600160a01b0316845260019687019693019290910190612ce7565b50346103d55760603660031901126103d557612dad613550565b92602435906001600160401b0382116103d2575092612dd4611ef6926020953691016137f9565b612ddc613817565b9161445b565b50503461040657612df236613791565b91818452601b602052612e0a60ff8286205416614e1c565b818452601d6020528084203360005260205282600282600020612e2f81541515614e64565b612e3a831515614b44565b60018101600160ff198254161790550155519182527f3382ea94535bc0551c94db631d3eb5c3f8a2fddd798febf376dea509f070f32760203393a380f35b5091346103d257816003193601126103d257612e92613550565b60243590612e9f81613a53565b821015612ecd576001600160a01b031682526008602090815283832091835290815290829020548251908152f35b835162461bcd60e51b8152602081870152602b60248201527f455243373231456e756d657261626c653a206f776e657220696e646578206f7560448201526a74206f6620626f756e647360a81b6064820152608490fd5b5050346104065781600319360112610406576020906011549051908152f35b8284346103d25750612f5d612f5736613791565b906143b3565b82516001600160a01b0390921682526020820152f35b83346103d257610e93612f853661375c565b916124e5610e798433613d96565b5082903461040657602036600319011261040657803590601754821015612fcb57610438846109ca81868681526022602052206136b6565b606490602085519162461bcd60e51b8352820152601760248201527655524920696e646578206f7574206f6620626f756e647360481b6044820152fd5b505034610406578160031936011261040657602090600a549051908152f35b50346103d55760203660031901126103d55781610438936109ca923581526022602052206136b6565b50346103d55760203660031901126103d557918192358152602080522090610438825491600260ff6001860154169401549051938493846135ac565b50919034610406576020366003190112610406578235926130ab614bb2565b83835260196020528260018382206002810180546130ce60ff8260a01c16614c08565b6130e033858060a01b03831614614b00565b60ff60a01b191690550155303b156103d55790828461311593835194859283926323b872dd60e01b8452339030908501614b90565b038183305af19081156131675750613158575b509033907f60cc235e8ad06a974c643760abf54bf5e4f4f3a4c899d5142dda2caa5e5060d58380a36001600e5580f35b613161906135fe565b38613128565b513d84823e3d90fd5b50346103d557816003193601126103d5578035916024356001600160401b038111611d30576131a2903690840161357c565b6131ad939193614bb2565b601154156132e4573386526020936021855260ff84882054166132af57906131d6918633615062565b156132645750907f650e45f04ef8a0c267b2f78d983913f69ae3a353b2b32de5429307522be0ab559133855260218252808520600160ff1982541617905561322284336124e582613b11565b83855260198252808520600290810180546001600160a01b03191633908117909155828720909101805460ff60a01b19169055905193845292a26001600e5580f35b82608492519162461bcd60e51b8352820152602160248201527f4e6f7420696e2077686974656c697374206f7220696e76616c69642070726f6f6044820152603360f91b6064820152fd5b835162461bcd60e51b8152808401869052600f60248201526e105b1c9958591e4818db185a5b5959608a1b6044820152606490fd5b506020606492519162461bcd60e51b8352820152601360248201527213595c9adb19481c9bdbdd081b9bdd081cd95d606a1b6044820152fd5b505034610406573660031901126103d257610e93613339613550565b60243590613b34565b5091346103d25760203660031901126103d25750610a4560209235613c91565b50503461040657816003193601126104065780519082600254613384816135c4565b8085529060019081811690811561340957506001146133b0575b5050506112e182610438940383613693565b60028352602095507f405787fa12a823e0f2b7631cc41b3ba8828b3321ca811111fa75cd3aa3bb5ace5b8284106133f65750505082610438946112e1928201019461339e565b80548685018801529286019281016133da565b61043897506112e19450602092508693915060ff191682840152151560051b8201019461339e565b5050346104065781600319360112610406576020905161012c8152f35b925050346103d55760203660031901126103d5573563ffffffff60e01b81168091036103d55760209250632483248360e11b8114908115613491575b5015158152f35b63780e9d6360e01b8114915081156134ab575b503861348a565b6380ac58cd60e01b8114915081156134f7575b81156134cc575b50386134a4565b63152a902d60e11b8114915081156134e6575b50386134c5565b6301ffc9a760e01b149050386134df565b635b5e139f60e01b811491506134be565b60005b83811061351b5750506000910152565b818101518382015260200161350b565b9060209161354481518092818552858086019101613508565b601f01601f1916010190565b600435906001600160a01b038216820361110757565b602435906001600160a01b038216820361110757565b9181601f84011215611107578235916001600160401b038311611107576020808501948460051b01011161110757565b60409194939260608201958252151560208201520152565b90600182811c921680156135f4575b60208310146135de57565b634e487b7160e01b600052602260045260246000fd5b91607f16916135d3565b6001600160401b03811161361157604052565b634e487b7160e01b600052604160045260246000fd5b60a081019081106001600160401b0382111761361157604052565b606081019081106001600160401b0382111761361157604052565b604081019081106001600160401b0382111761361157604052565b602081019081106001600160401b0382111761361157604052565b601f909101601f19168101906001600160401b0382119082101761361157604052565b90604051918260008254926136ca846135c4565b90818452600194858116908160001461373957506001146136f6575b50506136f492500383613693565b565b9093915060005260209081600020936000915b8183106137215750506136f4935082010138806136e6565b85548884018501529485019487945091830191613709565b9150506136f494506020925060ff191682840152151560051b82010138806136e6565b6060906003190112611107576001600160a01b0390600435828116810361110757916024359081168103611107579060443590565b6040906003190112611107576004359060243590565b6001600160401b03811161361157601f01601f191660200190565b9291926137ce826137a7565b916137dc6040519384613693565b829481845281830111611107578281602093846000960137010152565b9080601f8301121561110757816020613814933591016137c2565b90565b604435906001600160601b038216820361110757565b90815180825260208080930193019160005b82811061384d575050505090565b83518552938101939281019260010161383f565b90815180825260208080930193019160005b828110613881575050505090565b835180518652808301511515868401526040908101519086015260609094019392810192600101613873565b9060a06080613814938051845260208101516020850152600180841b036040820151166040850152606081015115156060850152015191816080820152019061352b565b606090600319011261110757600435906024356001600160a01b0381168103611107579060443590565b6001600160401b0381116136115760051b60200190565b9080601f830112156111075781359061394a8261391b565b926139586040519485613693565b828452602092838086019160051b8301019280841161110757848301915b8483106139865750505050505090565b82356001600160401b0381116111075786916139a7848480948901016137f9565b815201920191613976565b600a548110156139cd57600a60005260206000200190600090565b634e487b7160e01b600052603260045260246000fd5b80548210156139cd5760005260206000200190600090565b600d546001600160a01b03163303613a0f57565b606460405162461bcd60e51b815260206004820152602060248201527f4f776e61626c653a2063616c6c6572206973206e6f7420746865206f776e65726044820152fd5b6001600160a01b03168015613a7357600052600560205260406000205490565b60405162461bcd60e51b815260206004820152602960248201527f4552433732313a2061646472657373207a65726f206973206e6f7420612076616044820152683634b21037bbb732b960b91b6064820152608490fd5b15613ad157565b60405162461bcd60e51b8152602060048201526018602482015277115490cdcc8c4e881a5b9d985b1a59081d1bdad95b88125160421b6044820152606490fd5b6000908152600460205260409020546001600160a01b0316613814811515613aca565b6001600160a01b038080613b4785613b11565b16921691808314613c4257803314908115613c1d575b5015613bb257600083815260066020526040902080546001600160a01b03191683179055613b8a83613b11565b167f8c5be1e5ebec7d5bd14f71427d1e84f3dd0314c0f7b2291e5b200ac8c7c3b925600080a4565b60405162461bcd60e51b815260206004820152603d60248201527f4552433732313a20617070726f76652063616c6c6572206973206e6f7420746f60448201527f6b656e206f776e6572206f7220617070726f76656420666f7220616c6c0000006064820152608490fd5b9050600052600760205260406000203360005260205260ff6040600020541638613b5d565b60405162461bcd60e51b815260206004820152602160248201527f4552433732313a20617070726f76616c20746f2063757272656e74206f776e656044820152603960f91b6064820152608490fd5b613ca2613c9d826141e4565b613aca565b6000908152600660205260409020546001600160a01b031690565b15613cc457565b60405162461bcd60e51b815260206004820152602d60248201527f4552433732313a2063616c6c6572206973206e6f7420746f6b656e206f776e6560448201526c1c881bdc88185c1c1c9bdd9959609a1b6064820152608490fd5b60809060208152603260208201527f4552433732313a207472616e7366657220746f206e6f6e20455243373231526560408201527131b2b4bb32b91034b6b83632b6b2b73a32b960711b60608201520190565b15613d7957565b60405162461bcd60e51b815280613d9260048201613d1f565b0390fd5b906001600160a01b038080613daa84613b11565b16931691838314938415613ddd575b508315613dc7575b50505090565b613dd391929350613c91565b1614388080613dc1565b909350600052600760205260406000208260005260205260ff604060002054169238613db9565b15613e0b57565b60405162461bcd60e51b815260206004820152602560248201527f4552433732313a207472616e736665722066726f6d20696e636f72726563742060448201526437bbb732b960d91b6064820152608490fd5b613e8291613e6b84613b11565b6001600160a01b0393848416939185168414613e04565b8382169384156141935783158481159384809561418b575b8061417d575b61410a575b821561404f575050600a549287600052600b60205283604060002055600160401b84101561361157613f6794613f0189613ee68760018b9901600a556139b2565b90919082549060031b600019811b9283911b16911916179055565b84880361401c575b5080614014575b15613ffb5750613f48604051613f2581613642565b428152600060208201526000604082015287600052602080526040600020614d19565b8482141580613fe2575b613fcd575b613f6086613b11565b1614613e04565b600080516020615410833981519152600084815260066020526040812060018060a01b03199081815416905583825260056020526040822060001981540190558482526040822060018154019055858252600460205284604083209182541617905580a4565b85600052601f60205260006040812055613f57565b5085600052601f60205280604060002054161515613f52565b15613f485761400f604051613f2581613642565b613f48565b506001613f10565b61402590613a53565b6040600089815260086020528181208382526020528a828220558a81526009602052205538613f09565b8782959203614063575b50613f6794613f01565b61406e919450613a53565b6000198101939084116140f457613f679486946000908a825260209060098252604091828420548281036140bd575b508c84528383812055888452600881528284209184525281205594614059565b898552600882528385208386528252838520548a86526008835284862082875283528085872055855260098252838520553861409d565b634e487b7160e01b600052601160045260246000fd5b905087600052601360205260ff60406000205416614129578590613ea5565b60405162461bcd60e51b815260206004820152602660248201527f4e4654206973206c6f636b656420666f722063726f73732d636861696e20747260448201526530b739b332b960d11b6064820152608490fd5b508360125416331415613ea0565b506001613e9a565b60405162461bcd60e51b8152602060048201526024808201527f4552433732313a207472616e7366657220746f20746865207a65726f206164646044820152637265737360e01b6064820152608490fd5b6000908152600460205260409020546001600160a01b0316151590565b3d1561422c573d90614212826137a7565b916142206040519384613693565b82523d6000602084013e565b606090565b9091600091803b1561431c5761427c6020918493604051948580948193630a85bd0160e11b9a8b8452336004850152846024850152604484015260806064840152608483019061352b565b03926001600160a01b03165af1908290826142d4575b50506142c6576142a0614201565b805190816142c15760405162461bcd60e51b815280613d9260048201613d1f565b602001fd5b6001600160e01b0319161490565b909192506020813d8211614314575b816142f060209383613693565b810103126104065751906001600160e01b0319821682036103d25750903880614292565b3d91506142e3565b50505050600190565b91926000929190813b156143965760209161437b9185604051958680958194630a85bd0160e11b9b8c845233600485015260018060a01b038095166024850152604484015260806064840152608483019061352b565b0393165af1908290826142d45750506142c6576142a0614201565b5050505050600190565b818102929181159184041417156140f457565b91909160005260016020526040600020604051906143d08261365d565b546001600160a01b0380821680845260a09290921c602084015291939015614417575b60208401516127109161440f916001600160601b0316906143a0565b049251169190565b925061271061440f60405161442b8161365d565b600054848116825260a01c6020820152949150506143f3565b81811061444f575050565b60008155600101614444565b929190926001600f54019182600f5560405161447681613678565b600081526001600160a01b038316156149c85761449b614495856141e4565b15614a0c565b600a5484600052600b60205280604060002055600160401b8110156136115761459d916144d586613ee6846001610e8e9601600a556139b2565b6144de85613a53565b60018060a01b038616600052600860205260406000208160005260205286604060002055866000526009602052604060002055614520604051613f2581613642565b601f6020526040600020546001600160a01b03166149bc575b614545614495876141e4565b6001600160a01b0385166000818152600560209081526040808320805460010190558983526004909152812080546001600160a01b031916831790558791906000805160206154108339815191528180a48585614231565b6145a6836141e4565b15614960576000838152600c6020526040902085516001600160401b038111613611576145d382546135c4565b601f811161492e575b50806020601f82116001146148c8576000916148bd575b508160011b916000199060031b1c19161790555b7ff8e1a15aba9398e019f0b49df1a4fde98ee17ae345cb5f6b5e2c27f5033e8ce76020604051858152a16001600160601b0316906127108211614865576040516003926146538261365d565b6001600160a01b038381168084526020808501938452600088815260018252604080822096519551959094166001600160a01b031960a09690961b861617909555601a815291909320805490921690921790556146ea906146b2614a57565b60405197816146ca8a93518092868087019101613508565b82016146de82518093868085019101613508565b01038088520186613693565b604051906146f782613627565b838252600060208084018281526001600160a01b03938416604080870191825260608701858152608088019b8c52898652601990945290932094518555516001850155905160028401805492516001600160a81b0319909316919093161790151560a01b60ff60a01b1617905593518051909491909101906001600160401b0381116136115761478782546135c4565b601f8111614833575b50602094601f82116001146147cf579481929394956000926147c4575b50508160011b916000199060031b1c191617905590565b0151905038806147ad565b601f198216958360005260206000209160005b88811061481b57508360019596979810614802575b505050811b01905590565b015160001960f88460031b161c191690553880806147f7565b919260206001819286850151815501940192016147e2565b61485f90836000526020600020601f840160051c8101916020851061191957601f0160051c0190614444565b38614790565b60405162461bcd60e51b815260206004820152602a60248201527f455243323938313a20726f79616c7479206665652077696c6c206578636565646044820152692073616c65507269636560b01b6064820152608490fd5b9050870151386145f3565b6000848152602081209250601f198416905b8a82821061491657505090836001949392106148fd575b5050811b019055614607565b89015160001960f88460031b161c1916905538806148f1565b600184956020939584930151815501940192016148da565b61495a90836000526020600020601f840160051c8101916020851061191957601f0160051c0190614444565b386145dc565b60405162461bcd60e51b815260206004820152602e60248201527f45524337323155524953746f726167653a2055524920736574206f66206e6f6e60448201526d32bc34b9ba32b73a103a37b5b2b760911b6064820152608490fd5b60006040812055614539565b606460405162461bcd60e51b815260206004820152602060248201527f4552433732313a206d696e7420746f20746865207a65726f20616464726573736044820152fd5b15614a1357565b60405162461bcd60e51b815260206004820152601c60248201527b115490cdcc8c4e881d1bdad95b88185b1c9958591e481b5a5b9d195960221b6044820152606490fd5b60405190614a6482613642565b603282527170696e6174612e636c6f75642f697066732f60701b6040837f68747470733a2f2f617175612d66616d6f75732d6b6f616c612d3337302e6d7960208201520152565b90614ab58261391b565b614ac26040519182613693565b8281528092614ad3601f199161391b565b0190602036910137565b60001981146140f45760010190565b80518210156139cd5760209160051b010190565b15614b0757565b60405162461bcd60e51b81526020600482015260156024820152742cb7ba9030b932903737ba103a34329037bbb732b960591b6044820152606490fd5b15614b4b57565b60405162461bcd60e51b815260206004820152601f60248201527f5072696365206d7573742062652067726561746572207468616e207a65726f006044820152606490fd5b6001600160a01b03918216815291166020820152604081019190915260600190565b6002600e5414614bc3576002600e55565b60405162461bcd60e51b815260206004820152601f60248201527f5265656e7472616e637947756172643a207265656e7472616e742063616c6c006044820152606490fd5b15614c0f57565b60405162461bcd60e51b8152602060048201526011602482015270139195081a5cc81b9bdd081b1a5cdd1959607a1b6044820152606490fd5b919082039182116140f457565b15614c5c57565b60405162461bcd60e51b8152602060048201526019602482015278151c985b9cd9995c881d1bc81cd95b1b195c8819985a5b1959603a1b6044820152606490fd5b919082018092116140f457565b60405190614cb782613627565b60606080836000815260006020820152600060408201526000838201520152565b15614cdf57565b60405162461bcd60e51b815260206004820152601260248201527113919508191bd95cc81b9bdd08195e1a5cdd60721b6044820152606490fd5b90604060029180518455614d4260208201511515600186019060ff801983541691151516179055565b0151910155565b8054600160401b81101561361157614d66916001820181556139e3565b819291549060031b9160018060a01b039283811b93849216901b16911916179055565b90614d938261391b565b604090614da282519182613693565b8381528093614db3601f199161391b565b0191600091825b848110614dc8575050505050565b6020908351614dd681613642565b8581528286818301528686830152828501015201614dba565b90604051614dfc81613642565b6040600282948054845260ff600182015416151560208501520154910152565b15614e2357565b60405162461bcd60e51b8152602060048201526019602482015278139195081a5cc81b9bdd08199c9858dd1a5bdb985b1a5e9959603a1b6044820152606490fd5b15614e6b57565b60405162461bcd60e51b815260206004820152601c60248201527b596f7520646f206e6f74206f776e20616e79206672616374696f6e7360201b6044820152606490fd5b15614eb657565b60405162461bcd60e51b81526020600482015260186024820152774672616374696f6e206973206e6f7420666f722073616c6560401b6044820152606490fd5b15614efd57565b60405162461bcd60e51b8152602060048201526018602482015277125b98dbdc9c9958dd081c185e5b595b9d08185b5bdd5b9d60421b6044820152606490fd5b6000908152601f602052604090205460a01c6001600160401b03164211614f70576040600020546001600160a01b031690565b600090565b614f81611514826141e4565b614f8a81613b11565b336001600160a01b0390911603614fe25760005260208052614faf6040600020614def565b614fc86040614fbf835142614c48565b92015142614c48565b9061012c809110159182614fdb57505090565b1015919050565b60405162461bcd60e51b815260206004820152600d60248201526c2737ba103a34329037bbb732b960991b6044820152606490fd5b1561501e57565b60405162461bcd60e51b815260206004820152601c60248201527b05072696365206d7573742062652067726561746572207468616e20360241b6044820152606490fd5b9192939060409283516020928382019260018060601b03199060601b16835260348201526034815261509381613642565b519020601154946150a38761391b565b966150b086519889613693565b8088528388019060051b820191368311611107578490915b83831061512d5750505050916000925b8651841015615123576150eb8488614aec565b519085600083831015615113575050600052825261510d846000205b93614add565b926150d8565b909161510d938252855220615107565b9350945050501490565b82358152918101918591016150c8565b1561514457565b60405162461bcd60e51b8152602060048201526014602482015273151bdad95b88191bd95cc81b9bdd08195e1a5cdd60621b6044820152606490fd5b61518c613c9d826141e4565b6000818152602090600c82526040906151a68282206136b6565b6151ae614a57565b80519182156153c5578051615394575050506151cc613c9d856141e4565b6151d4614a57565b80519092901561537f5790938491908072184f03e93ff9f4daa797ed6e38ed64bf6a1f0160401b8181811015615370575b506904ee2d6d415b85acef8160201b905080831015615362575b50662386f26fc1000080831015615353575b506305f5e10080831015615344575b5061271080831015615335575b506064821015615325575b600a8092101561531b575b600190816021818a019961528e6152798c6137a7565b9b61528689519d8e613693565b808d526137a7565b8b8b019890601f1901368a37508a0101905b6152e5575b50505050906152d9946138149493925195836152ca8895518092888089019101613508565b84019151809386840190613508565b01038084520182613693565b600019019083906f181899199a1a9b1b9c1cb0b131b232b360811b8282061a835304918215615316579190826152a0565b6152a5565b9560010195615263565b9590606460029104910195615258565b6004919792049101953861524d565b60089197920491019538615240565b60109197920491019538615231565b86919792049101953861521f565b91975091500481953880615205565b9250925050519061538f82613678565b815290565b9195509150846153b1613814959451968794868087019101613508565b82016152d982518093868085019101613508565b955050505050509056fe6decc0edd62bc66dd462d841e96d5888ee2452307a8352b9bd66e442d6a23ee08be0079c531659141344cd1fd0a4f28419497f9722a3daafe3b4186f6b6457e0ddf252ad1be2c89b69c2b068fc378daa952ba7f163c4a11628f55a4df523b3efa2646970667358221220dbd7e8da3fa158ac4c9ae72b86c4dea1d3212e1cf1f54f7957bb880db126b94364736f6c63430008110033",
  "devdoc": {
    "kind": "dev",
    "methods": {
      "approve(address,uint256)": {
        "details": "See {IERC721-approve}."
      },
      "balanceOf(address)": {
        "details": "See {IERC721-balanceOf}."
      },
      "getApproved(uint256)": {
        "details": "See {IERC721-getApproved}."
      },
      "getTokenIdByMessageHash(bytes32)": {
        "details": "Get token ID by XCM message hash",
        "params": {
          "messageHash": "XCM message hash"
        },
        "returns": {
          "_0": "uint256 Token ID"
        }
      },
      "isApprovedForAll(address,address)": {
        "details": "See {IERC721-isApprovedForAll}."
      },
      "isNFTLockedForCrossChain(uint256)": {
        "details": "Check if NFT is locked for cross-chain transfer",
        "params": {
          "tokenId": "Token ID to check"
        },
        "returns": {
          "_0": "bool Whether the NFT is locked"
        }
      },
      "lockForCrossChain(uint256,bytes32)": {
        "details": "Lock NFT for cross-chain transfer (only XCM Bridge)",
        "params": {
          "messageHash": "XCM message hash",
          "tokenId": "Token ID to lock"
        }
      },
      "name()": {
        "details": "See {IERC721Metadata-name}."
      },
      "owner()": {
        "details": "Returns the address of the current owner."
      },
      "ownerOf(uint256)": {
        "details": "See {IERC721-ownerOf}."
      },
      "renounceOwnership()": {
        "details": "Leaves the contract without owner. It will not be possible to call `onlyOwner` functions. Can only be called by the current owner. NOTE: Renouncing ownership will leave the contract without an owner, thereby disabling any functionality that is only available to the owner."
      },
      "royaltyInfo(uint256,uint256)": {
        "details": "Returns how much royalty is owed and to whom, based on a sale price that may be denominated in any unit of exchange. The royalty amount is denominated and should be paid in that same unit of exchange."
      },
      "safeTransferFrom(address,address,uint256)": {
        "details": "See {IERC721-safeTransferFrom}."
      },
      "safeTransferFrom(address,address,uint256,bytes)": {
        "details": "See {IERC721-safeTransferFrom}."
      },
      "setApprovalForAll(address,bool)": {
        "details": "See {IERC721-setApprovalForAll}."
      },
      "setUser(uint256,address,uint64)": {
        "params": {
          "expires": "",
          "tokenId": "NFTID",
          "user": ""
        }
      },
      "setXCMBridge(address)": {
        "details": "Set XCM Bridge contract address (only owner)",
        "params": {
          "_xcmBridge": "XCM Bridge contract address"
        }
      },
      "symbol()": {
        "details": "See {IERC721Metadata-symbol}."
      },
      "tokenByIndex(uint256)": {
        "details": "See {IERC721Enumerable-tokenByIndex}."
      },
      "tokenOfOwnerByIndex(address,uint256)": {
        "details": "See {IERC721Enumerable-tokenOfOwnerByIndex}."
      },
      "totalSupply()": {
        "details": "See {IERC721Enumerable-totalSupply}."
      },
      "transferFrom(address,address,uint256)": {
        "details": "See {IERC721-transferFrom}."
      },
      "transferOwnership(address)": {
        "details": "Transfers ownership of the contract to a new account (`newOwner`). Can only be called by the current owner."
      },
      "unlockFromCrossChain(uint256,bytes32)": {
        "details": "Unlock NFT from cross-chain transfer (only XCM Bridge)",
        "params": {
          "messageHash": "XCM message hash",
          "tokenId": "Token ID to unlock"
        }
      },
      "userExpires(uint256)": {
        "params": {
          "tokenId": "NFTID"
        },
        "returns": {
          "_0": ""
        }
      },
      "userOf(uint256)": {
        "params": {
          "tokenId": "NFTID"
        },
        "returns": {
          "_0": ""
        }
      }
    },
    "version": 1
  },
  "userdoc": {
    "events": {
      "UpdateUser(uint256,address,uint64)": {
        "notice": "NFT"
      }
    },
    "kind": "user",
    "methods": {
      "setUser(uint256,address,uint64)": {
        "notice": "NFT"
      },
      "userExpires(uint256)": {
        "notice": "NFT"
      },
      "userOf(uint256)": {
        "notice": "NFT"
      }
    },
    "version": 1
  },
  "storageLayout": {
    "storage": [
      {
        "astId": 2102,
        "contract": "contracts/YourCollectible.sol:YourCollectible",
        "label": "_defaultRoyaltyInfo",
        "offset": 0,
        "slot": "0",
        "type": "t_struct(RoyaltyInfo)2099_storage"
      },
      {
        "astId": 2107,
        "contract": "contracts/YourCollectible.sol:YourCollectible",
        "label": "_tokenRoyaltyInfo",
        "offset": 0,
        "slot": "1",
        "type": "t_mapping(t_uint256,t_struct(RoyaltyInfo)2099_storage)"
      },
      {
        "astId": 436,
        "contract": "contracts/YourCollectible.sol:YourCollectible",
        "label": "_name",
        "offset": 0,
        "slot": "2",
        "type": "t_string_storage"
      },
      {
        "astId": 438,
        "contract": "contracts/YourCollectible.sol:YourCollectible",
        "label": "_symbol",
        "offset": 0,
        "slot": "3",
        "type": "t_string_storage"
      },
      {
        "astId": 442,
        "contract": "contracts/YourCollectible.sol:YourCollectible",
        "label": "_owners",
        "offset": 0,
        "slot": "4",
        "type": "t_mapping(t_uint256,t_address)"
      },
      {
        "astId": 446,
        "contract": "contracts/YourCollectible.sol:YourCollectible",
        "label": "_balances",
        "offset": 0,
        "slot": "5",
        "type": "t_mapping(t_address,t_uint256)"
      },
      {
        "astId": 450,
        "contract": "contracts/YourCollectible.sol:YourCollectible",
        "label": "_tokenApprovals",
        "offset": 0,
        "slot": "6",
        "type": "t_mapping(t_uint256,t_address)"
      },
      {
        "astId": 456,
        "contract": "contracts/YourCollectible.sol:YourCollectible",
        "label": "_operatorApprovals",
        "offset": 0,
        "slot": "7",
        "type": "t_mapping(t_address,t_mapping(t_address,t_bool))"
      },
      {
        "astId": 1486,
        "contract": "contracts/YourCollectible.sol:YourCollectible",
        "label": "_ownedTokens",
        "offset": 0,
        "slot": "8",
        "type": "t_mapping(t_address,t_mapping(t_uint256,t_uint256))"
      },
      {
        "astId": 1490,
        "contract": "contracts/YourCollectible.sol:YourCollectible",
        "label": "_ownedTokensIndex",
        "offset": 0,
        "slot": "9",
        "type": "t_mapping(t_uint256,t_uint256)"
      },
      {
        "astId": 1493,
        "contract": "contracts/YourCollectible.sol:YourCollectible",
        "label": "_allTokens",
        "offset": 0,
        "slot": "10",
        "type": "t_array(t_uint256)dyn_storage"
      },
      {
        "astId": 1497,
        "contract": "contracts/YourCollectible.sol:YourCollectible",
        "label": "_allTokensIndex",
        "offset": 0,
        "slot": "11",
        "type": "t_mapping(t_uint256,t_uint256)"
      },
      {
        "astId": 1887,
        "contract": "contracts/YourCollectible.sol:YourCollectible",
        "label": "_tokenURIs",
        "offset": 0,
        "slot": "12",
        "type": "t_mapping(t_uint256,t_string_storage)"
      },
      {
        "astId": 7,
        "contract": "contracts/YourCollectible.sol:YourCollectible",
        "label": "_owner",
        "offset": 0,
        "slot": "13",
        "type": "t_address"
      },
      {
        "astId": 278,
        "contract": "contracts/YourCollectible.sol:YourCollectible",
        "label": "_status",
        "offset": 0,
        "slot": "14",
        "type": "t_uint256"
      },
      {
        "astId": 6192,
        "contract": "contracts/YourCollectible.sol:YourCollectible",
        "label": "tokenIdCounter",
        "offset": 0,
        "slot": "15",
        "type": "t_struct(Counter)2649_storage"
      },
      {
        "astId": 6195,
        "contract": "contracts/YourCollectible.sol:YourCollectible",
        "label": "listingFee",
        "offset": 0,
        "slot": "16",
        "type": "t_uint256"
      },
      {
        "astId": 6203,
        "contract": "contracts/YourCollectible.sol:YourCollectible",
        "label": "merkleRoot",
        "offset": 0,
        "slot": "17",
        "type": "t_bytes32"
      },
      {
        "astId": 6205,
        "contract": "contracts/YourCollectible.sol:YourCollectible",
        "label": "xcmBridge",
        "offset": 0,
        "slot": "18",
        "type": "t_address"
      },
      {
        "astId": 6209,
        "contract": "contracts/YourCollectible.sol:YourCollectible",
        "label": "isLockedForCrossChain",
        "offset": 0,
        "slot": "19",
        "type": "t_mapping(t_uint256,t_bool)"
      },
      {
        "astId": 6213,
        "contract": "contracts/YourCollectible.sol:YourCollectible",
        "label": "crossChainMessages",
        "offset": 0,
        "slot": "20",
        "type": "t_mapping(t_bytes32,t_uint256)"
      },
      {
        "astId": 6255,
        "contract": "contracts/YourCollectible.sol:YourCollectible",
        "label": "mysteryBox",
        "offset": 0,
        "slot": "21",
        "type": "t_struct(MysteryBox)6252_storage"
      },
      {
        "astId": 6258,
        "contract": "contracts/YourCollectible.sol:YourCollectible",
        "label": "nonce",
        "offset": 0,
        "slot": "24",
        "type": "t_uint256"
      },
      {
        "astId": 6263,
        "contract": "contracts/YourCollectible.sol:YourCollectible",
        "label": "nftItems",
        "offset": 0,
        "slot": "25",
        "type": "t_mapping(t_uint256,t_struct(NFTItem)6224_storage)"
      },
      {
        "astId": 6267,
        "contract": "contracts/YourCollectible.sol:YourCollectible",
        "label": "mintedBy",
        "offset": 0,
        "slot": "26",
        "type": "t_mapping(t_uint256,t_address)"
      },
      {
        "astId": 6271,
        "contract": "contracts/YourCollectible.sol:YourCollectible",
        "label": "isFractionalized",
        "offset": 0,
        "slot": "27",
        "type": "t_mapping(t_uint256,t_bool)"
      },
      {
        "astId": 6275,
        "contract": "contracts/YourCollectible.sol:YourCollectible",
        "label": "totalFractions",
        "offset": 0,
        "slot": "28",
        "type": "t_mapping(t_uint256,t_uint256)"
      },
      {
        "astId": 6282,
        "contract": "contracts/YourCollectible.sol:YourCollectible",
        "label": "fractions",
        "offset": 0,
        "slot": "29",
        "type": "t_mapping(t_uint256,t_mapping(t_address,t_struct(Fraction)6231_storage))"
      },
      {
        "astId": 6287,
        "contract": "contracts/YourCollectible.sol:YourCollectible",
        "label": "fractionOwners",
        "offset": 0,
        "slot": "30",
        "type": "t_mapping(t_uint256,t_array(t_address)dyn_storage)"
      },
      {
        "astId": 6292,
        "contract": "contracts/YourCollectible.sol:YourCollectible",
        "label": "_users",
        "offset": 0,
        "slot": "31",
        "type": "t_mapping(t_uint256,t_struct(UserInfo)6236_storage)"
      },
      {
        "astId": 6297,
        "contract": "contracts/YourCollectible.sol:YourCollectible",
        "label": "nftLoyalty",
        "offset": 0,
        "slot": "32",
        "type": "t_mapping(t_uint256,t_struct(LoyaltyInfo)6243_storage)"
      },
      {
        "astId": 6301,
        "contract": "contracts/YourCollectible.sol:YourCollectible",
        "label": "hasClaimed",
        "offset": 0,
        "slot": "33",
        "type": "t_mapping(t_address,t_bool)"
      },
      {
        "astId": 6305,
        "contract": "contracts/YourCollectible.sol:YourCollectible",
        "label": "mysteryBoxURIs",
        "offset": 0,
        "slot": "34",
        "type": "t_mapping(t_uint256,t_string_storage)"
      }
    ],
    "types": {
      "t_address": {
        "encoding": "inplace",
        "label": "address",
        "numberOfBytes": "20"
      },
      "t_address_payable": {
        "encoding": "inplace",
        "label": "address payable",
        "numberOfBytes": "20"
      },
      "t_array(t_address)dyn_storage": {
        "base": "t_address",
        "encoding": "dynamic_array",
        "label": "address[]",
        "numberOfBytes": "32"
      },
      "t_array(t_uint256)dyn_storage": {
        "base": "t_uint256",
        "encoding": "dynamic_array",
        "label": "uint256[]",
        "numberOfBytes": "32"
      },
      "t_bool": {
        "encoding": "inplace",
        "label": "bool",
        "numberOfBytes": "1"
      },
      "t_bytes32": {
        "encoding": "inplace",
        "label": "bytes32",
        "numberOfBytes": "32"
      },
      "t_mapping(t_address,t_bool)": {
        "encoding": "mapping",
        "key": "t_address",
        "label": "mapping(address => bool)",
        "numberOfBytes": "32",
        "value": "t_bool"
      },
      "t_mapping(t_address,t_mapping(t_address,t_bool))": {
        "encoding": "mapping",
        "key": "t_address",
        "label": "mapping(address => mapping(address => bool))",
        "numberOfBytes": "32",
        "value": "t_mapping(t_address,t_bool)"
      },
      "t_mapping(t_address,t_mapping(t_uint256,t_uint256))": {
        "encoding": "mapping",
        "key": "t_address",
        "label": "mapping(address => mapping(uint256 => uint256))",
        "numberOfBytes": "32",
        "value": "t_mapping(t_uint256,t_uint256)"
      },
      "t_mapping(t_address,t_struct(Fraction)6231_storage)": {
        "encoding": "mapping",
        "key": "t_address",
        "label": "mapping(address => struct YourCollectible.Fraction)",
        "numberOfBytes": "32",
        "value": "t_struct(Fraction)6231_storage"
      },
      "t_mapping(t_address,t_uint256)": {
        "encoding": "mapping",
        "key": "t_address",
        "label": "mapping(address => uint256)",
        "numberOfBytes": "32",
        "value": "t_uint256"
      },
      "t_mapping(t_bytes32,t_uint256)": {
        "encoding": "mapping",
        "key": "t_bytes32",
        "label": "mapping(bytes32 => uint256)",
        "numberOfBytes": "32",
        "value": "t_uint256"
      },
      "t_mapping(t_uint256,t_address)": {
        "encoding": "mapping",
        "key": "t_uint256",
        "label": "mapping(uint256 => address)",
        "numberOfBytes": "32",
        "value": "t_address"
      },
      "t_mapping(t_uint256,t_array(t_address)dyn_storage)": {
        "encoding": "mapping",
        "key": "t_uint256",
        "label": "mapping(uint256 => address[])",
        "numberOfBytes": "32",
        "value": "t_array(t_address)dyn_storage"
      },
      "t_mapping(t_uint256,t_bool)": {
        "encoding": "mapping",
        "key": "t_uint256",
        "label": "mapping(uint256 => bool)",
        "numberOfBytes": "32",
        "value": "t_bool"
      },
      "t_mapping(t_uint256,t_mapping(t_address,t_struct(Fraction)6231_storage))": {
        "encoding": "mapping",
        "key": "t_uint256",
        "label": "mapping(uint256 => mapping(address => struct YourCollectible.Fraction))",
        "numberOfBytes": "32",
        "value": "t_mapping(t_address,t_struct(Fraction)6231_storage)"
      },
      "t_mapping(t_uint256,t_string_storage)": {
        "encoding": "mapping",
        "key": "t_uint256",
        "label": "mapping(uint256 => string)",
        "numberOfBytes": "32",
        "value": "t_string_storage"
      },
      "t_mapping(t_uint256,t_struct(LoyaltyInfo)6243_storage)": {
        "encoding": "mapping",
        "key": "t_uint256",
        "label": "mapping(uint256 => struct YourCollectible.LoyaltyInfo)",
        "numberOfBytes": "32",
        "value": "t_struct(LoyaltyInfo)6243_storage"
      },
      "t_mapping(t_uint256,t_struct(NFTItem)6224_storage)": {
        "encoding": "mapping",
        "key": "t_uint256",
        "label": "mapping(uint256 => struct YourCollectible.NFTItem)",
        "numberOfBytes": "32",
        "value": "t_struct(NFTItem)6224_storage"
      },
      "t_mapping(t_uint256,t_struct(RoyaltyInfo)2099_storage)": {
        "encoding": "mapping",
        "key": "t_uint256",
        "label": "mapping(uint256 => struct ERC2981.RoyaltyInfo)",
        "numberOfBytes": "32",
        "value": "t_struct(RoyaltyInfo)2099_storage"
      },
      "t_mapping(t_uint256,t_struct(UserInfo)6236_storage)": {
        "encoding": "mapping",
        "key": "t_uint256",
        "label": "mapping(uint256 => struct YourCollectible.UserInfo)",
        "numberOfBytes": "32",
        "value": "t_struct(UserInfo)6236_storage"
      },
      "t_mapping(t_uint256,t_uint256)": {
        "encoding": "mapping",
        "key": "t_uint256",
        "label": "mapping(uint256 => uint256)",
        "numberOfBytes": "32",
        "value": "t_uint256"
      },
      "t_string_storage": {
        "encoding": "bytes",
        "label": "string",
        "numberOfBytes": "32"
      },
      "t_struct(Counter)2649_storage": {
        "encoding": "inplace",
        "label": "struct Counters.Counter",
        "members": [
          {
            "astId": 2648,
            "contract": "contracts/YourCollectible.sol:YourCollectible",
            "label": "_value",
            "offset": 0,
            "slot": "0",
            "type": "t_uint256"
          }
        ],
        "numberOfBytes": "32"
      },
      "t_struct(Fraction)6231_storage": {
        "encoding": "inplace",
        "label": "struct YourCollectible.Fraction",
        "members": [
          {
            "astId": 6226,
            "contract": "contracts/YourCollectible.sol:YourCollectible",
            "label": "amount",
            "offset": 0,
            "slot": "0",
            "type": "t_uint256"
          },
          {
            "astId": 6228,
            "contract": "contracts/YourCollectible.sol:YourCollectible",
            "label": "isForSale",
            "offset": 0,
            "slot": "1",
            "type": "t_bool"
          },
          {
            "astId": 6230,
            "contract": "contracts/YourCollectible.sol:YourCollectible",
            "label": "price",
            "offset": 0,
            "slot": "2",
            "type": "t_uint256"
          }
        ],
        "numberOfBytes": "96"
      },
      "t_struct(LoyaltyInfo)6243_storage": {
        "encoding": "inplace",
        "label": "struct YourCollectible.LoyaltyInfo",
        "members": [
          {
            "astId": 6238,
            "contract": "contracts/YourCollectible.sol:YourCollectible",
            "label": "holdingStartTime",
            "offset": 0,
            "slot": "0",
            "type": "t_uint256"
          },
          {
            "astId": 6240,
            "contract": "contracts/YourCollectible.sol:YourCollectible",
            "label": "rewardClaimed",
            "offset": 0,
            "slot": "1",
            "type": "t_bool"
          },
          {
            "astId": 6242,
            "contract": "contracts/YourCollectible.sol:YourCollectible",
            "label": "lastRewardTime",
            "offset": 0,
            "slot": "2",
            "type": "t_uint256"
          }
        ],
        "numberOfBytes": "96"
      },
      "t_struct(MysteryBox)6252_storage": {
        "encoding": "inplace",
        "label": "struct YourCollectible.MysteryBox",
        "members": [
          {
            "astId": 6245,
            "contract": "contracts/YourCollectible.sol:YourCollectible",
            "label": "price",
            "offset": 0,
            "slot": "0",
            "type": "t_uint256"
          },
          {
            "astId": 6247,
            "contract": "contracts/YourCollectible.sol:YourCollectible",
            "label": "isActive",
            "offset": 0,
            "slot": "1",
            "type": "t_bool"
          },
          {
            "astId": 6249,
            "contract": "contracts/YourCollectible.sol:YourCollectible",
            "label": "royaltyFee",
            "offset": 1,
            "slot": "1",
            "type": "t_uint96"
          },
          {
            "astId": 6251,
            "contract": "contracts/YourCollectible.sol:YourCollectible",
            "label": "uriCount",
            "offset": 0,
            "slot": "2",
            "type": "t_uint256"
          }
        ],
        "numberOfBytes": "96"
      },
      "t_struct(NFTItem)6224_storage": {
        "encoding": "inplace",
        "label": "struct YourCollectible.NFTItem",
        "members": [
          {
            "astId": 6215,
            "contract": "contracts/YourCollectible.sol:YourCollectible",
            "label": "tokenId",
            "offset": 0,
            "slot": "0",
            "type": "t_uint256"
          },
          {
            "astId": 6217,
            "contract": "contracts/YourCollectible.sol:YourCollectible",
            "label": "price",
            "offset": 0,
            "slot": "1",
            "type": "t_uint256"
          },
          {
            "astId": 6219,
            "contract": "contracts/YourCollectible.sol:YourCollectible",
            "label": "owner",
            "offset": 0,
            "slot": "2",
            "type": "t_address_payable"
          },
          {
            "astId": 6221,
            "contract": "contracts/YourCollectible.sol:YourCollectible",
            "label": "isListed",
            "offset": 20,
            "slot": "2",
            "type": "t_bool"
          },
          {
            "astId": 6223,
            "contract": "contracts/YourCollectible.sol:YourCollectible",
            "label": "tokenUri",
            "offset": 0,
            "slot": "3",
            "type": "t_string_storage"
          }
        ],
        "numberOfBytes": "128"
      },
      "t_struct(RoyaltyInfo)2099_storage": {
        "encoding": "inplace",
        "label": "struct ERC2981.RoyaltyInfo",
        "members": [
          {
            "astId": 2096,
            "contract": "contracts/YourCollectible.sol:YourCollectible",
            "label": "receiver",
            "offset": 0,
            "slot": "0",
            "type": "t_address"
          },
          {
            "astId": 2098,
            "contract": "contracts/YourCollectible.sol:YourCollectible",
            "label": "royaltyFraction",
            "offset": 20,
            "slot": "0",
            "type": "t_uint96"
          }
        ],
        "numberOfBytes": "32"
      },
      "t_struct(UserInfo)6236_storage": {
        "encoding": "inplace",
        "label": "struct YourCollectible.UserInfo",
        "members": [
          {
            "astId": 6233,
            "contract": "contracts/YourCollectible.sol:YourCollectible",
            "label": "user",
            "offset": 0,
            "slot": "0",
            "type": "t_address"
          },
          {
            "astId": 6235,
            "contract": "contracts/YourCollectible.sol:YourCollectible",
            "label": "expires",
            "offset": 20,
            "slot": "0",
            "type": "t_uint64"
          }
        ],
        "numberOfBytes": "32"
      },
      "t_uint256": {
        "encoding": "inplace",
        "label": "uint256",
        "numberOfBytes": "32"
      },
      "t_uint64": {
        "encoding": "inplace",
        "label": "uint64",
        "numberOfBytes": "8"
      },
      "t_uint96": {
        "encoding": "inplace",
        "label": "uint96",
        "numberOfBytes": "12"
      }
    }
  }
}