{
  "address": "0x1519c05ABD62bdcc2adf7c9028Dc0260755B021a",
  "abi": [
    {
      "inputs": [],
      "stateMutability": "nonpayable",
      "type": "constructor"
    },
    {
      "anonymous": false,
      "inputs": [
        {
          "indexed": true,
          "internalType": "uint32",
          "name": "chainId",
          "type": "uint32"
        },
        {
          "indexed": false,
          "internalType": "bool",
          "name": "supported",
          "type": "bool"
        }
      ],
      "name": "ChainSupported",
      "type": "event"
    },
    {
      "anonymous": false,
      "inputs": [
        {
          "indexed": true,
          "internalType": "address",
          "name": "nftContract",
          "type": "address"
        },
        {
          "indexed": false,
          "internalType": "bool",
          "name": "authorized",
          "type": "bool"
        }
      ],
      "name": "ContractAuthorized",
      "type": "event"
    },
    {
      "anonymous": false,
      "inputs": [
        {
          "indexed": true,
          "internalType": "address",
          "name": "nftContract",
          "type": "address"
        },
        {
          "indexed": true,
          "internalType": "uint256",
          "name": "tokenId",
          "type": "uint256"
        },
        {
          "indexed": true,
          "internalType": "address",
          "name": "owner",
          "type": "address"
        },
        {
          "indexed": false,
          "internalType": "uint32",
          "name": "destinationChainId",
          "type": "uint32"
        },
        {
          "indexed": false,
          "internalType": "bytes32",
          "name": "messageHash",
          "type": "bytes32"
        },
        {
          "indexed": false,
          "internalType": "string",
          "name": "tokenURI",
          "type": "string"
        }
      ],
      "name": "NFTLocked",
      "type": "event"
    },
    {
      "anonymous": false,
      "inputs": [
        {
          "indexed": true,
          "internalType": "address",
          "name": "nftContract",
          "type": "address"
        },
        {
          "indexed": true,
          "internalType": "uint256",
          "name": "tokenId",
          "type": "uint256"
        },
        {
          "indexed": true,
          "internalType": "address",
          "name": "owner",
          "type": "address"
        },
        {
          "indexed": false,
          "internalType": "bytes32",
          "name": "messageHash",
          "type": "bytes32"
        }
      ],
      "name": "NFTUnlocked",
      "type": "event"
    },
    {
      "anonymous": false,
      "inputs": [
        {
          "indexed": true,
          "internalType": "address",
          "name": "previousOwner",
          "type": "address"
        },
        {
          "indexed": true,
          "internalType": "address",
          "name": "newOwner",
          "type": "address"
        }
      ],
      "name": "OwnershipTransferred",
      "type": "event"
    },
    {
      "anonymous": false,
      "inputs": [
        {
          "indexed": false,
          "internalType": "address",
          "name": "account",
          "type": "address"
        }
      ],
      "name": "Paused",
      "type": "event"
    },
    {
      "anonymous": false,
      "inputs": [
        {
          "indexed": false,
          "internalType": "address",
          "name": "account",
          "type": "address"
        }
      ],
      "name": "Unpaused",
      "type": "event"
    },
    {
      "anonymous": false,
      "inputs": [
        {
          "indexed": true,
          "internalType": "address",
          "name": "wrappedContract",
          "type": "address"
        },
        {
          "indexed": true,
          "internalType": "uint256",
          "name": "wrappedTokenId",
          "type": "uint256"
        },
        {
          "indexed": true,
          "internalType": "address",
          "name": "owner",
          "type": "address"
        },
        {
          "indexed": false,
          "internalType": "bytes32",
          "name": "lockMessageHash",
          "type": "bytes32"
        }
      ],
      "name": "WrappedNFTBurned",
      "type": "event"
    },
    {
      "anonymous": false,
      "inputs": [
        {
          "indexed": true,
          "internalType": "uint32",
          "name": "chainId",
          "type": "uint32"
        },
        {
          "indexed": false,
          "internalType": "address",
          "name": "wrappedContract",
          "type": "address"
        }
      ],
      "name": "WrappedNFTContractSet",
      "type": "event"
    },
    {
      "anonymous": false,
      "inputs": [
        {
          "indexed": true,
          "internalType": "address",
          "name": "wrappedContract",
          "type": "address"
        },
        {
          "indexed": true,
          "internalType": "uint256",
          "name": "wrappedTokenId",
          "type": "uint256"
        },
        {
          "indexed": true,
          "internalType": "address",
          "name": "recipient",
          "type": "address"
        },
        {
          "indexed": false,
          "internalType": "bytes32",
          "name": "lockMessageHash",
          "type": "bytes32"
        }
      ],
      "name": "WrappedNFTMinted",
      "type": "event"
    },
    {
      "anonymous": false,
      "inputs": [
        {
          "indexed": true,
          "internalType": "bytes32",
          "name": "messageHash",
          "type": "bytes32"
        },
        {
          "indexed": false,
          "internalType": "enum XCMBridgeV2.MessageType",
          "name": "messageType",
          "type": "uint8"
        },
        {
          "indexed": false,
          "internalType": "uint32",
          "name": "sourceChainId",
          "type": "uint32"
        }
      ],
      "name": "XCMMessageReceived",
      "type": "event"
    },
    {
      "anonymous": false,
      "inputs": [
        {
          "indexed": true,
          "internalType": "bytes32",
          "name": "messageHash",
          "type": "bytes32"
        },
        {
          "indexed": false,
          "internalType": "enum XCMBridgeV2.MessageType",
          "name": "messageType",
          "type": "uint8"
        },
        {
          "indexed": false,
          "internalType": "uint32",
          "name": "destinationChainId",
          "type": "uint32"
        }
      ],
      "name": "XCMMessageSent",
      "type": "event"
    },
    {
      "inputs": [],
      "name": "MOONBASE_ALPHA_CHAIN_ID",
      "outputs": [
        {
          "internalType": "uint32",
          "name": "",
          "type": "uint32"
        }
      ],
      "stateMutability": "view",
      "type": "function"
    },
    {
      "inputs": [],
      "name": "POLKADOT_HUB_CHAIN_ID",
      "outputs": [
        {
          "internalType": "uint32",
          "name": "",
          "type": "uint32"
        }
      ],
      "stateMutability": "view",
      "type": "function"
    },
    {
      "inputs": [
        {
          "internalType": "address",
          "name": "",
          "type": "address"
        }
      ],
      "name": "authorizedContracts",
      "outputs": [
        {
          "internalType": "bool",
          "name": "",
          "type": "bool"
        }
      ],
      "stateMutability": "view",
      "type": "function"
    },
    {
      "inputs": [
        {
          "internalType": "uint256",
          "name": "wrappedTokenId",
          "type": "uint256"
        }
      ],
      "name": "burnWrappedNFTAndUnlock",
      "outputs": [],
      "stateMutability": "nonpayable",
      "type": "function"
    },
    {
      "inputs": [
        {
          "internalType": "bytes32",
          "name": "",
          "type": "bytes32"
        }
      ],
      "name": "crossChainNFTs",
      "outputs": [
        {
          "internalType": "address",
          "name": "originalContract",
          "type": "address"
        },
        {
          "internalType": "uint256",
          "name": "originalTokenId",
          "type": "uint256"
        },
        {
          "internalType": "address",
          "name": "originalOwner",
          "type": "address"
        },
        {
          "internalType": "uint32",
          "name": "sourceChainId",
          "type": "uint32"
        },
        {
          "internalType": "uint32",
          "name": "destinationChainId",
          "type": "uint32"
        },
        {
          "internalType": "bool",
          "name": "isLocked",
          "type": "bool"
        },
        {
          "internalType": "uint256",
          "name": "timestamp",
          "type": "uint256"
        },
        {
          "internalType": "string",
          "name": "tokenURI",
          "type": "string"
        }
      ],
      "stateMutability": "view",
      "type": "function"
    },
    {
      "inputs": [
        {
          "internalType": "uint32",
          "name": "chainId",
          "type": "uint32"
        }
      ],
      "name": "getWrappedNFTContract",
      "outputs": [
        {
          "internalType": "address",
          "name": "",
          "type": "address"
        }
      ],
      "stateMutability": "view",
      "type": "function"
    },
    {
      "inputs": [
        {
          "internalType": "bytes32",
          "name": "messageHash",
          "type": "bytes32"
        }
      ],
      "name": "getXCMMessage",
      "outputs": [
        {
          "components": [
            {
              "internalType": "enum XCMBridgeV2.MessageType",
              "name": "messageType",
              "type": "uint8"
            },
            {
              "internalType": "address",
              "name": "nftContract",
              "type": "address"
            },
            {
              "internalType": "uint256",
              "name": "tokenId",
              "type": "uint256"
            },
            {
              "internalType": "address",
              "name": "recipient",
              "type": "address"
            },
            {
              "internalType": "uint32",
              "name": "sourceChainId",
              "type": "uint32"
            },
            {
              "internalType": "uint32",
              "name": "destinationChainId",
              "type": "uint32"
            },
            {
              "internalType": "bytes32",
              "name": "messageHash",
              "type": "bytes32"
            },
            {
              "internalType": "bool",
              "name": "processed",
              "type": "bool"
            },
            {
              "internalType": "string",
              "name": "tokenURI",
              "type": "string"
            }
          ],
          "internalType": "struct XCMBridgeV2.XCMMessage",
          "name": "",
          "type": "tuple"
        }
      ],
      "stateMutability": "view",
      "type": "function"
    },
    {
      "inputs": [
        {
          "internalType": "uint32",
          "name": "chainId",
          "type": "uint32"
        }
      ],
      "name": "isChainSupported",
      "outputs": [
        {
          "internalType": "bool",
          "name": "",
          "type": "bool"
        }
      ],
      "stateMutability": "view",
      "type": "function"
    },
    {
      "inputs": [
        {
          "internalType": "address",
          "name": "nftContract",
          "type": "address"
        }
      ],
      "name": "isContractAuthorized",
      "outputs": [
        {
          "internalType": "bool",
          "name": "",
          "type": "bool"
        }
      ],
      "stateMutability": "view",
      "type": "function"
    },
    {
      "inputs": [
        {
          "internalType": "address",
          "name": "nftContract",
          "type": "address"
        },
        {
          "internalType": "uint256",
          "name": "tokenId",
          "type": "uint256"
        },
        {
          "internalType": "uint32",
          "name": "destinationChainId",
          "type": "uint32"
        }
      ],
      "name": "lockNFT",
      "outputs": [],
      "stateMutability": "nonpayable",
      "type": "function"
    },
    {
      "inputs": [
        {
          "internalType": "address",
          "name": "operator",
          "type": "address"
        },
        {
          "internalType": "address",
          "name": "from",
          "type": "address"
        },
        {
          "internalType": "uint256",
          "name": "tokenId",
          "type": "uint256"
        },
        {
          "internalType": "bytes",
          "name": "data",
          "type": "bytes"
        }
      ],
      "name": "onERC721Received",
      "outputs": [
        {
          "internalType": "bytes4",
          "name": "",
          "type": "bytes4"
        }
      ],
      "stateMutability": "pure",
      "type": "function"
    },
    {
      "inputs": [],
      "name": "owner",
      "outputs": [
        {
          "internalType": "address",
          "name": "",
          "type": "address"
        }
      ],
      "stateMutability": "view",
      "type": "function"
    },
    {
      "inputs": [],
      "name": "pause",
      "outputs": [],
      "stateMutability": "nonpayable",
      "type": "function"
    },
    {
      "inputs": [],
      "name": "paused",
      "outputs": [
        {
          "internalType": "bool",
          "name": "",
          "type": "bool"
        }
      ],
      "stateMutability": "view",
      "type": "function"
    },
    {
      "inputs": [
        {
          "internalType": "bytes32",
          "name": "messageHash",
          "type": "bytes32"
        },
        {
          "internalType": "enum XCMBridgeV2.MessageType",
          "name": "messageType",
          "type": "uint8"
        },
        {
          "internalType": "address",
          "name": "nftContract",
          "type": "address"
        },
        {
          "internalType": "uint256",
          "name": "tokenId",
          "type": "uint256"
        },
        {
          "internalType": "address",
          "name": "recipient",
          "type": "address"
        },
        {
          "internalType": "uint32",
          "name": "sourceChainId",
          "type": "uint32"
        },
        {
          "internalType": "string",
          "name": "tokenURI",
          "type": "string"
        }
      ],
      "name": "processXCMMessage",
      "outputs": [],
      "stateMutability": "nonpayable",
      "type": "function"
    },
    {
      "inputs": [],
      "name": "renounceOwnership",
      "outputs": [],
      "stateMutability": "nonpayable",
      "type": "function"
    },
    {
      "inputs": [
        {
          "internalType": "uint32",
          "name": "chainId",
          "type": "uint32"
        },
        {
          "internalType": "bool",
          "name": "supported",
          "type": "bool"
        }
      ],
      "name": "setChainSupport",
      "outputs": [],
      "stateMutability": "nonpayable",
      "type": "function"
    },
    {
      "inputs": [
        {
          "internalType": "address",
          "name": "nftContract",
          "type": "address"
        },
        {
          "internalType": "bool",
          "name": "authorized",
          "type": "bool"
        }
      ],
      "name": "setContractAuthorization",
      "outputs": [],
      "stateMutability": "nonpayable",
      "type": "function"
    },
    {
      "inputs": [
        {
          "internalType": "uint32",
          "name": "chainId",
          "type": "uint32"
        },
        {
          "internalType": "address",
          "name": "wrappedContract",
          "type": "address"
        }
      ],
      "name": "setWrappedNFTContract",
      "outputs": [],
      "stateMutability": "nonpayable",
      "type": "function"
    },
    {
      "inputs": [
        {
          "internalType": "uint32",
          "name": "",
          "type": "uint32"
        }
      ],
      "name": "supportedChains",
      "outputs": [
        {
          "internalType": "bool",
          "name": "",
          "type": "bool"
        }
      ],
      "stateMutability": "view",
      "type": "function"
    },
    {
      "inputs": [
        {
          "internalType": "address",
          "name": "newOwner",
          "type": "address"
        }
      ],
      "name": "transferOwnership",
      "outputs": [],
      "stateMutability": "nonpayable",
      "type": "function"
    },
    {
      "inputs": [
        {
          "internalType": "bytes32",
          "name": "messageHash",
          "type": "bytes32"
        }
      ],
      "name": "unlockNFT",
      "outputs": [],
      "stateMutability": "nonpayable",
      "type": "function"
    },
    {
      "inputs": [],
      "name": "unpause",
      "outputs": [],
      "stateMutability": "nonpayable",
      "type": "function"
    },
    {
      "inputs": [
        {
          "internalType": "uint32",
          "name": "",
          "type": "uint32"
        }
      ],
      "name": "wrappedNFTContracts",
      "outputs": [
        {
          "internalType": "address",
          "name": "",
          "type": "address"
        }
      ],
      "stateMutability": "view",
      "type": "function"
    },
    {
      "inputs": [
        {
          "internalType": "bytes32",
          "name": "",
          "type": "bytes32"
        }
      ],
      "name": "xcmMessages",
      "outputs": [
        {
          "internalType": "enum XCMBridgeV2.MessageType",
          "name": "messageType",
          "type": "uint8"
        },
        {
          "internalType": "address",
          "name": "nftContract",
          "type": "address"
        },
        {
          "internalType": "uint256",
          "name": "tokenId",
          "type": "uint256"
        },
        {
          "internalType": "address",
          "name": "recipient",
          "type": "address"
        },
        {
          "internalType": "uint32",
          "name": "sourceChainId",
          "type": "uint32"
        },
        {
          "internalType": "uint32",
          "name": "destinationChainId",
          "type": "uint32"
        },
        {
          "internalType": "bytes32",
          "name": "messageHash",
          "type": "bytes32"
        },
        {
          "internalType": "bool",
          "name": "processed",
          "type": "bool"
        },
        {
          "internalType": "string",
          "name": "tokenURI",
          "type": "string"
        }
      ],
      "stateMutability": "view",
      "type": "function"
    }
  ],
  "transactionHash": "0x24448a517419469cb591cd4843d285aed11ce414260a90776c622a645d61d6c7",
  "args": [],
  "numDeployments": 2,
  "solcInputHash": "823cce687500e031a9da9dbb92dd4cc4",
  "bytecode": "0x608080604052346100905760008054336001600160a01b0319821681178355906001600160a01b03167f8be0079c531659141344cd1fd0a4f28419497f9722a3daafe3b4186f6b6457e08380a3600180556001604060ff1992836002541660025563190f1b46815260066020528181208385825416179055610507815220918254161790556122e590816100968239f35b600080fdfe608080604052600436101561001357600080fd5b600090813560e01c908163103aeda714611df257508063150b7a0214611d885780631abb86b114611c0f578063248514dd14610c6f5780633ba580be14611b3c5780633f4ba83a14611b7a5780634fcae0d814611b3c57806352687b2c14611620578063588626461461159b5780635c975abb14611578578063715018a61461153057806377e9a4ed14610f965780638456cb5914610f3b5780638da5cb5b14610f14578063a0c0ce3714610d9a578063a89a73e014610ce5578063bce706d714610cc6578063c5ed290314610ca9578063cbaa349e14610c6f578063d5b9221b14610c30578063f2fde38b14610b7f578063f60ccc8614610b14578063f6ee27b714610a9f578063f7bef242146109fe5763fdc4a91a1461013457600080fd5b346109fb5760603660031901126109fb5761014d611e2e565b63ffffffff60443516604435036109f6576101666121ae565b61016e61216a565b6001600160a01b03811682526005602052604082205460ff16156109b75763ffffffff604435168252600660205260ff604083205416156109725763ffffffff461663ffffffff604435161461092d576040516331a9108f60e11b81526024803560048301526020908290816001600160a01b0386165afa9081156109225783916108e8575b50336001600160a01b03909116036108b3576040516001600160401b03602082019081119082111761082b576020810160409081528382525163c87b56dd60e01b815260248035600483015284908290816001600160a01b0387165afa84918161086c575b50610864575b506001600160a01b0382163b1561085557604051632142170760e11b815283908181806102936024353033600485016120e5565b0381836001600160a01b0389165af1801561085957610841575b5050604051606083811b6001600160601b0319166020830152602435603483015233901b60548201524660e090811b6001600160e01b0319908116606884015260443590911b16606c820152426070808301919091528152916001600160401b0360a084019081119084111761082b5760a0830160408190528351602085012093906001600160401b036101a0830190811191111761082b576101a0810160409081526001600160a01b0383811660a0840190815260243560c085019081523360e0860190815263ffffffff4681166101008801908152604435821661012089015260016101408901819052426101608a0152610180808a018c90528c8e526003602052978d20955186549088166001600160a01b0319918216178755945190860155915160028501805491909616931692909217845551919492916103f4911682612107565b61040963ffffffff610120840151168261212a565b610140820151815460ff60e01b191690151560e01b60ff60e01b16179055610160810151600384015501518051906001600160401b038211610747576104526004840154611f45565b601f81116107e7575b50602090601f831160011461077a576004929188918361076f575b50508160011b916000199060031b1c1916179101555b60405161049881611ed8565b84815260018060a01b0382166020820152602435604082015233606082015263ffffffff4616608082015263ffffffff6044351660a08201528360c08201528460e082015282610100820152838552600460205260408520908051600481101561075b5782546020830151610100600160a81b0360089190911b1660ff929092166001600160a81b0319909116171782556040810151600183015560608101516002830180546001600160a01b039092166001600160a01b03199092169190911781556080820151610100929161058a916105799063ffffffff1682612107565b63ffffffff60a0840151169061212a565b60c081015160038401556105a760e0820151151560048501612159565b01518051906001600160401b038211610747576105c76005840154611f45565b601f8111610703575b50602090601f8311600114610696576005929188918361068b575b50508160011b916000199060031b1c1916179101555b6040519163ffffffff604435168352836020840152606060408401527f0e27705db6e8e1e9900d7d25bd8b7c78b1343c9e8327fe06c6305228b7b9508c33938061065b6024359560018060a01b0316946060830190611ea0565b0390a4600080516020612250833981519152604080516000815263ffffffff604435166020820152a26001805580f35b0151905038806105eb565b906005840188526020882091885b601f19851681106106eb5750918391600193600595601f198116106106d2575b505050811b01910155610601565b015160001960f88460031b161c191690553880806106c4565b919260206001819286850151815501940192016106a4565b60058401885260208820601f840160051c810160208510610740575b601f830160051c820181106107355750506105d0565b89815560010161071f565b508061071f565b634e487b7160e01b87526041600452602487fd5b634e487b7160e01b87526021600452602487fd5b015190503880610476565b906004840188526020882091885b601f19851681106107cf5750918391600193600495601f198116106107b6575b505050811b0191015561048c565b015160001960f88460031b161c191690553880806107a8565b91926020600181928685015181550194019201610788565b60048401885260208820601f840160051c810160208510610824575b601f830160051c8201811061081957505061045b565b898155600101610803565b5080610803565b634e487b7160e01b600052604160045260246000fd5b61084a90611ef4565b6108555782386102ad565b8280fd5b6040513d84823e3d90fd5b90503861025f565b9091503d8086833e61087e8183611f07565b81016020828203126108af5781516001600160401b0381116108ab576108a492016120a0565b9038610259565b8680fd5b8580fd5b60405162461bcd60e51b815260206004820152600d60248201526c2737ba1027232a1037bbb732b960991b6044820152606490fd5b90506020813d60201161091a575b8161090360209383611f07565b81010312610855576109149061208c565b386101f4565b3d91506108f6565b6040513d85823e3d90fd5b60405162461bcd60e51b815260206004820152601d60248201527f43616e6e6f74207472616e7366657220746f2073616d6520636861696e0000006044820152606490fd5b60405162461bcd60e51b815260206004820152601f60248201527f44657374696e6174696f6e20636861696e206e6f7420737570706f72746564006044820152606490fd5b60405162461bcd60e51b815260206004820152601760248201527610dbdb9d1c9858dd081b9bdd08185d5d1a1bdc9a5e9959604a1b6044820152606490fd5b600080fd5b80fd5b50346109fb5760203660031901126109fb57604090600435815260036020522060018060a01b03610a9b818354169160018401549360ff6002820154610a4b600460038501549401611f7f565b93604051978897885260208801528116604087015263ffffffff808260a01c1660608801528160c01c16608087015260e01c16151560a085015260c08401526101008060e0850152830190611ea0565b0390f35b50346109fb5760403660031901126109fb57610ab9611ec5565b7f8c3c71aedf3488faccc5d8b353f31837995f6ce36c04f9449471680016f2adc1602063ffffffff610ae9612025565b93610af2612034565b169283855260068252610b088160408720612159565b6040519015158152a280f35b50346109fb5760403660031901126109fb57610b2e611e2e565b7f3213ab8ec2ed122402f038736b41878b69ae9f61f49a7edd0666bce891d29fc96020610b59612025565b92610b62612034565b60018060a01b03169283855260058252610b088160408720612159565b50346109fb5760203660031901126109fb57610b99611e2e565b610ba1612034565b6001600160a01b03908116908115610bdc576000548260018060a01b031982161760005516600080516020612270833981519152600080a380f35b60405162461bcd60e51b815260206004820152602660248201527f4f776e61626c653a206e6577206f776e657220697320746865207a65726f206160448201526564647265737360d01b6064820152608490fd5b50346109fb5760203660031901126109fb5760209060ff906040906001600160a01b03610c5b611e2e565b168152600584522054166040519015158152f35b50346109fb5760203660031901126109fb5760ff604060209263ffffffff610c95611ec5565b168152600684522054166040519015158152f35b50346109fb57806003193601126109fb5760206040516105078152f35b50346109fb57806003193601126109fb57602060405163190f1b468152f35b50346109fb5760203660031901126109fb576040906004358152600460205220805490610a9b6001820154916002810154906003810154610d30600560ff6004850154169301611f7f565b92604051968796610d448860ff8416611e5a565b60018060a01b03809260081c16602089015260408801528116606087015263ffffffff90818160a01c16608088015260c01c1660a086015260c0850152151560e084015261012080610100850152830190611ea0565b50346109fb5760203660031901126109fb57600435610db76121ae565b610dbf61216a565b808252600360205260408220600281019081549060ff8260e01c1615610ede576001600160a01b0382811692909190338403610ea45760ff60e01b1916845580546001820180549094918891908516803b1561085557610e379383604051809681958294632142170760e11b845230600485016120e5565b03925af18015610e9957610e71575b5081600080516020612290833981519152926020925416935494541694604051908152a46001805580f35b918060209297610e8f60008051602061229083398151915295611ef4565b9792509250610e46565b6040513d89823e3d90fd5b60405162461bcd60e51b81526020600482015260126024820152712737ba1037b934b3b4b730b61037bbb732b960711b6044820152606490fd5b60405162461bcd60e51b815260206004820152600e60248201526d139195081b9bdd081b1bd8dad95960921b6044820152606490fd5b50346109fb57806003193601126109fb57546040516001600160a01b039091168152602090f35b50346109fb57806003193601126109fb57610f54612034565b610f5c61216a565b600160ff1960025416176002557f62e78cea01bee320cd4e420270b5ea74000d11b0c9f74754ebdbfc544b05a2586020604051338152a180f35b50346109fb5760203660031901126109fb57610fb06121ae565b610fb861216a565b4663ffffffff168152600760205260408120546001600160a01b0316610fdf811515612204565b6040516331a9108f60e11b81526004803590820152602081602481855afa9081156109225783916114f6575b50336001600160a01b03909116036114b957604051631cf7f7f760e01b815260048035908201528281602481855afa9182156109225783928485938690879361143e575b50604051632c37632960e01b815260048035908201526020816024818b895af1801561143357849189916113fa575b50036113bd57604051918360208401523360601b604084015263ffffffff60e01b804660e01b1660548501528660e01b16605884015242605c840152605c835282608081011060018060401b03608085011117611395576080830160405282516020840120966110f060808501611ed8565b6001608085015260018060a01b031660a084015260c08301523360e083015263ffffffff461661010083015263ffffffff8516610120830152856101408301528661016083015261018082015284865260046020526040862090608081015160048110156113a957825460a0830151610100600160a81b0360089190911b1660ff929092166001600160a81b03199091161717825560c0810151600183015560e08101516002830180546001600160a01b039092166001600160a01b031990921691909117815561010082015161018092916111e8916111d69063ffffffff1682612107565b63ffffffff610120840151169061212a565b6101408101516003840155611207610160820151151560048501612159565b01518051906001600160401b038211611395576112276005840154611f45565b601f811161134d575b50602090601f83116001146112cb578260008051602061225083398151915297959360409795936005938c926112c0575b50508160011b916000199060031b1c1916179101555b835190815233917f0df36309c243e4b3a05627567af6d98460a3519bee337a408d645fac7fbb5c82602060043593a463ffffffff82519160018352166020820152a26001805580f35b015190503880611261565b906005840189526020892091895b601f198516811061133557508360409795936005936001936000805160206122508339815191529b9997601f1981161061131c575b505050811b01910155611277565b015160001960f88460031b161c1916905538808061130e565b919260206001819286850151815501940192016112d9565b60058401895260208920601f840160051c8101916020851061138b575b601f0160051c01905b8181106113805750611230565b898155600101611373565b909150819061136a565b634e487b7160e01b88526041600452602488fd5b634e487b7160e01b88526021600452602488fd5b60405162461bcd60e51b815260206004820152601560248201527409acae6e6c2ceca40d0c2e6d040dad2e6dac2e8c6d605b1b6044820152606490fd5b9150506020813d60201161142b575b8161141660209383611f07565b81010312611427578390513861107e565b8780fd5b3d9150611409565b6040513d8a823e3d90fd5b945050505091503d918284833e6114558383611f07565b60a08284810103126114b55761146a8261208c565b60208301519360408401519063ffffffff821682036108ab576060850151906001600160401b038211611427576080916114a89187019087016120a0565b940151919490933861104f565b8380fd5b60405162461bcd60e51b81526020600482015260156024820152742737ba103bb930b83832b21027232a1037bbb732b960591b6044820152606490fd5b90506020813d602011611528575b8161151160209383611f07565b81010312610855576115229061208c565b3861100b565b3d9150611504565b50346109fb57806003193601126109fb57611549612034565b80546001600160a01b03198116825581906001600160a01b03166000805160206122708339815191528280a380f35b50346109fb57806003193601126109fb57602060ff600254166040519015158152f35b50346109fb5760403660031901126109fb576115b5611ec5565b7fde886e1f194602bf21a882bcc9b2bc21a699230070aaed9cf468b5ed645d228d602063ffffffff6115e5611e44565b936115ee612034565b1680855260078252604080862080546001600160a01b0319166001600160a01b0390961695861790555193845292a280f35b50346109fb5760e03660031901126109fb57600460243510156109fb576044356001600160a01b0381168103611b38576084356001600160a01b03811681036108555760a4359163ffffffff831683036114b55760c435906001600160401b0382116119da57366023830112156119da57848260040135926116a184611f2a565b936116af6040519586611f07565b8085523660248284010111610855578060246020930183870137840101526116d56121ae565b6116dd61216a565b6004358552600460205260ff600460408720015416611af75763ffffffff84168552600660205260ff60408620541615611ab55760405161171d81611ed8565b6117296024358261214d565b60018060a01b0382166020820152606435604082015260018060a01b038416606082015263ffffffff8516608082015263ffffffff461660a082015260043560c0820152600160e082015282610100820152600435865260046020526040862090805160048110156113a95782546020830151610100600160a81b0360089190911b1660ff929092166001600160a81b0319909116171782556040810151600183015560608101516002830180546001600160a01b039092166001600160a01b031990921691909117815560808201516101009291611812916105799063ffffffff1682612107565b60c0810151600384015561182f60e0820151151560048501612159565b01518051906001600160401b0382116113955761184f6005840154611f45565b601f8111611a71575b50602090601f8311600114611a0457600592918991836119f9575b50508160011b916000199060031b1c1916179101555b6024356119f157602061190c9263ffffffff461687526007825260018060a01b03604088205416926118bc841515612204565b604051630d858cef60e11b81526001600160a01b038781166004830152909116602482015260648035604483015263ffffffff88169082015260c0608482015293849182919060c4830190611ea0565b60043560a4830152038188855af19182156119e65785926119ae575b5060405160043581526001600160a01b03909316927fc71b1d3449001e1f8ab96e2d32e9fdea5554ab6aaeb2524d35df603a2ca1d45a90602090a45b63ffffffff6040519161197983602435611e5a565b1660208201527fa4c75f3934813d3ea3822a68ad93195b7c13927a6600022ba0f52e4b799a6a7c604060043592a26001805580f35b9091506020813d6020116119de575b816119ca60209383611f07565b810103126119da57519038611928565b8480fd5b3d91506119bd565b6040513d87823e3d90fd5b505050611964565b015190503880611873565b906005840189526020892091895b601f1985168110611a595750918391600193600595601f19811610611a40575b505050811b01910155611889565b015160001960f88460031b161c19169055388080611a32565b91926020600181928685015181550194019201611a12565b60058401895260208920601f840160051c810160208510611aae575b601f830160051c82018110611aa3575050611858565b8a8155600101611a8d565b5080611a8d565b60405162461bcd60e51b815260206004820152601a60248201527914dbdd5c98d94818da185a5b881b9bdd081cdd5c1c1bdc9d195960321b6044820152606490fd5b60405162461bcd60e51b815260206004820152601960248201527813595cdcd859d948185b1c9958591e481c1c9bd8d95cdcd959603a1b6044820152606490fd5b5080fd5b50346109fb5760203660031901126109fb5760209063ffffffff611b5e611ec5565b16815260078252604060018060a01b0391205416604051908152f35b50346109fb57806003193601126109fb57611b93612034565b60025460ff811615611bd35760ff19166002557f5db9ee0a495bf2e6ff9c91a7834c1ba4fdd244a5e8aa4e537bd38aeae4b073aa6020604051338152a180f35b60405162461bcd60e51b815260206004820152601460248201527314185d5cd8589b194e881b9bdd081c185d5cd95960621b6044820152606490fd5b50346109fb5760203660031901126109fb576040610100916060838351611c3581611ed8565b838152836020820152838582015283838201528360808201528360a08201528360c08201528360e082015201526004358152600460205220611cf2600560405192611c7f84611ed8565b8054611c8e60ff82168661214d565b60081c6001600160a01b039081166020860152600182015460408601526002820154908116606086015260a081811c63ffffffff908116608088015260c092831c1690860152600382015490850152600481015460ff16151560e085015201611f7f565b82820152610a9b60405192839260208452611d11602085018251611e5a565b60018060a01b0360208201511660408501526040810151606085015260018060a01b03606082015116608085015263ffffffff60808201511660a085015263ffffffff60a08201511660c085015260c081015160e085015260e0810151151582850152015161012080840152610140830190611ea0565b50346109fb5760803660031901126109fb57611da2611e2e565b50611dab611e44565b506064356001600160401b03808211610855573660238301121561085557816004013590811161085557369101602401116109fb57604051630a85bd0160e11b8152602090f35b905034611b38576020366003190112611b385760209160ff906040906001600160a01b03611e1e611e2e565b1681526005855220541615158152f35b600435906001600160a01b03821682036109f657565b602435906001600160a01b03821682036109f657565b906004821015611e675752565b634e487b7160e01b600052602160045260246000fd5b60005b838110611e905750506000910152565b8181015183820152602001611e80565b90602091611eb981518092818552858086019101611e7d565b601f01601f1916010190565b6004359063ffffffff821682036109f657565b61012081019081106001600160401b0382111761082b57604052565b6001600160401b03811161082b57604052565b601f909101601f19168101906001600160401b0382119082101761082b57604052565b6001600160401b03811161082b57601f01601f191660200190565b90600182811c92168015611f75575b6020831014611f5f57565b634e487b7160e01b600052602260045260246000fd5b91607f1691611f54565b9060405191826000825492611f9384611f45565b9081845260019485811690816000146120025750600114611fbf575b5050611fbd92500383611f07565b565b9093915060005260209081600020936000915b818310611fea575050611fbd93508201013880611faf565b85548884018501529485019487945091830191611fd2565b915050611fbd94506020925060ff191682840152151560051b8201013880611faf565b6024359081151582036109f657565b6000546001600160a01b0316330361204857565b606460405162461bcd60e51b815260206004820152602060248201527f4f776e61626c653a2063616c6c6572206973206e6f7420746865206f776e65726044820152fd5b51906001600160a01b03821682036109f657565b81601f820112156109f65780516120b681611f2a565b926120c46040519485611f07565b818452602082840101116109f6576120e29160208085019101611e7d565b90565b6001600160a01b03918216815291166020820152604081019190915260600190565b805463ffffffff60a01b191660a09290921b63ffffffff60a01b16919091179055565b805463ffffffff60c01b191660c09290921b63ffffffff60c01b16919091179055565b6004821015611e675752565b9060ff801983541691151516179055565b60ff6002541661217657565b60405162461bcd60e51b815260206004820152601060248201526f14185d5cd8589b194e881c185d5cd95960821b6044820152606490fd5b6002600154146121bf576002600155565b60405162461bcd60e51b815260206004820152601f60248201527f5265656e7472616e637947756172643a207265656e7472616e742063616c6c006044820152606490fd5b1561220b57565b60405162461bcd60e51b815260206004820152601c60248201527b15dc985c1c1959081391950818dbdb9d1c9858dd081b9bdd081cd95d60221b6044820152606490fdfefcf52a516c5105a13e7715d225090e8081472fffe4648188a8f82d1652230c858be0079c531659141344cd1fd0a4f28419497f9722a3daafe3b4186f6b6457e05c923049e0611c2a757e42dd18ce8168a8546cd1fa5056c6c1785200dd5323faa264697066735822122070247a0ce7135130d495a4faa6799587ced82a3fd2dd7c9f9dbf37e92ce0736b64736f6c63430008110033",
  "devdoc": {
    "details": "NFTNFT NFTNFTNFTNFT",
    "kind": "dev",
    "methods": {
      "burnWrappedNFTAndUnlock(uint256)": {
        "details": "NFT"
      },
      "getWrappedNFTContract(uint32)": {
        "details": "NFT"
      },
      "getXCMMessage(bytes32)": {
        "details": "XCM",
        "params": {
          "messageHash": ""
        },
        "returns": {
          "_0": "XCMMessage "
        }
      },
      "isChainSupported(uint32)": {
        "details": ""
      },
      "isContractAuthorized(address)": {
        "details": ""
      },
      "lockNFT(address,uint256,uint32)": {
        "details": "NFT"
      },
      "onERC721Received(address,address,uint256,bytes)": {
        "details": "NFT"
      },
      "owner()": {
        "details": "Returns the address of the current owner."
      },
      "pause()": {
        "details": ""
      },
      "paused()": {
        "details": "Returns true if the contract is paused, and false otherwise."
      },
      "processXCMMessage(bytes32,uint8,address,uint256,address,uint32,string)": {
        "details": ""
      },
      "renounceOwnership()": {
        "details": "Leaves the contract without owner. It will not be possible to call `onlyOwner` functions. Can only be called by the current owner. NOTE: Renouncing ownership will leave the contract without an owner, thereby disabling any functionality that is only available to the owner."
      },
      "setChainSupport(uint32,bool)": {
        "details": ""
      },
      "setContractAuthorization(address,bool)": {
        "details": "NFT"
      },
      "setWrappedNFTContract(uint32,address)": {
        "details": "NFT"
      },
      "transferOwnership(address)": {
        "details": "Transfers ownership of the contract to a new account (`newOwner`). Can only be called by the current owner."
      },
      "unlockNFT(bytes32)": {
        "details": "NFT"
      },
      "unpause()": {
        "details": ""
      }
    },
    "title": "XCMBridgeV2",
    "version": 1
  },
  "userdoc": {
    "kind": "user",
    "methods": {},
    "version": 1
  },
  "storageLayout": {
    "storage": [
      {
        "astId": 7,
        "contract": "contracts/XCMBridgeV2.sol:XCMBridgeV2",
        "label": "_owner",
        "offset": 0,
        "slot": "0",
        "type": "t_address"
      },
      {
        "astId": 259,
        "contract": "contracts/XCMBridgeV2.sol:XCMBridgeV2",
        "label": "_status",
        "offset": 0,
        "slot": "1",
        "type": "t_uint256"
      },
      {
        "astId": 158,
        "contract": "contracts/XCMBridgeV2.sol:XCMBridgeV2",
        "label": "_paused",
        "offset": 0,
        "slot": "2",
        "type": "t_bool"
      },
      {
        "astId": 3611,
        "contract": "contracts/XCMBridgeV2.sol:XCMBridgeV2",
        "label": "crossChainNFTs",
        "offset": 0,
        "slot": "3",
        "type": "t_mapping(t_bytes32,t_struct(CrossChainNFT)3580_storage)"
      },
      {
        "astId": 3616,
        "contract": "contracts/XCMBridgeV2.sol:XCMBridgeV2",
        "label": "xcmMessages",
        "offset": 0,
        "slot": "4",
        "type": "t_mapping(t_bytes32,t_struct(XCMMessage)3600_storage)"
      },
      {
        "astId": 3620,
        "contract": "contracts/XCMBridgeV2.sol:XCMBridgeV2",
        "label": "authorizedContracts",
        "offset": 0,
        "slot": "5",
        "type": "t_mapping(t_address,t_bool)"
      },
      {
        "astId": 3624,
        "contract": "contracts/XCMBridgeV2.sol:XCMBridgeV2",
        "label": "supportedChains",
        "offset": 0,
        "slot": "6",
        "type": "t_mapping(t_uint32,t_bool)"
      },
      {
        "astId": 3628,
        "contract": "contracts/XCMBridgeV2.sol:XCMBridgeV2",
        "label": "wrappedNFTContracts",
        "offset": 0,
        "slot": "7",
        "type": "t_mapping(t_uint32,t_address)"
      }
    ],
    "types": {
      "t_address": {
        "encoding": "inplace",
        "label": "address",
        "numberOfBytes": "20"
      },
      "t_bool": {
        "encoding": "inplace",
        "label": "bool",
        "numberOfBytes": "1"
      },
      "t_bytes32": {
        "encoding": "inplace",
        "label": "bytes32",
        "numberOfBytes": "32"
      },
      "t_enum(MessageType)3563": {
        "encoding": "inplace",
        "label": "enum XCMBridgeV2.MessageType",
        "numberOfBytes": "1"
      },
      "t_mapping(t_address,t_bool)": {
        "encoding": "mapping",
        "key": "t_address",
        "label": "mapping(address => bool)",
        "numberOfBytes": "32",
        "value": "t_bool"
      },
      "t_mapping(t_bytes32,t_struct(CrossChainNFT)3580_storage)": {
        "encoding": "mapping",
        "key": "t_bytes32",
        "label": "mapping(bytes32 => struct XCMBridgeV2.CrossChainNFT)",
        "numberOfBytes": "32",
        "value": "t_struct(CrossChainNFT)3580_storage"
      },
      "t_mapping(t_bytes32,t_struct(XCMMessage)3600_storage)": {
        "encoding": "mapping",
        "key": "t_bytes32",
        "label": "mapping(bytes32 => struct XCMBridgeV2.XCMMessage)",
        "numberOfBytes": "32",
        "value": "t_struct(XCMMessage)3600_storage"
      },
      "t_mapping(t_uint32,t_address)": {
        "encoding": "mapping",
        "key": "t_uint32",
        "label": "mapping(uint32 => address)",
        "numberOfBytes": "32",
        "value": "t_address"
      },
      "t_mapping(t_uint32,t_bool)": {
        "encoding": "mapping",
        "key": "t_uint32",
        "label": "mapping(uint32 => bool)",
        "numberOfBytes": "32",
        "value": "t_bool"
      },
      "t_string_storage": {
        "encoding": "bytes",
        "label": "string",
        "numberOfBytes": "32"
      },
      "t_struct(CrossChainNFT)3580_storage": {
        "encoding": "inplace",
        "label": "struct XCMBridgeV2.CrossChainNFT",
        "members": [
          {
            "astId": 3565,
            "contract": "contracts/XCMBridgeV2.sol:XCMBridgeV2",
            "label": "originalContract",
            "offset": 0,
            "slot": "0",
            "type": "t_address"
          },
          {
            "astId": 3567,
            "contract": "contracts/XCMBridgeV2.sol:XCMBridgeV2",
            "label": "originalTokenId",
            "offset": 0,
            "slot": "1",
            "type": "t_uint256"
          },
          {
            "astId": 3569,
            "contract": "contracts/XCMBridgeV2.sol:XCMBridgeV2",
            "label": "originalOwner",
            "offset": 0,
            "slot": "2",
            "type": "t_address"
          },
          {
            "astId": 3571,
            "contract": "contracts/XCMBridgeV2.sol:XCMBridgeV2",
            "label": "sourceChainId",
            "offset": 20,
            "slot": "2",
            "type": "t_uint32"
          },
          {
            "astId": 3573,
            "contract": "contracts/XCMBridgeV2.sol:XCMBridgeV2",
            "label": "destinationChainId",
            "offset": 24,
            "slot": "2",
            "type": "t_uint32"
          },
          {
            "astId": 3575,
            "contract": "contracts/XCMBridgeV2.sol:XCMBridgeV2",
            "label": "isLocked",
            "offset": 28,
            "slot": "2",
            "type": "t_bool"
          },
          {
            "astId": 3577,
            "contract": "contracts/XCMBridgeV2.sol:XCMBridgeV2",
            "label": "timestamp",
            "offset": 0,
            "slot": "3",
            "type": "t_uint256"
          },
          {
            "astId": 3579,
            "contract": "contracts/XCMBridgeV2.sol:XCMBridgeV2",
            "label": "tokenURI",
            "offset": 0,
            "slot": "4",
            "type": "t_string_storage"
          }
        ],
        "numberOfBytes": "160"
      },
      "t_struct(XCMMessage)3600_storage": {
        "encoding": "inplace",
        "label": "struct XCMBridgeV2.XCMMessage",
        "members": [
          {
            "astId": 3583,
            "contract": "contracts/XCMBridgeV2.sol:XCMBridgeV2",
            "label": "messageType",
            "offset": 0,
            "slot": "0",
            "type": "t_enum(MessageType)3563"
          },
          {
            "astId": 3585,
            "contract": "contracts/XCMBridgeV2.sol:XCMBridgeV2",
            "label": "nftContract",
            "offset": 1,
            "slot": "0",
            "type": "t_address"
          },
          {
            "astId": 3587,
            "contract": "contracts/XCMBridgeV2.sol:XCMBridgeV2",
            "label": "tokenId",
            "offset": 0,
            "slot": "1",
            "type": "t_uint256"
          },
          {
            "astId": 3589,
            "contract": "contracts/XCMBridgeV2.sol:XCMBridgeV2",
            "label": "recipient",
            "offset": 0,
            "slot": "2",
            "type": "t_address"
          },
          {
            "astId": 3591,
            "contract": "contracts/XCMBridgeV2.sol:XCMBridgeV2",
            "label": "sourceChainId",
            "offset": 20,
            "slot": "2",
            "type": "t_uint32"
          },
          {
            "astId": 3593,
            "contract": "contracts/XCMBridgeV2.sol:XCMBridgeV2",
            "label": "destinationChainId",
            "offset": 24,
            "slot": "2",
            "type": "t_uint32"
          },
          {
            "astId": 3595,
            "contract": "contracts/XCMBridgeV2.sol:XCMBridgeV2",
            "label": "messageHash",
            "offset": 0,
            "slot": "3",
            "type": "t_bytes32"
          },
          {
            "astId": 3597,
            "contract": "contracts/XCMBridgeV2.sol:XCMBridgeV2",
            "label": "processed",
            "offset": 0,
            "slot": "4",
            "type": "t_bool"
          },
          {
            "astId": 3599,
            "contract": "contracts/XCMBridgeV2.sol:XCMBridgeV2",
            "label": "tokenURI",
            "offset": 0,
            "slot": "5",
            "type": "t_string_storage"
          }
        ],
        "numberOfBytes": "192"
      },
      "t_uint256": {
        "encoding": "inplace",
        "label": "uint256",
        "numberOfBytes": "32"
      },
      "t_uint32": {
        "encoding": "inplace",
        "label": "uint32",
        "numberOfBytes": "4"
      }
    }
  }
}