{
  "address": "0x737E65458Ee133815D03A886f174cAb2dA2bd4f5",
  "abi": [
    {
      "inputs": [],
      "stateMutability": "nonpayable",
      "type": "constructor"
    },
    {
      "anonymous": false,
      "inputs": [
        {
          "indexed": false,
          "internalType": "uint32",
          "name": "chainId",
          "type": "uint32"
        },
        {
          "indexed": false,
          "internalType": "bool",
          "name": "supported",
          "type": "bool"
        }
      ],
      "name": "ChainSupported",
      "type": "event"
    },
    {
      "anonymous": false,
      "inputs": [
        {
          "indexed": true,
          "internalType": "address",
          "name": "nftContract",
          "type": "address"
        },
        {
          "indexed": false,
          "internalType": "bool",
          "name": "authorized",
          "type": "bool"
        }
      ],
      "name": "ContractAuthorized",
      "type": "event"
    },
    {
      "anonymous": false,
      "inputs": [
        {
          "indexed": true,
          "internalType": "address",
          "name": "nftContract",
          "type": "address"
        },
        {
          "indexed": true,
          "internalType": "uint256",
          "name": "tokenId",
          "type": "uint256"
        },
        {
          "indexed": true,
          "internalType": "address",
          "name": "owner",
          "type": "address"
        },
        {
          "indexed": false,
          "internalType": "uint32",
          "name": "destinationChainId",
          "type": "uint32"
        },
        {
          "indexed": false,
          "internalType": "bytes32",
          "name": "messageHash",
          "type": "bytes32"
        }
      ],
      "name": "NFTLocked",
      "type": "event"
    },
    {
      "anonymous": false,
      "inputs": [
        {
          "indexed": true,
          "internalType": "address",
          "name": "nftContract",
          "type": "address"
        },
        {
          "indexed": true,
          "internalType": "uint256",
          "name": "tokenId",
          "type": "uint256"
        },
        {
          "indexed": true,
          "internalType": "address",
          "name": "owner",
          "type": "address"
        },
        {
          "indexed": false,
          "internalType": "bytes32",
          "name": "messageHash",
          "type": "bytes32"
        }
      ],
      "name": "NFTUnlocked",
      "type": "event"
    },
    {
      "anonymous": false,
      "inputs": [
        {
          "indexed": true,
          "internalType": "address",
          "name": "previousOwner",
          "type": "address"
        },
        {
          "indexed": true,
          "internalType": "address",
          "name": "newOwner",
          "type": "address"
        }
      ],
      "name": "OwnershipTransferred",
      "type": "event"
    },
    {
      "anonymous": false,
      "inputs": [
        {
          "indexed": false,
          "internalType": "address",
          "name": "account",
          "type": "address"
        }
      ],
      "name": "Paused",
      "type": "event"
    },
    {
      "anonymous": false,
      "inputs": [
        {
          "indexed": false,
          "internalType": "address",
          "name": "account",
          "type": "address"
        }
      ],
      "name": "Unpaused",
      "type": "event"
    },
    {
      "anonymous": false,
      "inputs": [
        {
          "indexed": true,
          "internalType": "bytes32",
          "name": "messageHash",
          "type": "bytes32"
        },
        {
          "indexed": false,
          "internalType": "enum XCMBridge.MessageType",
          "name": "messageType",
          "type": "uint8"
        },
        {
          "indexed": false,
          "internalType": "uint32",
          "name": "sourceChainId",
          "type": "uint32"
        }
      ],
      "name": "XCMMessageReceived",
      "type": "event"
    },
    {
      "anonymous": false,
      "inputs": [
        {
          "indexed": true,
          "internalType": "bytes32",
          "name": "messageHash",
          "type": "bytes32"
        },
        {
          "indexed": false,
          "internalType": "enum XCMBridge.MessageType",
          "name": "messageType",
          "type": "uint8"
        },
        {
          "indexed": false,
          "internalType": "uint32",
          "name": "destinationChainId",
          "type": "uint32"
        }
      ],
      "name": "XCMMessageSent",
      "type": "event"
    },
    {
      "inputs": [],
      "name": "MOONBASE_ALPHA_CHAIN_ID",
      "outputs": [
        {
          "internalType": "uint32",
          "name": "",
          "type": "uint32"
        }
      ],
      "stateMutability": "view",
      "type": "function"
    },
    {
      "inputs": [],
      "name": "POLKADOT_HUB_CHAIN_ID",
      "outputs": [
        {
          "internalType": "uint32",
          "name": "",
          "type": "uint32"
        }
      ],
      "stateMutability": "view",
      "type": "function"
    },
    {
      "inputs": [
        {
          "internalType": "address",
          "name": "",
          "type": "address"
        }
      ],
      "name": "authorizedContracts",
      "outputs": [
        {
          "internalType": "bool",
          "name": "",
          "type": "bool"
        }
      ],
      "stateMutability": "view",
      "type": "function"
    },
    {
      "inputs": [
        {
          "internalType": "bytes32",
          "name": "",
          "type": "bytes32"
        }
      ],
      "name": "crossChainNFTs",
      "outputs": [
        {
          "internalType": "address",
          "name": "originalContract",
          "type": "address"
        },
        {
          "internalType": "uint256",
          "name": "originalTokenId",
          "type": "uint256"
        },
        {
          "internalType": "address",
          "name": "originalOwner",
          "type": "address"
        },
        {
          "internalType": "uint32",
          "name": "sourceChainId",
          "type": "uint32"
        },
        {
          "internalType": "uint32",
          "name": "destinationChainId",
          "type": "uint32"
        },
        {
          "internalType": "bool",
          "name": "isLocked",
          "type": "bool"
        },
        {
          "internalType": "uint256",
          "name": "timestamp",
          "type": "uint256"
        }
      ],
      "stateMutability": "view",
      "type": "function"
    },
    {
      "inputs": [
        {
          "internalType": "address",
          "name": "nftContract",
          "type": "address"
        },
        {
          "internalType": "uint256",
          "name": "tokenId",
          "type": "uint256"
        },
        {
          "internalType": "address",
          "name": "to",
          "type": "address"
        }
      ],
      "name": "emergencyWithdraw",
      "outputs": [],
      "stateMutability": "nonpayable",
      "type": "function"
    },
    {
      "inputs": [
        {
          "internalType": "bytes32",
          "name": "messageHash",
          "type": "bytes32"
        }
      ],
      "name": "getCrossChainNFT",
      "outputs": [
        {
          "components": [
            {
              "internalType": "address",
              "name": "originalContract",
              "type": "address"
            },
            {
              "internalType": "uint256",
              "name": "originalTokenId",
              "type": "uint256"
            },
            {
              "internalType": "address",
              "name": "originalOwner",
              "type": "address"
            },
            {
              "internalType": "uint32",
              "name": "sourceChainId",
              "type": "uint32"
            },
            {
              "internalType": "uint32",
              "name": "destinationChainId",
              "type": "uint32"
            },
            {
              "internalType": "bool",
              "name": "isLocked",
              "type": "bool"
            },
            {
              "internalType": "uint256",
              "name": "timestamp",
              "type": "uint256"
            }
          ],
          "internalType": "struct XCMBridge.CrossChainNFT",
          "name": "",
          "type": "tuple"
        }
      ],
      "stateMutability": "view",
      "type": "function"
    },
    {
      "inputs": [
        {
          "internalType": "bytes32",
          "name": "messageHash",
          "type": "bytes32"
        }
      ],
      "name": "getXCMMessage",
      "outputs": [
        {
          "components": [
            {
              "internalType": "enum XCMBridge.MessageType",
              "name": "messageType",
              "type": "uint8"
            },
            {
              "internalType": "address",
              "name": "nftContract",
              "type": "address"
            },
            {
              "internalType": "uint256",
              "name": "tokenId",
              "type": "uint256"
            },
            {
              "internalType": "address",
              "name": "recipient",
              "type": "address"
            },
            {
              "internalType": "uint32",
              "name": "sourceChainId",
              "type": "uint32"
            },
            {
              "internalType": "uint32",
              "name": "destinationChainId",
              "type": "uint32"
            },
            {
              "internalType": "bytes32",
              "name": "messageHash",
              "type": "bytes32"
            },
            {
              "internalType": "bool",
              "name": "processed",
              "type": "bool"
            }
          ],
          "internalType": "struct XCMBridge.XCMMessage",
          "name": "",
          "type": "tuple"
        }
      ],
      "stateMutability": "view",
      "type": "function"
    },
    {
      "inputs": [
        {
          "internalType": "address",
          "name": "nftContract",
          "type": "address"
        },
        {
          "internalType": "uint256",
          "name": "tokenId",
          "type": "uint256"
        },
        {
          "internalType": "uint32",
          "name": "destinationChainId",
          "type": "uint32"
        }
      ],
      "name": "lockNFT",
      "outputs": [],
      "stateMutability": "nonpayable",
      "type": "function"
    },
    {
      "inputs": [
        {
          "internalType": "address",
          "name": "",
          "type": "address"
        },
        {
          "internalType": "uint256",
          "name": "",
          "type": "uint256"
        }
      ],
      "name": "nftToMessageHash",
      "outputs": [
        {
          "internalType": "bytes32",
          "name": "",
          "type": "bytes32"
        }
      ],
      "stateMutability": "view",
      "type": "function"
    },
    {
      "inputs": [
        {
          "internalType": "address",
          "name": "",
          "type": "address"
        },
        {
          "internalType": "address",
          "name": "",
          "type": "address"
        },
        {
          "internalType": "uint256",
          "name": "",
          "type": "uint256"
        },
        {
          "internalType": "bytes",
          "name": "",
          "type": "bytes"
        }
      ],
      "name": "onERC721Received",
      "outputs": [
        {
          "internalType": "bytes4",
          "name": "",
          "type": "bytes4"
        }
      ],
      "stateMutability": "pure",
      "type": "function"
    },
    {
      "inputs": [],
      "name": "owner",
      "outputs": [
        {
          "internalType": "address",
          "name": "",
          "type": "address"
        }
      ],
      "stateMutability": "view",
      "type": "function"
    },
    {
      "inputs": [],
      "name": "pause",
      "outputs": [],
      "stateMutability": "nonpayable",
      "type": "function"
    },
    {
      "inputs": [],
      "name": "paused",
      "outputs": [
        {
          "internalType": "bool",
          "name": "",
          "type": "bool"
        }
      ],
      "stateMutability": "view",
      "type": "function"
    },
    {
      "inputs": [
        {
          "internalType": "bytes32",
          "name": "messageHash",
          "type": "bytes32"
        },
        {
          "internalType": "enum XCMBridge.MessageType",
          "name": "messageType",
          "type": "uint8"
        },
        {
          "internalType": "address",
          "name": "nftContract",
          "type": "address"
        },
        {
          "internalType": "uint256",
          "name": "tokenId",
          "type": "uint256"
        },
        {
          "internalType": "address",
          "name": "recipient",
          "type": "address"
        },
        {
          "internalType": "uint32",
          "name": "sourceChainId",
          "type": "uint32"
        }
      ],
      "name": "processXCMMessage",
      "outputs": [],
      "stateMutability": "nonpayable",
      "type": "function"
    },
    {
      "inputs": [],
      "name": "renounceOwnership",
      "outputs": [],
      "stateMutability": "nonpayable",
      "type": "function"
    },
    {
      "inputs": [
        {
          "internalType": "uint32",
          "name": "chainId",
          "type": "uint32"
        },
        {
          "internalType": "bool",
          "name": "supported",
          "type": "bool"
        }
      ],
      "name": "setChainSupport",
      "outputs": [],
      "stateMutability": "nonpayable",
      "type": "function"
    },
    {
      "inputs": [
        {
          "internalType": "address",
          "name": "nftContract",
          "type": "address"
        },
        {
          "internalType": "bool",
          "name": "authorized",
          "type": "bool"
        }
      ],
      "name": "setContractAuthorization",
      "outputs": [],
      "stateMutability": "nonpayable",
      "type": "function"
    },
    {
      "inputs": [
        {
          "internalType": "uint32",
          "name": "",
          "type": "uint32"
        }
      ],
      "name": "supportedChains",
      "outputs": [
        {
          "internalType": "bool",
          "name": "",
          "type": "bool"
        }
      ],
      "stateMutability": "view",
      "type": "function"
    },
    {
      "inputs": [
        {
          "internalType": "address",
          "name": "newOwner",
          "type": "address"
        }
      ],
      "name": "transferOwnership",
      "outputs": [],
      "stateMutability": "nonpayable",
      "type": "function"
    },
    {
      "inputs": [
        {
          "internalType": "bytes32",
          "name": "messageHash",
          "type": "bytes32"
        }
      ],
      "name": "unlockNFT",
      "outputs": [],
      "stateMutability": "nonpayable",
      "type": "function"
    },
    {
      "inputs": [],
      "name": "unpause",
      "outputs": [],
      "stateMutability": "nonpayable",
      "type": "function"
    },
    {
      "inputs": [
        {
          "internalType": "bytes32",
          "name": "",
          "type": "bytes32"
        }
      ],
      "name": "xcmMessages",
      "outputs": [
        {
          "internalType": "enum XCMBridge.MessageType",
          "name": "messageType",
          "type": "uint8"
        },
        {
          "internalType": "address",
          "name": "nftContract",
          "type": "address"
        },
        {
          "internalType": "uint256",
          "name": "tokenId",
          "type": "uint256"
        },
        {
          "internalType": "address",
          "name": "recipient",
          "type": "address"
        },
        {
          "internalType": "uint32",
          "name": "sourceChainId",
          "type": "uint32"
        },
        {
          "internalType": "uint32",
          "name": "destinationChainId",
          "type": "uint32"
        },
        {
          "internalType": "bytes32",
          "name": "messageHash",
          "type": "bytes32"
        },
        {
          "internalType": "bool",
          "name": "processed",
          "type": "bool"
        }
      ],
      "stateMutability": "view",
      "type": "function"
    }
  ],
  "transactionHash": "0x36ab6c154b05382deddbb6848ccb50e07b6da92ccc3a2b3ba6ef8b7ee0e59aa8",
  "args": [],
  "numDeployments": 2,
  "solcInputHash": "9aadc5f2e71d729603c4c42ca2daaef4",
  "bytecode": "0x608080604052346100905760008054336001600160a01b0319821681178355906001600160a01b03167f8be0079c531659141344cd1fd0a4f28419497f9722a3daafe3b4186f6b6457e08380a3600180556001604060ff1992836002541660025563190f1b468152600660205281812083858254161790556105078152209182541617905561161490816100968239f35b600080fdfe608080604052600436101561001357600080fd5b600090813560e01c908163137982321461122f57508063150b7a02146111bc5780631abb86b114611088578063248514dd1461104e5780633f4ba83a14610fb9578063551512de14610f335780635c975abb14610f10578063715018a614610ec85780638456cb5914610e6d57806387d3219f14610e2a5780638da5cb5b14610e03578063a0c0ce3714610c93578063a89a73e014610bfe578063bce706d714610bdf578063c5ed290314610bc2578063d29e665b1461087b578063d5b9221b1461083c578063f2fde38b1461078b578063f60ccc8614610714578063f6ee27b71461069b578063f7bef2421461061d5763fdc4a91a1461011357600080fd5b3461061a57606036600319011261061a5761012c611329565b60443563ffffffff8116810361061557610144611568565b61014c611524565b6001600160a01b03821683526005602052604083205461016e9060ff166113f2565b63ffffffff81168352600660205260ff604084205416156105da576040516331a9108f60e11b81526024803560048301526020908290816001600160a01b0387165afa9081156105cf578491610578575b50336001600160a01b039091160361054157604051606083811b6001600160601b0319166020830190815260243560348401523390911b605483015246606883015260e083901b6001600160e01b031916608883015242608c80840191909152825290929060c084016001600160401b0381118582101761052b5760408190528451909120938591906001600160a01b0384163b1561052757632142170760e11b82528290829060bf199061027b602435303360c48501611482565b030181836001600160a01b0388165af1801561051c57610504575b50506040516102a481611438565b60018060a01b0382168152602435602082015233604082015263ffffffff4616606082015263ffffffff83166080820152600160a08201524260c08201528385526003602052600360c0604087209260018060a01b0381511660018060a01b03198554161784556020810151600185015561036c6002850160018060a01b0360408401511660018060a01b031982541617815561034b63ffffffff606085015116826114a4565b61035f63ffffffff608085015116826114c7565b60a08301511515906114ea565b015191015560405161037d81611453565b84815260018060a01b0382166020820152602435604082015233606082015263ffffffff4616608082015263ffffffff831660a08201528360c08201528460e082015283855260046020526040852090805160048110156104f05782600460e060409694610492947ffcf52a516c5105a13e7715d225090e8081472fffe4648188a8f82d1652230c8599975460ff610100600160a81b03602085015160081b1692169060018060a81b0319161717845587810151600185015561047d6002850160018060a01b0360608401511660018060a01b031982541617815561046c63ffffffff608085015116826114a4565b63ffffffff60a084015116906114c7565b60c08101516003850155015115159101611513565b82519063ffffffff8316825285602083015233917f592bb6d61f2bb9df16a802049c93a5995aa0560158c1dece8bab0e0f30aadb16856024359360018060a01b031692a463ffffffff82519160008352166020820152a26001805580f35b634e487b7160e01b87526021600452602487fd5b61050d9061146f565b610518578338610296565b8380fd5b6040513d84823e3d90fd5b8280fd5b634e487b7160e01b600052604160045260246000fd5b60405162461bcd60e51b815260206004820152600f60248201526e2737ba103a37b5b2b71037bbb732b960891b6044820152606490fd5b905060203d6020116105c8575b601f8101601f191682016001600160401b0381118382101761052b5760209183916040528101031261051857516001600160a01b038116810361051857386101bf565b503d610585565b6040513d86823e3d90fd5b60405162461bcd60e51b815260206004820152601360248201527210da185a5b881b9bdd081cdd5c1c1bdc9d1959606a1b6044820152606490fd5b600080fd5b80fd5b503461061a57602036600319011261061a57604060e091600435815260036020522060018060a01b0360ff8183541692600181015492600360028301549201549360405195865260208601528116604085015263ffffffff808260a01c1660608601528160c01c166080850152841c16151560a083015260c0820152f35b503461061a57604036600319011261061a577f8c3c71aedf3488faccc5d8b353f31837995f6ce36c04f9449471680016f2adc160406106d8611378565b63ffffffff6106e561138b565b916106ee61139a565b1690818552600660205261070481848720611513565b825191825215156020820152a180f35b503461061a57604036600319011261061a5761072e611329565b7f3213ab8ec2ed122402f038736b41878b69ae9f61f49a7edd0666bce891d29fc9602061075961138b565b9261076261139a565b60018060a01b0316928385526005825261077f8160408720611513565b6040519015158152a280f35b503461061a57602036600319011261061a576107a5611329565b6107ad61139a565b6001600160a01b039081169081156107e8576000548260018060a01b0319821617600055166000805160206115bf833981519152600080a380f35b60405162461bcd60e51b815260206004820152602660248201527f4f776e61626c653a206e6577206f776e657220697320746865207a65726f206160448201526564647265737360d01b6064820152608490fd5b503461061a57602036600319011261061a5760209060ff906040906001600160a01b03610867611329565b168152600584522054166040519015158152f35b503461061a5760c036600319011261061a576004602435101561061a576108a061133f565b608435906001600160a01b03821682036106155760a4359163ffffffff83168303610615576108cd611568565b6108d5611524565b6004358452600460205260ff600460408620015416610b815763ffffffff83168452600660205260ff60408520541615610b3f576001600160a01b03821684526005602052604084205461092b9060ff166113f2565b60405161093781611453565b61094360243582611507565b60018060a01b0383166020820152606435604082015260018060a01b038216606082015263ffffffff8416608082015263ffffffff461660a082015260043560c0820152600160e0820152600435855260046020526040852090805160048110156104f05760e08392600492610a18955460ff610100600160a81b03602085015160081b1692169060018060a81b031916171784556040810151600185015561047d6002850160018060a01b0360608401511660018060a01b031982541617815561046c63ffffffff608085015116826114a4565b8360243515610a6c575b60405163ffffffff85610a3783602435611355565b1660208201527fa4c75f3934813d3ea3822a68ad93195b7c13927a6600022ba0f52e4b799a6a7c604060043592a26001805580f35b610b3360039260405194610a7f86611438565b60018060a01b0316855284610b2a63ffffffff602083016064358152604084019460018060a01b03168552610b228260608601818d16815260808701938246168552604060c060a08a019960018b52019b428d5260043581528d602052209c60018060a01b039051168d60018060a01b0319905416178d555160018d015560028c019760018060a01b0390511660018060a01b03198954161788555116866114a4565b5116836114c7565b511515906114ea565b51910155388083610a22565b60405162461bcd60e51b815260206004820152601a60248201527914dbdd5c98d94818da185a5b881b9bdd081cdd5c1c1bdc9d195960321b6044820152606490fd5b60405162461bcd60e51b815260206004820152601960248201527813595cdcd859d948185b1c9958591e481c1c9bd8d95cdcd959603a1b6044820152606490fd5b503461061a578060031936011261061a5760206040516105078152f35b503461061a578060031936011261061a57602060405163190f1b468152f35b503461061a57602036600319011261061a5760406101009160043581526004602052208054600182015491600281015460ff60046003840154930154169260405194610c4d8660ff8416611355565b60018060a01b03809260081c16602087015260408601528116606085015263ffffffff90818160a01c16608086015260c01c1660a084015260c0830152151560e0820152f35b503461061a57602036600319011261061a57600435610cb0611568565b610cb8611524565b808252600360205260408220600281019081549060ff8260e01c1615610dcd576001600160a01b0382811692909190338403610d935760ff60e01b19168455858282541660018301948554823b1561051857610d2e92849283604051809681958294632142170760e11b84523060048501611482565b03925af1801561051c57610d7b575b5050817f5c923049e0611c2a757e42dd18ce8168a8546cd1fa5056c6c1785200dd5323fa926020925416935494541694604051908152a46001805580f35b610d849061146f565b610d8f578538610d3d565b8580fd5b60405162461bcd60e51b81526020600482015260126024820152712737ba1037b934b3b4b730b61037bbb732b960711b6044820152606490fd5b60405162461bcd60e51b815260206004820152600e60248201526d139195081b9bdd081b1bd8dad95960921b6044820152606490fd5b503461061a578060031936011261061a57546040516001600160a01b039091168152602090f35b503461061a57604036600319011261061a576020906040906001600160a01b03610e52611329565b16815260078352818120602435825283522054604051908152f35b503461061a578060031936011261061a57610e8661139a565b610e8e611524565b600160ff1960025416176002557f62e78cea01bee320cd4e420270b5ea74000d11b0c9f74754ebdbfc544b05a2586020604051338152a180f35b503461061a578060031936011261061a57610ee161139a565b600080546001600160a01b0319811682556001600160a01b03166000805160206115bf8339815191528280a380f35b503461061a578060031936011261061a57602060ff600254166040519015158152f35b503461061a57606036600319011261061a5780610f4e611329565b610f5661133f565b90610f5f61139a565b6001600160a01b031690813b15610fb5578291610f9791604051948580948193632142170760e11b8352602435903060048501611482565b03925af1801561051c57610fa9575080f35b610fb29061146f565b80f35b5050fd5b503461061a578060031936011261061a57610fd261139a565b60025460ff8116156110125760ff19166002557f5db9ee0a495bf2e6ff9c91a7834c1ba4fdd244a5e8aa4e537bd38aeae4b073aa6020604051338152a180f35b60405162461bcd60e51b815260206004820152601460248201527314185d5cd8589b194e881b9bdd081c185d5cd95960621b6044820152606490fd5b503461061a57602036600319011261061a5760ff604060209263ffffffff611074611378565b168152600684522054166040519015158152f35b503461061a57602036600319011261061a576040816101009260e083516110ae81611453565b82815282602082015282858201528260608201528260808201528260a08201528260c0820152015260043581526004602052206040516110ed81611453565b8154916110fd60ff841683611507565b602082019260018060a01b039060081c16835263ffffffff600182015492604081019384528160806002850154926060810160018060a01b0385168152838560a01c16838301528360a083019560c01c16855260ff600460038901549860c08501998a520154169760e0830198151589526040519961117d8b8551611355565b516001600160a01b0390811660208c0152905160408b015290511660608901520151166080860152511660a08401525160c083015251151560e0820152f35b503461061a57608036600319011261061a576111d6611329565b506024356001600160a01b0381160361061a576064356001600160401b038082116105275736602383011215610527578160040135908111610527573691016024011161061a57604051630a85bd0160e11b8152602090f35b905034611325576020366003190112611325578160e09260c083611254604095611438565b82815282602082015282858201528260608201528260808201528260a08201520152600435815260036020522060405161128d81611438565b60018060a01b039182815416928383526001820154916020840192835260028101549260408501928085168452606086019063ffffffff948593848860a01c16845260c0600360808b0197878b841c16895260ff60a08d019b8f1c1615158b5201549901988952604051998a525160208a015251166040880152511660608601525116608084015251151560a08301525160c0820152f35b5080fd5b600435906001600160a01b038216820361061557565b604435906001600160a01b038216820361061557565b9060048210156113625752565b634e487b7160e01b600052602160045260246000fd5b6004359063ffffffff8216820361061557565b60243590811515820361061557565b6000546001600160a01b031633036113ae57565b606460405162461bcd60e51b815260206004820152602060248201527f4f776e61626c653a2063616c6c6572206973206e6f7420746865206f776e65726044820152fd5b156113f957565b60405162461bcd60e51b815260206004820152601760248201527610dbdb9d1c9858dd081b9bdd08185d5d1a1bdc9a5e9959604a1b6044820152606490fd5b60e081019081106001600160401b0382111761052b57604052565b61010081019081106001600160401b0382111761052b57604052565b6001600160401b03811161052b57604052565b6001600160a01b03918216815291166020820152604081019190915260600190565b805463ffffffff60a01b191660a09290921b63ffffffff60a01b16919091179055565b805463ffffffff60c01b191660c09290921b63ffffffff60c01b16919091179055565b805460ff60e01b191691151560e01b60ff60e01b16919091179055565b60048210156113625752565b9060ff801983541691151516179055565b60ff6002541661153057565b60405162461bcd60e51b815260206004820152601060248201526f14185d5cd8589b194e881c185d5cd95960821b6044820152606490fd5b600260015414611579576002600155565b60405162461bcd60e51b815260206004820152601f60248201527f5265656e7472616e637947756172643a207265656e7472616e742063616c6c006044820152606490fdfe8be0079c531659141344cd1fd0a4f28419497f9722a3daafe3b4186f6b6457e0a26469706673582212200383ff0e1d81cec6a9ebc2ca4139376b3de3fa0db441d498a99b9438abfa476d64736f6c63430008110033",
  "devdoc": {
    "details": "Cross-chain NFT bridge contract for Polkadot XCM integration Handles NFT locking/unlocking and cross-chain message processing",
    "kind": "dev",
    "methods": {
      "emergencyWithdraw(address,uint256,address)": {
        "details": "Emergency withdrawal function (only owner)",
        "params": {
          "nftContract": "NFT contract address",
          "to": "Recipient address",
          "tokenId": "Token ID"
        }
      },
      "getCrossChainNFT(bytes32)": {
        "details": "Get cross-chain NFT information",
        "params": {
          "messageHash": "Message hash"
        },
        "returns": {
          "_0": "CrossChainNFT information"
        }
      },
      "getXCMMessage(bytes32)": {
        "details": "Get XCM message information",
        "params": {
          "messageHash": "Message hash"
        },
        "returns": {
          "_0": "XCMMessage information"
        }
      },
      "lockNFT(address,uint256,uint32)": {
        "details": "Lock NFT for cross-chain transfer",
        "params": {
          "destinationChainId": "Target chain ID",
          "nftContract": "Address of the NFT contract",
          "tokenId": "Token ID to lock"
        }
      },
      "onERC721Received(address,address,uint256,bytes)": {
        "details": "Handle NFT reception"
      },
      "owner()": {
        "details": "Returns the address of the current owner."
      },
      "pause()": {
        "details": "Emergency pause function"
      },
      "paused()": {
        "details": "Returns true if the contract is paused, and false otherwise."
      },
      "processXCMMessage(bytes32,uint8,address,uint256,address,uint32)": {
        "details": "Process incoming XCM message",
        "params": {
          "messageHash": "Hash of the XCM message",
          "messageType": "Type of XCM message",
          "nftContract": "NFT contract address",
          "recipient": "Recipient address",
          "sourceChainId": "Source chain ID",
          "tokenId": "Token ID"
        }
      },
      "renounceOwnership()": {
        "details": "Leaves the contract without owner. It will not be possible to call `onlyOwner` functions. Can only be called by the current owner. NOTE: Renouncing ownership will leave the contract without an owner, thereby disabling any functionality that is only available to the owner."
      },
      "setChainSupport(uint32,bool)": {
        "details": "Set chain support status",
        "params": {
          "chainId": "Chain ID",
          "supported": "Support status"
        }
      },
      "setContractAuthorization(address,bool)": {
        "details": "Authorize NFT contract for cross-chain transfers",
        "params": {
          "authorized": "Authorization status",
          "nftContract": "Address of the NFT contract"
        }
      },
      "transferOwnership(address)": {
        "details": "Transfers ownership of the contract to a new account (`newOwner`). Can only be called by the current owner."
      },
      "unlockNFT(bytes32)": {
        "details": "Unlock NFT after cross-chain transfer completion",
        "params": {
          "messageHash": "Hash of the original lock message"
        }
      },
      "unpause()": {
        "details": "Unpause function"
      }
    },
    "title": "XCMBridge",
    "version": 1
  },
  "userdoc": {
    "kind": "user",
    "methods": {},
    "version": 1
  },
  "storageLayout": {
    "storage": [
      {
        "astId": 7,
        "contract": "contracts/XCMBridge.sol:XCMBridge",
        "label": "_owner",
        "offset": 0,
        "slot": "0",
        "type": "t_address"
      },
      {
        "astId": 231,
        "contract": "contracts/XCMBridge.sol:XCMBridge",
        "label": "_status",
        "offset": 0,
        "slot": "1",
        "type": "t_uint256"
      },
      {
        "astId": 130,
        "contract": "contracts/XCMBridge.sol:XCMBridge",
        "label": "_paused",
        "offset": 0,
        "slot": "2",
        "type": "t_bool"
      },
      {
        "astId": 1576,
        "contract": "contracts/XCMBridge.sol:XCMBridge",
        "label": "crossChainNFTs",
        "offset": 0,
        "slot": "3",
        "type": "t_mapping(t_bytes32,t_struct(CrossChainNFT)1547_storage)"
      },
      {
        "astId": 1581,
        "contract": "contracts/XCMBridge.sol:XCMBridge",
        "label": "xcmMessages",
        "offset": 0,
        "slot": "4",
        "type": "t_mapping(t_bytes32,t_struct(XCMMessage)1565_storage)"
      },
      {
        "astId": 1585,
        "contract": "contracts/XCMBridge.sol:XCMBridge",
        "label": "authorizedContracts",
        "offset": 0,
        "slot": "5",
        "type": "t_mapping(t_address,t_bool)"
      },
      {
        "astId": 1589,
        "contract": "contracts/XCMBridge.sol:XCMBridge",
        "label": "supportedChains",
        "offset": 0,
        "slot": "6",
        "type": "t_mapping(t_uint32,t_bool)"
      },
      {
        "astId": 1595,
        "contract": "contracts/XCMBridge.sol:XCMBridge",
        "label": "nftToMessageHash",
        "offset": 0,
        "slot": "7",
        "type": "t_mapping(t_address,t_mapping(t_uint256,t_bytes32))"
      }
    ],
    "types": {
      "t_address": {
        "encoding": "inplace",
        "label": "address",
        "numberOfBytes": "20"
      },
      "t_bool": {
        "encoding": "inplace",
        "label": "bool",
        "numberOfBytes": "1"
      },
      "t_bytes32": {
        "encoding": "inplace",
        "label": "bytes32",
        "numberOfBytes": "32"
      },
      "t_enum(MessageType)1532": {
        "encoding": "inplace",
        "label": "enum XCMBridge.MessageType",
        "numberOfBytes": "1"
      },
      "t_mapping(t_address,t_bool)": {
        "encoding": "mapping",
        "key": "t_address",
        "label": "mapping(address => bool)",
        "numberOfBytes": "32",
        "value": "t_bool"
      },
      "t_mapping(t_address,t_mapping(t_uint256,t_bytes32))": {
        "encoding": "mapping",
        "key": "t_address",
        "label": "mapping(address => mapping(uint256 => bytes32))",
        "numberOfBytes": "32",
        "value": "t_mapping(t_uint256,t_bytes32)"
      },
      "t_mapping(t_bytes32,t_struct(CrossChainNFT)1547_storage)": {
        "encoding": "mapping",
        "key": "t_bytes32",
        "label": "mapping(bytes32 => struct XCMBridge.CrossChainNFT)",
        "numberOfBytes": "32",
        "value": "t_struct(CrossChainNFT)1547_storage"
      },
      "t_mapping(t_bytes32,t_struct(XCMMessage)1565_storage)": {
        "encoding": "mapping",
        "key": "t_bytes32",
        "label": "mapping(bytes32 => struct XCMBridge.XCMMessage)",
        "numberOfBytes": "32",
        "value": "t_struct(XCMMessage)1565_storage"
      },
      "t_mapping(t_uint256,t_bytes32)": {
        "encoding": "mapping",
        "key": "t_uint256",
        "label": "mapping(uint256 => bytes32)",
        "numberOfBytes": "32",
        "value": "t_bytes32"
      },
      "t_mapping(t_uint32,t_bool)": {
        "encoding": "mapping",
        "key": "t_uint32",
        "label": "mapping(uint32 => bool)",
        "numberOfBytes": "32",
        "value": "t_bool"
      },
      "t_struct(CrossChainNFT)1547_storage": {
        "encoding": "inplace",
        "label": "struct XCMBridge.CrossChainNFT",
        "members": [
          {
            "astId": 1534,
            "contract": "contracts/XCMBridge.sol:XCMBridge",
            "label": "originalContract",
            "offset": 0,
            "slot": "0",
            "type": "t_address"
          },
          {
            "astId": 1536,
            "contract": "contracts/XCMBridge.sol:XCMBridge",
            "label": "originalTokenId",
            "offset": 0,
            "slot": "1",
            "type": "t_uint256"
          },
          {
            "astId": 1538,
            "contract": "contracts/XCMBridge.sol:XCMBridge",
            "label": "originalOwner",
            "offset": 0,
            "slot": "2",
            "type": "t_address"
          },
          {
            "astId": 1540,
            "contract": "contracts/XCMBridge.sol:XCMBridge",
            "label": "sourceChainId",
            "offset": 20,
            "slot": "2",
            "type": "t_uint32"
          },
          {
            "astId": 1542,
            "contract": "contracts/XCMBridge.sol:XCMBridge",
            "label": "destinationChainId",
            "offset": 24,
            "slot": "2",
            "type": "t_uint32"
          },
          {
            "astId": 1544,
            "contract": "contracts/XCMBridge.sol:XCMBridge",
            "label": "isLocked",
            "offset": 28,
            "slot": "2",
            "type": "t_bool"
          },
          {
            "astId": 1546,
            "contract": "contracts/XCMBridge.sol:XCMBridge",
            "label": "timestamp",
            "offset": 0,
            "slot": "3",
            "type": "t_uint256"
          }
        ],
        "numberOfBytes": "128"
      },
      "t_struct(XCMMessage)1565_storage": {
        "encoding": "inplace",
        "label": "struct XCMBridge.XCMMessage",
        "members": [
          {
            "astId": 1550,
            "contract": "contracts/XCMBridge.sol:XCMBridge",
            "label": "messageType",
            "offset": 0,
            "slot": "0",
            "type": "t_enum(MessageType)1532"
          },
          {
            "astId": 1552,
            "contract": "contracts/XCMBridge.sol:XCMBridge",
            "label": "nftContract",
            "offset": 1,
            "slot": "0",
            "type": "t_address"
          },
          {
            "astId": 1554,
            "contract": "contracts/XCMBridge.sol:XCMBridge",
            "label": "tokenId",
            "offset": 0,
            "slot": "1",
            "type": "t_uint256"
          },
          {
            "astId": 1556,
            "contract": "contracts/XCMBridge.sol:XCMBridge",
            "label": "recipient",
            "offset": 0,
            "slot": "2",
            "type": "t_address"
          },
          {
            "astId": 1558,
            "contract": "contracts/XCMBridge.sol:XCMBridge",
            "label": "sourceChainId",
            "offset": 20,
            "slot": "2",
            "type": "t_uint32"
          },
          {
            "astId": 1560,
            "contract": "contracts/XCMBridge.sol:XCMBridge",
            "label": "destinationChainId",
            "offset": 24,
            "slot": "2",
            "type": "t_uint32"
          },
          {
            "astId": 1562,
            "contract": "contracts/XCMBridge.sol:XCMBridge",
            "label": "messageHash",
            "offset": 0,
            "slot": "3",
            "type": "t_bytes32"
          },
          {
            "astId": 1564,
            "contract": "contracts/XCMBridge.sol:XCMBridge",
            "label": "processed",
            "offset": 0,
            "slot": "4",
            "type": "t_bool"
          }
        ],
        "numberOfBytes": "160"
      },
      "t_uint256": {
        "encoding": "inplace",
        "label": "uint256",
        "numberOfBytes": "32"
      },
      "t_uint32": {
        "encoding": "inplace",
        "label": "uint32",
        "numberOfBytes": "4"
      }
    }
  }
}